{
  "contractName": "Marketplace",
  "abi": [
    {
      "inputs": [
        {
          "internalType": "address",
          "name": "_tokenAddress",
          "type": "address"
        }
      ],
      "stateMutability": "nonpayable",
      "type": "constructor"
    },
    {
      "inputs": [],
      "name": "deno",
      "outputs": [
        {
          "internalType": "uint256",
          "name": "",
          "type": "uint256"
        }
      ],
      "stateMutability": "view",
      "type": "function",
      "constant": true
    },
    {
      "inputs": [],
      "name": "platformFee",
      "outputs": [
        {
          "internalType": "uint256",
          "name": "",
          "type": "uint256"
        }
      ],
      "stateMutability": "view",
      "type": "function",
      "constant": true
    },
    {
      "inputs": [],
      "name": "tokenAddress",
      "outputs": [
        {
          "internalType": "contract IERC20",
          "name": "",
          "type": "address"
        }
      ],
      "stateMutability": "view",
      "type": "function",
      "constant": true
    },
    {
      "inputs": [
        {
          "internalType": "address",
          "name": "nftContract",
          "type": "address"
        },
        {
          "internalType": "uint256",
          "name": "tokenId",
          "type": "uint256"
        },
        {
          "internalType": "uint256",
          "name": "price",
          "type": "uint256"
        },
        {
          "internalType": "uint256",
          "name": "royalty",
          "type": "uint256"
        }
      ],
      "name": "listNft",
      "outputs": [],
      "stateMutability": "nonpayable",
      "type": "function"
    },
    {
      "inputs": [
        {
          "internalType": "uint256",
          "name": "tokenId",
          "type": "uint256"
        }
      ],
      "name": "buyNft",
      "outputs": [],
      "stateMutability": "payable",
      "type": "function",
      "payable": true
    }
  ],
  "bytecode": "0x608060405260196003556103e860045534801561001b57600080fd5b50604051610dc3380380610dc3833981810160405281019061003d9190610128565b33600560006101000a81548173ffffffffffffffffffffffffffffffffffffffff021916908373ffffffffffffffffffffffffffffffffffffffff16021790555080600260006101000a81548173ffffffffffffffffffffffffffffffffffffffff021916908373ffffffffffffffffffffffffffffffffffffffff16021790555050610155565b600080fd5b600073ffffffffffffffffffffffffffffffffffffffff82169050919050565b60006100f5826100ca565b9050919050565b610105816100ea565b811461011057600080fd5b50565b600081519050610122816100fc565b92915050565b60006020828403121561013e5761013d6100c5565b5b600061014c84828501610113565b91505092915050565b610c5f806101646000396000f3fe60806040526004361061004a5760003560e01c806306e4641d1461004f578063243adbdd1461007857806326232a2e146100945780639d76ea58146100bf5780639fee5bc6146100ea575b600080fd5b34801561005b57600080fd5b506100766004803603810190610071919061084e565b610115565b005b610092600480360381019061008d91906108b5565b6103dd565b005b3480156100a057600080fd5b506100a961075f565b6040516100b691906108f1565b60405180910390f35b3480156100cb57600080fd5b506100d4610765565b6040516100e1919061096b565b60405180910390f35b3480156100f657600080fd5b506100ff61078b565b60405161010c91906108f1565b60405180910390f35b6000811015610159576040517f08c379a000000000000000000000000000000000000000000000000000000000815260040161015090610a09565b60405180910390fd5b601d811061019c576040517f08c379a000000000000000000000000000000000000000000000000000000000815260040161019390610a75565b60405180910390fd5b6101a66000610791565b60006101b260006107a7565b90506040518061010001604052808281526020018581526020018481526020018381526020013373ffffffffffffffffffffffffffffffffffffffff168152602001600073ffffffffffffffffffffffffffffffffffffffff1681526020018673ffffffffffffffffffffffffffffffffffffffff16815260200160001515815250600660008381526020019081526020016000206000820151816000015560208201518160010155604082015181600201556060820151816003015560808201518160040160006101000a81548173ffffffffffffffffffffffffffffffffffffffff021916908373ffffffffffffffffffffffffffffffffffffffff16021790555060a08201518160050160006101000a81548173ffffffffffffffffffffffffffffffffffffffff021916908373ffffffffffffffffffffffffffffffffffffffff16021790555060c08201518160060160006101000a81548173ffffffffffffffffffffffffffffffffffffffff021916908373ffffffffffffffffffffffffffffffffffffffff16021790555060e08201518160060160146101000a81548160ff0219169083151502179055509050508473ffffffffffffffffffffffffffffffffffffffff166323b872dd3330876040518463ffffffff1660e01b81526004016103a493929190610aa4565b600060405180830381600087803b1580156103be57600080fd5b505af11580156103d2573d6000803e3d6000fd5b505050505050505050565b600060066000838152602001908152602001600020600201549050600060045460066000858152602001908152602001600020600301548361041f9190610b0a565b6104299190610b93565b905060006004546003548461043e9190610b0a565b6104489190610b93565b9050600260009054906101000a900473ffffffffffffffffffffffffffffffffffffffff1673ffffffffffffffffffffffffffffffffffffffff166323b872dd3330866040518463ffffffff1660e01b81526004016104a993929190610aa4565b6020604051808303816000875af11580156104c8573d6000803e3d6000fd5b505050506040513d601f19601f820116820180604052508101906104ec9190610bfc565b50600260009054906101000a900473ffffffffffffffffffffffffffffffffffffffff1673ffffffffffffffffffffffffffffffffffffffff166323b872dd33600560009054906101000a900473ffffffffffffffffffffffffffffffffffffffff16856040518463ffffffff1660e01b815260040161056e93929190610aa4565b6020604051808303816000875af115801561058d573d6000803e3d6000fd5b505050506040513d601f19601f820116820180604052508101906105b19190610bfc565b50600260009054906101000a900473ffffffffffffffffffffffffffffffffffffffff1673ffffffffffffffffffffffffffffffffffffffff166323b872dd3330846040518463ffffffff1660e01b815260040161061193929190610aa4565b6020604051808303816000875af1158015610630573d6000803e3d6000fd5b505050506040513d601f19601f820116820180604052508101906106549190610bfc565b50336006600086815260200190815260200160002060050160006101000a81548173ffffffffffffffffffffffffffffffffffffffff021916908373ffffffffffffffffffffffffffffffffffffffff1602179055506106b46001610791565b6006600085815260200190815260200160002060060160009054906101000a900473ffffffffffffffffffffffffffffffffffffffff1673ffffffffffffffffffffffffffffffffffffffff166323b872dd3033876040518463ffffffff1660e01b815260040161072793929190610aa4565b600060405180830381600087803b15801561074157600080fd5b505af1158015610755573d6000803e3d6000fd5b5050505050505050565b60035481565b600260009054906101000a900473ffffffffffffffffffffffffffffffffffffffff1681565b60045481565b6001816000016000828254019250508190555050565b600081600001549050919050565b600080fd5b600073ffffffffffffffffffffffffffffffffffffffff82169050919050565b60006107e5826107ba565b9050919050565b6107f5816107da565b811461080057600080fd5b50565b600081359050610812816107ec565b92915050565b6000819050919050565b61082b81610818565b811461083657600080fd5b50565b60008135905061084881610822565b92915050565b60008060008060808587031215610868576108676107b5565b5b600061087687828801610803565b945050602061088787828801610839565b935050604061089887828801610839565b92505060606108a987828801610839565b91505092959194509250565b6000602082840312156108cb576108ca6107b5565b5b60006108d984828501610839565b91505092915050565b6108eb81610818565b82525050565b600060208201905061090660008301846108e2565b92915050565b6000819050919050565b600061093161092c610927846107ba565b61090c565b6107ba565b9050919050565b600061094382610916565b9050919050565b600061095582610938565b9050919050565b6109658161094a565b82525050565b6000602082019050610980600083018461095c565b92915050565b600082825260208201905092915050565b7f726f79616c74792073686f756c64206265206265747765656e203020746f203360008201527f3000000000000000000000000000000000000000000000000000000000000000602082015250565b60006109f3602183610986565b91506109fe82610997565b604082019050919050565b60006020820190508181036000830152610a22816109e6565b9050919050565b7f726f79616c74792073686f756c64206265206c657373207468616e2033300000600082015250565b6000610a5f601e83610986565b9150610a6a82610a29565b602082019050919050565b60006020820190508181036000830152610a8e81610a52565b9050919050565b610a9e816107da565b82525050565b6000606082019050610ab96000830186610a95565b610ac66020830185610a95565b610ad360408301846108e2565b949350505050565b7f4e487b7100000000000000000000000000000000000000000000000000000000600052601160045260246000fd5b6000610b1582610818565b9150610b2083610818565b9250817fffffffffffffffffffffffffffffffffffffffffffffffffffffffffffffffff0483118215151615610b5957610b58610adb565b5b828202905092915050565b7f4e487b7100000000000000000000000000000000000000000000000000000000600052601260045260246000fd5b6000610b9e82610818565b9150610ba983610818565b925082610bb957610bb8610b64565b5b828204905092915050565b60008115159050919050565b610bd981610bc4565b8114610be457600080fd5b50565b600081519050610bf681610bd0565b92915050565b600060208284031215610c1257610c116107b5565b5b6000610c2084828501610be7565b9150509291505056fea2646970667358221220b5df17a121c64109798ca189c184eb65bda66a7996c56491fffc89ade58d410364736f6c634300080d0033",
  "immutableReferences": {},
  "source": "// SPDX-License-Identifier: MIT\r\n\r\npragma solidity ^0.8.13;\r\n\r\nimport \"@openzeppelin/contracts/utils/Counters.sol\";\r\nimport \"@openzeppelin/contracts/token/ERC20/IERC20.sol\";\r\nimport \"@openzeppelin/contracts/token/ERC721/IERC721.sol\";\r\n\r\ncontract Marketplace {\r\n    using Counters for Counters.Counter;\r\n    Counters.Counter private _nftIds;\r\n    Counters.Counter private _nftSold;\r\n    IERC20 public tokenAddress;\r\n    uint256 public platformFee = 25;\r\n    uint256 public deno = 1000;\r\n\r\n    address payable owner;\r\n\r\n    constructor(address _tokenAddress) {\r\n        owner = payable(msg.sender);\r\n        tokenAddress = IERC20(_tokenAddress);\r\n    }\r\n\r\n    struct NFTMarketItem {\r\n        uint256 nftId;\r\n        uint256 tokenId;\r\n        uint256 price;\r\n        uint256 royalty;\r\n        address payable seller;\r\n        address payable owner;\r\n        address nftContract;\r\n        bool sold;\r\n    }\r\n\r\n    mapping(uint256 => NFTMarketItem) private marketItem;\r\n\r\n    function listNft(\r\n        address nftContract,\r\n        uint256 tokenId,\r\n        uint256 price,\r\n        uint256 royalty\r\n    ) public {\r\n        require(royalty >= 0, \"royalty should be between 0 to 30\");\r\n        require(royalty < 29, \"royalty should be less than 30\");\r\n\r\n        _nftIds.increment();\r\n        uint256 nftId = _nftIds.current();\r\n\r\n        marketItem[nftId] = NFTMarketItem(\r\n            nftId,\r\n            tokenId,\r\n            price,\r\n            royalty,\r\n            payable(msg.sender),\r\n            payable(address(0)),\r\n            nftContract,\r\n            false\r\n        );\r\n        IERC721(nftContract).transferFrom(msg.sender, address(this), tokenId);\r\n    }\r\n\r\n    function buyNft(uint256 tokenId) public payable {\r\n        uint256 price = marketItem[tokenId].price;\r\n        uint256 royaltyPer = (price * marketItem[tokenId].royalty) / deno;\r\n        uint256 marketFee = (price * platformFee) / deno;\r\n\r\n        tokenAddress.transferFrom(msg.sender, address(this), price);\r\n        tokenAddress.transferFrom(msg.sender, address(owner), royaltyPer);\r\n        tokenAddress.transferFrom(msg.sender, address(this), marketFee);\r\n\r\n        marketItem[tokenId].owner = payable(msg.sender);\r\n        _nftSold.increment();\r\n\r\n        IERC721(marketItem[tokenId].nftContract).transferFrom(\r\n            address(this),\r\n            msg.sender,\r\n            tokenId\r\n        );\r\n    }\r\n}\r\n",
  "sourcePath": "D:\\code\\TheDeadKingdom\\Contract\\contracts\\ethereum\\Marketplace.sol",
  "compiler": {
    "name": "solc",
    "version": "0.8.13+commit.abaa5c0e.Emscripten.clang"
  },
  "schemaVersion": "3.4.7",
  "updatedAt": "2022-07-04T17:05:12.425Z",
  "networkType": "ethereum",
  "devdoc": {
    "kind": "dev",
    "methods": {},
    "version": 1
  },
  "userdoc": {
    "kind": "user",
    "methods": {},
    "version": 1
  }
}