{
  "contractName": "Marketplace",
  "abi": [
    {
      "inputs": [
        {
          "internalType": "address",
          "name": "_tokenAddress",
          "type": "address"
        }
      ],
      "stateMutability": "nonpayable",
      "type": "constructor"
    },
    {
      "anonymous": false,
      "inputs": [
        {
          "indexed": false,
          "internalType": "address",
          "name": "nftContract",
          "type": "address"
        },
        {
          "indexed": false,
          "internalType": "uint256",
          "name": "tokenId",
          "type": "uint256"
        },
        {
          "indexed": false,
          "internalType": "address",
          "name": "seller",
          "type": "address"
        },
        {
          "indexed": false,
          "internalType": "address",
          "name": "buyer",
          "type": "address"
        },
        {
          "indexed": false,
          "internalType": "uint256",
          "name": "price",
          "type": "uint256"
        }
      ],
      "name": "NFTListed",
      "type": "event"
    },
    {
      "anonymous": false,
      "inputs": [
        {
          "indexed": false,
          "internalType": "address",
          "name": "nftContract",
          "type": "address"
        },
        {
          "indexed": false,
          "internalType": "uint256",
          "name": "tokenId",
          "type": "uint256"
        },
        {
          "indexed": false,
          "internalType": "address",
          "name": "seller",
          "type": "address"
        },
        {
          "indexed": false,
          "internalType": "address",
          "name": "buyer",
          "type": "address"
        },
        {
          "indexed": false,
          "internalType": "uint256",
          "name": "price",
          "type": "uint256"
        }
      ],
      "name": "NFTSaleCanceled",
      "type": "event"
    },
    {
      "anonymous": false,
      "inputs": [
        {
          "indexed": false,
          "internalType": "address",
          "name": "nftContract",
          "type": "address"
        },
        {
          "indexed": false,
          "internalType": "uint256",
          "name": "tokenId",
          "type": "uint256"
        },
        {
          "indexed": false,
          "internalType": "address",
          "name": "seller",
          "type": "address"
        },
        {
          "indexed": false,
          "internalType": "address",
          "name": "buyer",
          "type": "address"
        },
        {
          "indexed": false,
          "internalType": "uint256",
          "name": "price",
          "type": "uint256"
        }
      ],
      "name": "NFTSold",
      "type": "event"
    },
    {
      "inputs": [],
      "name": "deno",
      "outputs": [
        {
          "internalType": "uint256",
          "name": "",
          "type": "uint256"
        }
      ],
      "stateMutability": "view",
      "type": "function",
      "constant": true
    },
    {
      "inputs": [],
      "name": "platformFee",
      "outputs": [
        {
          "internalType": "uint256",
          "name": "",
          "type": "uint256"
        }
      ],
      "stateMutability": "view",
      "type": "function",
      "constant": true
    },
    {
      "inputs": [],
      "name": "tokenAddress",
      "outputs": [
        {
          "internalType": "contract IERC20",
          "name": "",
          "type": "address"
        }
      ],
      "stateMutability": "view",
      "type": "function",
      "constant": true
    },
    {
      "inputs": [
        {
          "internalType": "address",
          "name": "_nftContract",
          "type": "address"
        },
        {
          "internalType": "uint256",
          "name": "_tokenId",
          "type": "uint256"
        },
        {
          "internalType": "uint256",
          "name": "_price",
          "type": "uint256"
        }
      ],
      "name": "listNft",
      "outputs": [],
      "stateMutability": "nonpayable",
      "type": "function"
    },
    {
      "inputs": [
        {
          "internalType": "uint256",
          "name": "_marketItemId",
          "type": "uint256"
        }
      ],
      "name": "cancelSellNft",
      "outputs": [],
      "stateMutability": "nonpayable",
      "type": "function"
    },
    {
      "inputs": [
        {
          "internalType": "uint256",
          "name": "_marketItemId",
          "type": "uint256"
        }
      ],
      "name": "buyNft",
      "outputs": [],
      "stateMutability": "payable",
      "type": "function",
      "payable": true
    },
    {
      "inputs": [],
      "name": "getListingNfts",
      "outputs": [
        {
          "components": [
            {
              "internalType": "uint256",
              "name": "tokenId",
              "type": "uint256"
            },
            {
              "internalType": "uint256",
              "name": "price",
              "type": "uint256"
            },
            {
              "internalType": "address payable",
              "name": "seller",
              "type": "address"
            },
            {
              "internalType": "address payable",
              "name": "buyer",
              "type": "address"
            },
            {
              "internalType": "address",
              "name": "nftContract",
              "type": "address"
            },
            {
              "internalType": "bool",
              "name": "isSelling",
              "type": "bool"
            }
          ],
          "internalType": "struct Marketplace.NFTMarketItem[]",
          "name": "",
          "type": "tuple[]"
        }
      ],
      "stateMutability": "view",
      "type": "function",
      "constant": true
    },
    {
      "inputs": [],
      "name": "getMyListingNfts",
      "outputs": [
        {
          "components": [
            {
              "internalType": "uint256",
              "name": "tokenId",
              "type": "uint256"
            },
            {
              "internalType": "uint256",
              "name": "price",
              "type": "uint256"
            },
            {
              "internalType": "address payable",
              "name": "seller",
              "type": "address"
            },
            {
              "internalType": "address payable",
              "name": "buyer",
              "type": "address"
            },
            {
              "internalType": "address",
              "name": "nftContract",
              "type": "address"
            },
            {
              "internalType": "bool",
              "name": "isSelling",
              "type": "bool"
            }
          ],
          "internalType": "struct Marketplace.NFTMarketItem[]",
          "name": "",
          "type": "tuple[]"
        }
      ],
      "stateMutability": "view",
      "type": "function",
      "constant": true
    }
  ],
  "bytecode": "0x608060405260196004556103e86005553480156200001c57600080fd5b5060405162001a2738038062001a2783398181016040528101906200004291906200013d565b600160008190555033600660006101000a81548173ffffffffffffffffffffffffffffffffffffffff021916908373ffffffffffffffffffffffffffffffffffffffff16021790555080600360006101000a81548173ffffffffffffffffffffffffffffffffffffffff021916908373ffffffffffffffffffffffffffffffffffffffff160217905550506200016f565b600080fd5b600073ffffffffffffffffffffffffffffffffffffffff82169050919050565b60006200010582620000d8565b9050919050565b6200011781620000f8565b81146200012357600080fd5b50565b60008151905062000137816200010c565b92915050565b600060208284031215620001565762000155620000d3565b5b6000620001668482850162000126565b91505092915050565b6118a8806200017f6000396000f3fe60806040526004361061007b5760003560e01c806359f482711161004e57806359f482711461011d5780639d76ea58146101465780639fee5bc614610171578063c922b17c1461019c5761007b565b8063243adbdd1461008057806326232a2e1461009c578063443c2fd7146100c75780634cb55876146100f2575b600080fd5b61009a60048036038101906100959190611194565b6101c5565b005b3480156100a857600080fd5b506100b1610633565b6040516100be91906111d0565b60405180910390f35b3480156100d357600080fd5b506100dc610639565b6040516100e991906113a1565b60405180910390f35b3480156100fe57600080fd5b506101076108a1565b60405161011491906113a1565b60405180910390f35b34801561012957600080fd5b50610144600480360381019061013f9190611194565b610c46565b005b34801561015257600080fd5b5061015b610e24565b6040516101689190611422565b60405180910390f35b34801561017d57600080fd5b50610186610e4a565b60405161019391906111d0565b60405180910390f35b3480156101a857600080fd5b506101c360048036038101906101be9190611469565b610e50565b005b60006007600083815260200190815260200160002090506000816001015490506000600554600454836101f891906114eb565b6102029190611574565b9050600360009054906101000a900473ffffffffffffffffffffffffffffffffffffffff1673ffffffffffffffffffffffffffffffffffffffff166323b872dd3330856040518463ffffffff1660e01b8152600401610263939291906115b4565b6020604051808303816000875af1158015610282573d6000803e3d6000fd5b505050506040513d601f19601f820116820180604052508101906102a69190611617565b50600360009054906101000a900473ffffffffffffffffffffffffffffffffffffffff1673ffffffffffffffffffffffffffffffffffffffff166323b872dd33600660009054906101000a900473ffffffffffffffffffffffffffffffffffffffff16846040518463ffffffff1660e01b815260040161032893929190611665565b6020604051808303816000875af1158015610347573d6000803e3d6000fd5b505050506040513d601f19601f8201168201806040525081019061036b9190611617565b50600360009054906101000a900473ffffffffffffffffffffffffffffffffffffffff1673ffffffffffffffffffffffffffffffffffffffff166323b872dd308560020160009054906101000a900473ffffffffffffffffffffffffffffffffffffffff1684866103dc919061169c565b6040518463ffffffff1660e01b81526004016103fa93929190611665565b6020604051808303816000875af1158015610419573d6000803e3d6000fd5b505050506040513d601f19601f8201168201806040525081019061043d9190611617565b50338360030160006101000a81548173ffffffffffffffffffffffffffffffffffffffff021916908373ffffffffffffffffffffffffffffffffffffffff16021790555061048b60026110bb565b8260040160009054906101000a900473ffffffffffffffffffffffffffffffffffffffff1673ffffffffffffffffffffffffffffffffffffffff166323b872dd3033876040518463ffffffff1660e01b81526004016104ec939291906115b4565b600060405180830381600087803b15801561050657600080fd5b505af115801561051a573d6000803e3d6000fd5b5050505060008360040160146101000a81548160ff021916908315150217905550338360030160006101000a81548173ffffffffffffffffffffffffffffffffffffffff021916908373ffffffffffffffffffffffffffffffffffffffff1602179055507f16f1dbd97e6bf646d429ed186cce832f1f7fd9907814293b83181e9970ab7bd28360040160009054906101000a900473ffffffffffffffffffffffffffffffffffffffff1684600001548560020160009054906101000a900473ffffffffffffffffffffffffffffffffffffffff168660030160009054906101000a900473ffffffffffffffffffffffffffffffffffffffff16866040516106259594939291906116d0565b60405180910390a150505050565b60045481565b6060600061064760016110d1565b9050600061065560026110d1565b82610660919061169c565b905060008167ffffffffffffffff81111561067e5761067d611723565b5b6040519080825280602002602001820160405280156106b757816020015b6106a46110df565b81526020019060019003908161069c5790505b5090506000805b8481101561089657600760006001836106d79190611752565b815260200190815260200160002060040160149054906101000a900460ff1615610883576007600060018361070c9190611752565b81526020019081526020016000206040518060c001604052908160008201548152602001600182015481526020016002820160009054906101000a900473ffffffffffffffffffffffffffffffffffffffff1673ffffffffffffffffffffffffffffffffffffffff1673ffffffffffffffffffffffffffffffffffffffff1681526020016003820160009054906101000a900473ffffffffffffffffffffffffffffffffffffffff1673ffffffffffffffffffffffffffffffffffffffff1673ffffffffffffffffffffffffffffffffffffffff1681526020016004820160009054906101000a900473ffffffffffffffffffffffffffffffffffffffff1673ffffffffffffffffffffffffffffffffffffffff1673ffffffffffffffffffffffffffffffffffffffff1681526020016004820160149054906101000a900460ff161515151581525050838381518110610869576108686117a8565b5b6020026020010181905250818061087f906117d7565b9250505b808061088e906117d7565b9150506106be565b508194505050505090565b606060006108af60016110d1565b90506000805b8281101561098d573373ffffffffffffffffffffffffffffffffffffffff16600760006001846108e59190611752565b815260200190815260200160002060020160009054906101000a900473ffffffffffffffffffffffffffffffffffffffff1673ffffffffffffffffffffffffffffffffffffffff161480156109665750600760006001836109469190611752565b815260200190815260200160002060040160149054906101000a900460ff165b1561097a578180610976906117d7565b9250505b8080610985906117d7565b9150506108b5565b5060008167ffffffffffffffff8111156109aa576109a9611723565b5b6040519080825280602002602001820160405280156109e357816020015b6109d06110df565b8152602001906001900390816109c85790505b5090506000805b84811015610c3b573373ffffffffffffffffffffffffffffffffffffffff1660076000600184610a1a9190611752565b815260200190815260200160002060020160009054906101000a900473ffffffffffffffffffffffffffffffffffffffff1673ffffffffffffffffffffffffffffffffffffffff16148015610a9b575060076000600183610a7b9190611752565b815260200190815260200160002060040160149054906101000a900460ff165b15610c285760076000600183610ab19190611752565b81526020019081526020016000206040518060c001604052908160008201548152602001600182015481526020016002820160009054906101000a900473ffffffffffffffffffffffffffffffffffffffff1673ffffffffffffffffffffffffffffffffffffffff1673ffffffffffffffffffffffffffffffffffffffff1681526020016003820160009054906101000a900473ffffffffffffffffffffffffffffffffffffffff1673ffffffffffffffffffffffffffffffffffffffff1673ffffffffffffffffffffffffffffffffffffffff1681526020016004820160009054906101000a900473ffffffffffffffffffffffffffffffffffffffff1673ffffffffffffffffffffffffffffffffffffffff1673ffffffffffffffffffffffffffffffffffffffff1681526020016004820160149054906101000a900460ff161515151581525050838381518110610c0e57610c0d6117a8565b5b60200260200101819052508180610c24906117d7565b9250505b8080610c33906117d7565b9150506109ea565b508194505050505090565b60006007600083815260200190815260200160002090508060020160009054906101000a900473ffffffffffffffffffffffffffffffffffffffff1673ffffffffffffffffffffffffffffffffffffffff163373ffffffffffffffffffffffffffffffffffffffff1614610cb957600080fd5b60008160040160146101000a81548160ff0219169083151502179055508060040160009054906101000a900473ffffffffffffffffffffffffffffffffffffffff1673ffffffffffffffffffffffffffffffffffffffff166323b872dd303384600001546040518463ffffffff1660e01b8152600401610d3b939291906115b4565b600060405180830381600087803b158015610d5557600080fd5b505af1158015610d69573d6000803e3d6000fd5b505050507f24153efffdf8d516f7731d201e1ec36173da79f01b0d04da002b8936af7755c48160040160009054906101000a900473ffffffffffffffffffffffffffffffffffffffff1682600001548360020160009054906101000a900473ffffffffffffffffffffffffffffffffffffffff168460030160009054906101000a900473ffffffffffffffffffffffffffffffffffffffff168560010154604051610e189594939291906116d0565b60405180910390a15050565b600360009054906101000a900473ffffffffffffffffffffffffffffffffffffffff1681565b60055481565b60008111610e5d57600080fd5b610e6760016110bb565b6000610e7360016110d1565b90506040518060c001604052808481526020018381526020013373ffffffffffffffffffffffffffffffffffffffff168152602001600073ffffffffffffffffffffffffffffffffffffffff1681526020018573ffffffffffffffffffffffffffffffffffffffff1681526020016001151581525060076000838152602001908152602001600020600082015181600001556020820151816001015560408201518160020160006101000a81548173ffffffffffffffffffffffffffffffffffffffff021916908373ffffffffffffffffffffffffffffffffffffffff16021790555060608201518160030160006101000a81548173ffffffffffffffffffffffffffffffffffffffff021916908373ffffffffffffffffffffffffffffffffffffffff16021790555060808201518160040160006101000a81548173ffffffffffffffffffffffffffffffffffffffff021916908373ffffffffffffffffffffffffffffffffffffffff16021790555060a08201518160040160146101000a81548160ff0219169083151502179055509050508373ffffffffffffffffffffffffffffffffffffffff166323b872dd3330866040518463ffffffff1660e01b8152600401611044939291906115b4565b600060405180830381600087803b15801561105e57600080fd5b505af1158015611072573d6000803e3d6000fd5b505050507fa0c6c0d02d86fdacecbaa5fdf5894bab204e31a778250474108540733a9b8d1984843330866040516110ad95949392919061181f565b60405180910390a150505050565b6001816000016000828254019250508190555050565b600081600001549050919050565b6040518060c001604052806000815260200160008152602001600073ffffffffffffffffffffffffffffffffffffffff168152602001600073ffffffffffffffffffffffffffffffffffffffff168152602001600073ffffffffffffffffffffffffffffffffffffffff1681526020016000151581525090565b600080fd5b6000819050919050565b6111718161115e565b811461117c57600080fd5b50565b60008135905061118e81611168565b92915050565b6000602082840312156111aa576111a9611159565b5b60006111b88482850161117f565b91505092915050565b6111ca8161115e565b82525050565b60006020820190506111e560008301846111c1565b92915050565b600081519050919050565b600082825260208201905092915050565b6000819050602082019050919050565b6112208161115e565b82525050565b600073ffffffffffffffffffffffffffffffffffffffff82169050919050565b600061125182611226565b9050919050565b61126181611246565b82525050565b600061127282611226565b9050919050565b61128281611267565b82525050565b60008115159050919050565b61129d81611288565b82525050565b60c0820160008201516112b96000850182611217565b5060208201516112cc6020850182611217565b5060408201516112df6040850182611258565b5060608201516112f26060850182611258565b5060808201516113056080850182611279565b5060a082015161131860a0850182611294565b50505050565b600061132a83836112a3565b60c08301905092915050565b6000602082019050919050565b600061134e826111eb565b61135881856111f6565b935061136383611207565b8060005b8381101561139457815161137b888261131e565b975061138683611336565b925050600181019050611367565b5085935050505092915050565b600060208201905081810360008301526113bb8184611343565b905092915050565b6000819050919050565b60006113e86113e36113de84611226565b6113c3565b611226565b9050919050565b60006113fa826113cd565b9050919050565b600061140c826113ef565b9050919050565b61141c81611401565b82525050565b60006020820190506114376000830184611413565b92915050565b61144681611267565b811461145157600080fd5b50565b6000813590506114638161143d565b92915050565b60008060006060848603121561148257611481611159565b5b600061149086828701611454565b93505060206114a18682870161117f565b92505060406114b28682870161117f565b9150509250925092565b7f4e487b7100000000000000000000000000000000000000000000000000000000600052601160045260246000fd5b60006114f68261115e565b91506115018361115e565b9250817fffffffffffffffffffffffffffffffffffffffffffffffffffffffffffffffff048311821515161561153a576115396114bc565b5b828202905092915050565b7f4e487b7100000000000000000000000000000000000000000000000000000000600052601260045260246000fd5b600061157f8261115e565b915061158a8361115e565b92508261159a57611599611545565b5b828204905092915050565b6115ae81611267565b82525050565b60006060820190506115c960008301866115a5565b6115d660208301856115a5565b6115e360408301846111c1565b949350505050565b6115f481611288565b81146115ff57600080fd5b50565b600081519050611611816115eb565b92915050565b60006020828403121561162d5761162c611159565b5b600061163b84828501611602565b91505092915050565b600061164f826113ef565b9050919050565b61165f81611644565b82525050565b600060608201905061167a60008301866115a5565b6116876020830185611656565b61169460408301846111c1565b949350505050565b60006116a78261115e565b91506116b28361115e565b9250828210156116c5576116c46114bc565b5b828203905092915050565b600060a0820190506116e560008301886115a5565b6116f260208301876111c1565b6116ff6040830186611656565b61170c6060830185611656565b61171960808301846111c1565b9695505050505050565b7f4e487b7100000000000000000000000000000000000000000000000000000000600052604160045260246000fd5b600061175d8261115e565b91506117688361115e565b9250827fffffffffffffffffffffffffffffffffffffffffffffffffffffffffffffffff0382111561179d5761179c6114bc565b5b828201905092915050565b7f4e487b7100000000000000000000000000000000000000000000000000000000600052603260045260246000fd5b60006117e28261115e565b91507fffffffffffffffffffffffffffffffffffffffffffffffffffffffffffffffff8203611814576118136114bc565b5b600182019050919050565b600060a08201905061183460008301886115a5565b61184160208301876111c1565b61184e60408301866115a5565b61185b60608301856115a5565b61186860808301846111c1565b969550505050505056fea2646970667358221220ef91a7e86fa47a6a7ec2de4f342b574568bc43b3d2701fed185360d8e333009f64736f6c634300080d0033",
  "immutableReferences": {},
  "source": "// SPDX-License-Identifier: MIT\r\n\r\npragma solidity ^0.8.13;\r\n\r\nimport \"@openzeppelin/contracts/utils/Counters.sol\";\r\nimport \"@openzeppelin/contracts/token/ERC20/IERC20.sol\";\r\nimport \"@openzeppelin/contracts/token/ERC721/IERC721.sol\";\r\nimport \"@openzeppelin/contracts/security/ReentrancyGuard.sol\";\r\n\r\ncontract Marketplace is ReentrancyGuard {\r\n    using Counters for Counters.Counter;\r\n    Counters.Counter private _marketItemIds;\r\n    Counters.Counter private _nftSold;\r\n    IERC20 public tokenAddress;\r\n    uint256 public platformFee = 25;\r\n    uint256 public deno = 1000;\r\n\r\n    address payable marketOwner;\r\n\r\n    mapping(uint256 => NFTMarketItem) private marketItems;\r\n\r\n    constructor(address _tokenAddress) {\r\n        marketOwner = payable(msg.sender);\r\n        tokenAddress = IERC20(_tokenAddress);\r\n    }\r\n\r\n    struct NFTMarketItem {\r\n        uint256 tokenId;\r\n        uint256 price;\r\n        address payable seller;\r\n        address payable buyer;\r\n        address nftContract;\r\n        bool isSelling;\r\n    }\r\n\r\n    event NFTListed(\r\n        address nftContract,\r\n        uint256 tokenId,\r\n        address seller,\r\n        address buyer,\r\n        uint256 price\r\n    );\r\n\r\n    event NFTSaleCanceled(\r\n        address nftContract,\r\n        uint256 tokenId,\r\n        address seller,\r\n        address buyer,\r\n        uint256 price\r\n    );\r\n\r\n    event NFTSold(\r\n        address nftContract,\r\n        uint256 tokenId,\r\n        address seller,\r\n        address buyer,\r\n        uint256 price\r\n    );\r\n\r\n    function listNft(\r\n        address _nftContract,\r\n        uint256 _tokenId,\r\n        uint256 _price\r\n    ) public {\r\n        require(_price > 0);\r\n        _marketItemIds.increment();\r\n        uint256 marketItemId = _marketItemIds.current();\r\n\r\n        marketItems[marketItemId] = NFTMarketItem(\r\n            _tokenId,\r\n            _price,\r\n            payable(msg.sender),\r\n            payable(address(0)),\r\n            _nftContract,\r\n            true\r\n        );\r\n        IERC721(_nftContract).transferFrom(msg.sender, address(this), _tokenId);\r\n        emit NFTListed(\r\n            _nftContract,\r\n            _tokenId,\r\n            msg.sender,\r\n            address(this),\r\n            _price\r\n        );\r\n    }\r\n\r\n    function cancelSellNft(uint256 _marketItemId) public {\r\n        NFTMarketItem storage nftMarketItem = marketItems[_marketItemId];\r\n        require(msg.sender == nftMarketItem.seller);\r\n        nftMarketItem.isSelling = false;\r\n        IERC721(nftMarketItem.nftContract).transferFrom(\r\n            address(this),\r\n            msg.sender,\r\n            nftMarketItem.tokenId\r\n        );\r\n        emit NFTSaleCanceled(\r\n            nftMarketItem.nftContract,\r\n            nftMarketItem.tokenId,\r\n            nftMarketItem.seller,\r\n            nftMarketItem.buyer,\r\n            nftMarketItem.price\r\n        );\r\n    }\r\n\r\n    function buyNft(uint256 _marketItemId) public payable {\r\n        NFTMarketItem storage nftMarketItem = marketItems[_marketItemId];\r\n        uint256 price = nftMarketItem.price;\r\n        uint256 marketFee = (price * platformFee) / deno;\r\n\r\n        tokenAddress.transferFrom(msg.sender, address(this), price);\r\n        // tokenAddress.transferFrom(msg.sender, address(this), marketFee);\r\n        tokenAddress.transferFrom(msg.sender, marketOwner, marketFee);\r\n        tokenAddress.transferFrom(\r\n            address(this),\r\n            nftMarketItem.seller,\r\n            price - marketFee\r\n        );\r\n\r\n        nftMarketItem.buyer = payable(msg.sender);\r\n        _nftSold.increment();\r\n\r\n        IERC721(nftMarketItem.nftContract).transferFrom(\r\n            address(this),\r\n            msg.sender,\r\n            _marketItemId\r\n        );\r\n\r\n        nftMarketItem.isSelling = false;\r\n        nftMarketItem.buyer = payable(msg.sender);\r\n\r\n        emit NFTSold(\r\n            nftMarketItem.nftContract,\r\n            nftMarketItem.tokenId,\r\n            nftMarketItem.seller,\r\n            nftMarketItem.buyer,\r\n            price\r\n        );\r\n    }\r\n\r\n    function getListingNfts() public view returns (NFTMarketItem[] memory) {\r\n        uint256 nftCount = _marketItemIds.current();\r\n        uint256 unsoldNftsCount = nftCount - _nftSold.current();\r\n\r\n        NFTMarketItem[] memory nfts = new NFTMarketItem[](unsoldNftsCount);\r\n        uint256 nftsIndex = 0;\r\n        for (uint256 i = 0; i < nftCount; i++) {\r\n            if (marketItems[i + 1].isSelling) {\r\n                nfts[nftsIndex] = marketItems[i + 1];\r\n                nftsIndex++;\r\n            }\r\n        }\r\n        return nfts;\r\n    }\r\n\r\n    function getMyListingNfts() public view returns (NFTMarketItem[] memory) {\r\n        uint256 nftCount = _marketItemIds.current();\r\n        uint256 myListingNftCount = 0;\r\n        for (uint256 i = 0; i < nftCount; i++) {\r\n            if (\r\n                marketItems[i + 1].seller == msg.sender &&\r\n                marketItems[i + 1].isSelling\r\n            ) {\r\n                myListingNftCount++;\r\n            }\r\n        }\r\n\r\n        NFTMarketItem[] memory nfts = new NFTMarketItem[](myListingNftCount);\r\n        uint256 nftsIndex = 0;\r\n        for (uint256 i = 0; i < nftCount; i++) {\r\n            if (\r\n                marketItems[i + 1].seller == msg.sender &&\r\n                marketItems[i + 1].isSelling\r\n            ) {\r\n                nfts[nftsIndex] = marketItems[i + 1];\r\n                nftsIndex++;\r\n            }\r\n        }\r\n        return nfts;\r\n    }\r\n}\r\n",
  "sourcePath": "D:\\code\\TheDeadKingdom\\Contract\\contracts\\ethereum\\Marketplace.sol",
  "compiler": {
    "name": "solc",
    "version": "0.8.13+commit.abaa5c0e.Emscripten.clang"
  },
  "schemaVersion": "3.4.7",
  "updatedAt": "2022-07-08T18:51:23.614Z",
  "networkType": "ethereum",
  "devdoc": {
    "kind": "dev",
    "methods": {},
    "version": 1
  },
  "userdoc": {
    "kind": "user",
    "methods": {},
    "version": 1
  }
}