{
  "contractName": "TankNFT",
  "abi": [
    {
      "inputs": [
        {
          "internalType": "address",
          "name": "NFTMarket",
          "type": "address"
        }
      ],
      "stateMutability": "nonpayable",
      "type": "constructor"
    },
    {
      "anonymous": false,
      "inputs": [
        {
          "indexed": true,
          "internalType": "address",
          "name": "owner",
          "type": "address"
        },
        {
          "indexed": true,
          "internalType": "address",
          "name": "approved",
          "type": "address"
        },
        {
          "indexed": true,
          "internalType": "uint256",
          "name": "tokenId",
          "type": "uint256"
        }
      ],
      "name": "Approval",
      "type": "event"
    },
    {
      "anonymous": false,
      "inputs": [
        {
          "indexed": true,
          "internalType": "address",
          "name": "owner",
          "type": "address"
        },
        {
          "indexed": true,
          "internalType": "address",
          "name": "operator",
          "type": "address"
        },
        {
          "indexed": false,
          "internalType": "bool",
          "name": "approved",
          "type": "bool"
        }
      ],
      "name": "ApprovalForAll",
      "type": "event"
    },
    {
      "anonymous": false,
      "inputs": [
        {
          "indexed": false,
          "internalType": "uint256",
          "name": "tokenId",
          "type": "uint256"
        }
      ],
      "name": "NFTMinted",
      "type": "event"
    },
    {
      "anonymous": false,
      "inputs": [
        {
          "indexed": true,
          "internalType": "address",
          "name": "from",
          "type": "address"
        },
        {
          "indexed": true,
          "internalType": "address",
          "name": "to",
          "type": "address"
        },
        {
          "indexed": true,
          "internalType": "uint256",
          "name": "tokenId",
          "type": "uint256"
        }
      ],
      "name": "Transfer",
      "type": "event"
    },
    {
      "inputs": [
        {
          "internalType": "address",
          "name": "to",
          "type": "address"
        },
        {
          "internalType": "uint256",
          "name": "tokenId",
          "type": "uint256"
        }
      ],
      "name": "approve",
      "outputs": [],
      "stateMutability": "nonpayable",
      "type": "function"
    },
    {
      "inputs": [
        {
          "internalType": "address",
          "name": "owner",
          "type": "address"
        }
      ],
      "name": "balanceOf",
      "outputs": [
        {
          "internalType": "uint256",
          "name": "",
          "type": "uint256"
        }
      ],
      "stateMutability": "view",
      "type": "function",
      "constant": true
    },
    {
      "inputs": [
        {
          "internalType": "uint256",
          "name": "tokenId",
          "type": "uint256"
        }
      ],
      "name": "getApproved",
      "outputs": [
        {
          "internalType": "address",
          "name": "",
          "type": "address"
        }
      ],
      "stateMutability": "view",
      "type": "function",
      "constant": true
    },
    {
      "inputs": [
        {
          "internalType": "address",
          "name": "owner",
          "type": "address"
        },
        {
          "internalType": "address",
          "name": "operator",
          "type": "address"
        }
      ],
      "name": "isApprovedForAll",
      "outputs": [
        {
          "internalType": "bool",
          "name": "",
          "type": "bool"
        }
      ],
      "stateMutability": "view",
      "type": "function",
      "constant": true
    },
    {
      "inputs": [],
      "name": "name",
      "outputs": [
        {
          "internalType": "string",
          "name": "",
          "type": "string"
        }
      ],
      "stateMutability": "view",
      "type": "function",
      "constant": true
    },
    {
      "inputs": [
        {
          "internalType": "uint256",
          "name": "tokenId",
          "type": "uint256"
        }
      ],
      "name": "ownerOf",
      "outputs": [
        {
          "internalType": "address",
          "name": "",
          "type": "address"
        }
      ],
      "stateMutability": "view",
      "type": "function",
      "constant": true
    },
    {
      "inputs": [
        {
          "internalType": "address",
          "name": "from",
          "type": "address"
        },
        {
          "internalType": "address",
          "name": "to",
          "type": "address"
        },
        {
          "internalType": "uint256",
          "name": "tokenId",
          "type": "uint256"
        }
      ],
      "name": "safeTransferFrom",
      "outputs": [],
      "stateMutability": "nonpayable",
      "type": "function"
    },
    {
      "inputs": [
        {
          "internalType": "address",
          "name": "from",
          "type": "address"
        },
        {
          "internalType": "address",
          "name": "to",
          "type": "address"
        },
        {
          "internalType": "uint256",
          "name": "tokenId",
          "type": "uint256"
        },
        {
          "internalType": "bytes",
          "name": "_data",
          "type": "bytes"
        }
      ],
      "name": "safeTransferFrom",
      "outputs": [],
      "stateMutability": "nonpayable",
      "type": "function"
    },
    {
      "inputs": [
        {
          "internalType": "address",
          "name": "operator",
          "type": "address"
        },
        {
          "internalType": "bool",
          "name": "approved",
          "type": "bool"
        }
      ],
      "name": "setApprovalForAll",
      "outputs": [],
      "stateMutability": "nonpayable",
      "type": "function"
    },
    {
      "inputs": [
        {
          "internalType": "bytes4",
          "name": "interfaceId",
          "type": "bytes4"
        }
      ],
      "name": "supportsInterface",
      "outputs": [
        {
          "internalType": "bool",
          "name": "",
          "type": "bool"
        }
      ],
      "stateMutability": "view",
      "type": "function",
      "constant": true
    },
    {
      "inputs": [],
      "name": "symbol",
      "outputs": [
        {
          "internalType": "string",
          "name": "",
          "type": "string"
        }
      ],
      "stateMutability": "view",
      "type": "function",
      "constant": true
    },
    {
      "inputs": [
        {
          "internalType": "uint256",
          "name": "tokenId",
          "type": "uint256"
        }
      ],
      "name": "tokenURI",
      "outputs": [
        {
          "internalType": "string",
          "name": "",
          "type": "string"
        }
      ],
      "stateMutability": "view",
      "type": "function",
      "constant": true
    },
    {
      "inputs": [
        {
          "internalType": "address",
          "name": "from",
          "type": "address"
        },
        {
          "internalType": "address",
          "name": "to",
          "type": "address"
        },
        {
          "internalType": "uint256",
          "name": "tokenId",
          "type": "uint256"
        }
      ],
      "name": "transferFrom",
      "outputs": [],
      "stateMutability": "nonpayable",
      "type": "function"
    },
    {
      "inputs": [
        {
          "internalType": "string",
          "name": "tokenURI",
          "type": "string"
        }
      ],
      "name": "createToken",
      "outputs": [
        {
          "internalType": "uint256",
          "name": "",
          "type": "uint256"
        }
      ],
      "stateMutability": "nonpayable",
      "type": "function"
    },
    {
      "inputs": [
        {
          "internalType": "address",
          "name": "_ownerAddress",
          "type": "address"
        }
      ],
      "name": "getMyNfts",
      "outputs": [
        {
          "internalType": "uint256[]",
          "name": "",
          "type": "uint256[]"
        }
      ],
      "stateMutability": "view",
      "type": "function",
      "constant": true
    }
  ],
  "bytecode": "0x60806040523480156200001157600080fd5b506040516200311b3803806200311b833981810160405281019062000037919062000239565b6040518060400160405280600c81526020017f54616e6b4e4654546f6b656e00000000000000000000000000000000000000008152506040518060400160405280600381526020017f444b5400000000000000000000000000000000000000000000000000000000008152508160009080519060200190620000bb9291906200011f565b508060019080519060200190620000d49291906200011f565b50505080600860006101000a81548173ffffffffffffffffffffffffffffffffffffffff021916908373ffffffffffffffffffffffffffffffffffffffff16021790555050620002cf565b8280546200012d906200029a565b90600052602060002090601f0160209004810192826200015157600085556200019d565b82601f106200016c57805160ff19168380011785556200019d565b828001600101855582156200019d579182015b828111156200019c5782518255916020019190600101906200017f565b5b509050620001ac9190620001b0565b5090565b5b80821115620001cb576000816000905550600101620001b1565b5090565b600080fd5b600073ffffffffffffffffffffffffffffffffffffffff82169050919050565b60006200020182620001d4565b9050919050565b6200021381620001f4565b81146200021f57600080fd5b50565b600081519050620002338162000208565b92915050565b600060208284031215620002525762000251620001cf565b5b6000620002628482850162000222565b91505092915050565b7f4e487b7100000000000000000000000000000000000000000000000000000000600052602260045260246000fd5b60006002820490506001821680620002b357607f821691505b602082108103620002c957620002c86200026b565b5b50919050565b612e3c80620002df6000396000f3fe608060405234801561001057600080fd5b50600436106100f55760003560e01c80636352211e11610097578063b88d4fde11610066578063b88d4fde14610296578063c87b56dd146102b2578063e985e9c5146102e2578063f6c1b77a14610312576100f5565b80636352211e146101fc57806370a082311461022c57806395d89b411461025c578063a22cb4651461027a576100f5565b8063095ea7b3116100d3578063095ea7b31461017857806323b872dd1461019457806342842e0e146101b057806345576f94146101cc576100f5565b806301ffc9a7146100fa57806306fdde031461012a578063081812fc14610148575b600080fd5b610114600480360381019061010f9190611ad3565b610342565b6040516101219190611b1b565b60405180910390f35b610132610424565b60405161013f9190611bcf565b60405180910390f35b610162600480360381019061015d9190611c27565b6104b6565b60405161016f9190611c95565b60405180910390f35b610192600480360381019061018d9190611cdc565b61053b565b005b6101ae60048036038101906101a99190611d1c565b610652565b005b6101ca60048036038101906101c59190611d1c565b6106b2565b005b6101e660048036038101906101e19190611ea4565b6106d2565b6040516101f39190611efc565b60405180910390f35b61021660048036038101906102119190611c27565b610775565b6040516102239190611c95565b60405180910390f35b61024660048036038101906102419190611f17565b610826565b6040516102539190611efc565b60405180910390f35b6102646108dd565b6040516102719190611bcf565b60405180910390f35b610294600480360381019061028f9190611f70565b61096f565b005b6102b060048036038101906102ab9190612051565b610985565b005b6102cc60048036038101906102c79190611c27565b6109e7565b6040516102d99190611bcf565b60405180910390f35b6102fc60048036038101906102f791906120d4565b610b38565b6040516103099190611b1b565b60405180910390f35b61032c60048036038101906103279190611f17565b610bcc565b60405161033991906121d2565b60405180910390f35b60007f80ac58cd000000000000000000000000000000000000000000000000000000007bffffffffffffffffffffffffffffffffffffffffffffffffffffffff1916827bffffffffffffffffffffffffffffffffffffffffffffffffffffffff1916148061040d57507f5b5e139f000000000000000000000000000000000000000000000000000000007bffffffffffffffffffffffffffffffffffffffffffffffffffffffff1916827bffffffffffffffffffffffffffffffffffffffffffffffffffffffff1916145b8061041d575061041c82610cde565b5b9050919050565b60606000805461043390612223565b80601f016020809104026020016040519081016040528092919081815260200182805461045f90612223565b80156104ac5780601f10610481576101008083540402835291602001916104ac565b820191906000526020600020905b81548152906001019060200180831161048f57829003601f168201915b5050505050905090565b60006104c182610d48565b610500576040517f08c379a00000000000000000000000000000000000000000000000000000000081526004016104f7906122c6565b60405180910390fd5b6004600083815260200190815260200160002060009054906101000a900473ffffffffffffffffffffffffffffffffffffffff169050919050565b600061054682610775565b90508073ffffffffffffffffffffffffffffffffffffffff168373ffffffffffffffffffffffffffffffffffffffff16036105b6576040517f08c379a00000000000000000000000000000000000000000000000000000000081526004016105ad90612358565b60405180910390fd5b8073ffffffffffffffffffffffffffffffffffffffff166105d5610db4565b73ffffffffffffffffffffffffffffffffffffffff1614806106045750610603816105fe610db4565b610b38565b5b610643576040517f08c379a000000000000000000000000000000000000000000000000000000000815260040161063a906123ea565b60405180910390fd5b61064d8383610dbc565b505050565b61066361065d610db4565b82610e75565b6106a2576040517f08c379a00000000000000000000000000000000000000000000000000000000081526004016106999061247c565b60405180910390fd5b6106ad838383610f53565b505050565b6106cd83838360405180602001604052806000815250610985565b505050565b60006106de60076111b9565b60006106ea60076111cf565b90506106f633826111dd565b61070081846113b6565b61073561070b610db4565b600860009054906101000a900473ffffffffffffffffffffffffffffffffffffffff16600161142a565b7fd9dc24857f317ed9abbbb42e920ede0104231eb1d3d70236a74887ffaf159868816040516107649190611efc565b60405180910390a180915050919050565b6000806002600084815260200190815260200160002060009054906101000a900473ffffffffffffffffffffffffffffffffffffffff169050600073ffffffffffffffffffffffffffffffffffffffff168173ffffffffffffffffffffffffffffffffffffffff160361081d576040517f08c379a00000000000000000000000000000000000000000000000000000000081526004016108149061250e565b60405180910390fd5b80915050919050565b60008073ffffffffffffffffffffffffffffffffffffffff168273ffffffffffffffffffffffffffffffffffffffff1603610896576040517f08c379a000000000000000000000000000000000000000000000000000000000815260040161088d906125a0565b60405180910390fd5b600360008373ffffffffffffffffffffffffffffffffffffffff1673ffffffffffffffffffffffffffffffffffffffff168152602001908152602001600020549050919050565b6060600180546108ec90612223565b80601f016020809104026020016040519081016040528092919081815260200182805461091890612223565b80156109655780601f1061093a57610100808354040283529160200191610965565b820191906000526020600020905b81548152906001019060200180831161094857829003601f168201915b5050505050905090565b61098161097a610db4565b838361142a565b5050565b610996610990610db4565b83610e75565b6109d5576040517f08c379a00000000000000000000000000000000000000000000000000000000081526004016109cc9061247c565b60405180910390fd5b6109e184848484611596565b50505050565b60606109f282610d48565b610a31576040517f08c379a0000000000000000000000000000000000000000000000000000000008152600401610a2890612632565b60405180910390fd5b6000600660008481526020019081526020016000208054610a5190612223565b80601f0160208091040260200160405190810160405280929190818152602001828054610a7d90612223565b8015610aca5780601f10610a9f57610100808354040283529160200191610aca565b820191906000526020600020905b815481529060010190602001808311610aad57829003601f168201915b505050505090506000610adb6115f2565b90506000815103610af0578192505050610b33565b600082511115610b25578082604051602001610b0d92919061268e565b60405160208183030381529060405292505050610b33565b610b2e84611609565b925050505b919050565b6000600560008473ffffffffffffffffffffffffffffffffffffffff1673ffffffffffffffffffffffffffffffffffffffff16815260200190815260200160002060008373ffffffffffffffffffffffffffffffffffffffff1673ffffffffffffffffffffffffffffffffffffffff16815260200190815260200160002060009054906101000a900460ff16905092915050565b60606000610bda60076111cf565b90506000610be784610826565b67ffffffffffffffff811115610c0057610bff611d79565b5b604051908082528060200260200182016040528015610c2e5781602001602082028036833780820191505090505b5090506000805b83811015610cd2578573ffffffffffffffffffffffffffffffffffffffff16610c69600183610c6491906126e1565b610775565b73ffffffffffffffffffffffffffffffffffffffff1603610cbf57600181610c9191906126e1565b838381518110610ca457610ca3612737565b5b6020026020010181815250508180610cbb90612766565b9250505b8080610cca90612766565b915050610c35565b50819350505050919050565b60007f01ffc9a7000000000000000000000000000000000000000000000000000000007bffffffffffffffffffffffffffffffffffffffffffffffffffffffff1916827bffffffffffffffffffffffffffffffffffffffffffffffffffffffff1916149050919050565b60008073ffffffffffffffffffffffffffffffffffffffff166002600084815260200190815260200160002060009054906101000a900473ffffffffffffffffffffffffffffffffffffffff1673ffffffffffffffffffffffffffffffffffffffff1614159050919050565b600033905090565b816004600083815260200190815260200160002060006101000a81548173ffffffffffffffffffffffffffffffffffffffff021916908373ffffffffffffffffffffffffffffffffffffffff160217905550808273ffffffffffffffffffffffffffffffffffffffff16610e2f83610775565b73ffffffffffffffffffffffffffffffffffffffff167f8c5be1e5ebec7d5bd14f71427d1e84f3dd0314c0f7b2291e5b200ac8c7c3b92560405160405180910390a45050565b6000610e8082610d48565b610ebf576040517f08c379a0000000000000000000000000000000000000000000000000000000008152600401610eb690612820565b60405180910390fd5b6000610eca83610775565b90508073ffffffffffffffffffffffffffffffffffffffff168473ffffffffffffffffffffffffffffffffffffffff161480610f0c5750610f0b8185610b38565b5b80610f4a57508373ffffffffffffffffffffffffffffffffffffffff16610f32846104b6565b73ffffffffffffffffffffffffffffffffffffffff16145b91505092915050565b8273ffffffffffffffffffffffffffffffffffffffff16610f7382610775565b73ffffffffffffffffffffffffffffffffffffffff1614610fc9576040517f08c379a0000000000000000000000000000000000000000000000000000000008152600401610fc0906128b2565b60405180910390fd5b600073ffffffffffffffffffffffffffffffffffffffff168273ffffffffffffffffffffffffffffffffffffffff1603611038576040517f08c379a000000000000000000000000000000000000000000000000000000000815260040161102f90612944565b60405180910390fd5b6110438383836116b0565b61104e600082610dbc565b6001600360008573ffffffffffffffffffffffffffffffffffffffff1673ffffffffffffffffffffffffffffffffffffffff168152602001908152602001600020600082825461109e9190612964565b925050819055506001600360008473ffffffffffffffffffffffffffffffffffffffff1673ffffffffffffffffffffffffffffffffffffffff16815260200190815260200160002060008282546110f591906126e1565b92505081905550816002600083815260200190815260200160002060006101000a81548173ffffffffffffffffffffffffffffffffffffffff021916908373ffffffffffffffffffffffffffffffffffffffff160217905550808273ffffffffffffffffffffffffffffffffffffffff168473ffffffffffffffffffffffffffffffffffffffff167fddf252ad1be2c89b69c2b068fc378daa952ba7f163c4a11628f55a4df523b3ef60405160405180910390a46111b48383836116b5565b505050565b6001816000016000828254019250508190555050565b600081600001549050919050565b600073ffffffffffffffffffffffffffffffffffffffff168273ffffffffffffffffffffffffffffffffffffffff160361124c576040517f08c379a0000000000000000000000000000000000000000000000000000000008152600401611243906129e4565b60405180910390fd5b61125581610d48565b15611295576040517f08c379a000000000000000000000000000000000000000000000000000000000815260040161128c90612a50565b60405180910390fd5b6112a1600083836116b0565b6001600360008473ffffffffffffffffffffffffffffffffffffffff1673ffffffffffffffffffffffffffffffffffffffff16815260200190815260200160002060008282546112f191906126e1565b92505081905550816002600083815260200190815260200160002060006101000a81548173ffffffffffffffffffffffffffffffffffffffff021916908373ffffffffffffffffffffffffffffffffffffffff160217905550808273ffffffffffffffffffffffffffffffffffffffff16600073ffffffffffffffffffffffffffffffffffffffff167fddf252ad1be2c89b69c2b068fc378daa952ba7f163c4a11628f55a4df523b3ef60405160405180910390a46113b2600083836116b5565b5050565b6113bf82610d48565b6113fe576040517f08c379a00000000000000000000000000000000000000000000000000000000081526004016113f590612ae2565b60405180910390fd5b806006600084815260200190815260200160002090805190602001906114259291906119c4565b505050565b8173ffffffffffffffffffffffffffffffffffffffff168373ffffffffffffffffffffffffffffffffffffffff1603611498576040517f08c379a000000000000000000000000000000000000000000000000000000000815260040161148f90612b4e565b60405180910390fd5b80600560008573ffffffffffffffffffffffffffffffffffffffff1673ffffffffffffffffffffffffffffffffffffffff16815260200190815260200160002060008473ffffffffffffffffffffffffffffffffffffffff1673ffffffffffffffffffffffffffffffffffffffff16815260200190815260200160002060006101000a81548160ff0219169083151502179055508173ffffffffffffffffffffffffffffffffffffffff168373ffffffffffffffffffffffffffffffffffffffff167f17307eab39ab6107e8899845ad3d59bd9653f200f220920489ca2b5937696c31836040516115899190611b1b565b60405180910390a3505050565b6115a1848484610f53565b6115ad848484846116ba565b6115ec576040517f08c379a00000000000000000000000000000000000000000000000000000000081526004016115e390612be0565b60405180910390fd5b50505050565b606060405180602001604052806000815250905090565b606061161482610d48565b611653576040517f08c379a000000000000000000000000000000000000000000000000000000000815260040161164a90612c72565b60405180910390fd5b600061165d6115f2565b9050600081511161167d57604051806020016040528060008152506116a8565b8061168784611841565b60405160200161169892919061268e565b6040516020818303038152906040525b915050919050565b505050565b505050565b60006116db8473ffffffffffffffffffffffffffffffffffffffff166119a1565b15611834578373ffffffffffffffffffffffffffffffffffffffff1663150b7a02611704610db4565b8786866040518563ffffffff1660e01b81526004016117269493929190612ce7565b6020604051808303816000875af192505050801561176257506040513d601f19601f8201168201806040525081019061175f9190612d48565b60015b6117e4573d8060008114611792576040519150601f19603f3d011682016040523d82523d6000602084013e611797565b606091505b5060008151036117dc576040517f08c379a00000000000000000000000000000000000000000000000000000000081526004016117d390612be0565b60405180910390fd5b805181602001fd5b63150b7a0260e01b7bffffffffffffffffffffffffffffffffffffffffffffffffffffffff1916817bffffffffffffffffffffffffffffffffffffffffffffffffffffffff191614915050611839565b600190505b949350505050565b606060008203611888576040518060400160405280600181526020017f3000000000000000000000000000000000000000000000000000000000000000815250905061199c565b600082905060005b600082146118ba5780806118a390612766565b915050600a826118b39190612da4565b9150611890565b60008167ffffffffffffffff8111156118d6576118d5611d79565b5b6040519080825280601f01601f1916602001820160405280156119085781602001600182028036833780820191505090505b5090505b60008514611995576001826119219190612964565b9150600a856119309190612dd5565b603061193c91906126e1565b60f81b81838151811061195257611951612737565b5b60200101907effffffffffffffffffffffffffffffffffffffffffffffffffffffffffffff1916908160001a905350600a8561198e9190612da4565b945061190c565b8093505050505b919050565b6000808273ffffffffffffffffffffffffffffffffffffffff163b119050919050565b8280546119d090612223565b90600052602060002090601f0160209004810192826119f25760008555611a39565b82601f10611a0b57805160ff1916838001178555611a39565b82800160010185558215611a39579182015b82811115611a38578251825591602001919060010190611a1d565b5b509050611a469190611a4a565b5090565b5b80821115611a63576000816000905550600101611a4b565b5090565b6000604051905090565b600080fd5b600080fd5b60007fffffffff0000000000000000000000000000000000000000000000000000000082169050919050565b611ab081611a7b565b8114611abb57600080fd5b50565b600081359050611acd81611aa7565b92915050565b600060208284031215611ae957611ae8611a71565b5b6000611af784828501611abe565b91505092915050565b60008115159050919050565b611b1581611b00565b82525050565b6000602082019050611b306000830184611b0c565b92915050565b600081519050919050565b600082825260208201905092915050565b60005b83811015611b70578082015181840152602081019050611b55565b83811115611b7f576000848401525b50505050565b6000601f19601f8301169050919050565b6000611ba182611b36565b611bab8185611b41565b9350611bbb818560208601611b52565b611bc481611b85565b840191505092915050565b60006020820190508181036000830152611be98184611b96565b905092915050565b6000819050919050565b611c0481611bf1565b8114611c0f57600080fd5b50565b600081359050611c2181611bfb565b92915050565b600060208284031215611c3d57611c3c611a71565b5b6000611c4b84828501611c12565b91505092915050565b600073ffffffffffffffffffffffffffffffffffffffff82169050919050565b6000611c7f82611c54565b9050919050565b611c8f81611c74565b82525050565b6000602082019050611caa6000830184611c86565b92915050565b611cb981611c74565b8114611cc457600080fd5b50565b600081359050611cd681611cb0565b92915050565b60008060408385031215611cf357611cf2611a71565b5b6000611d0185828601611cc7565b9250506020611d1285828601611c12565b9150509250929050565b600080600060608486031215611d3557611d34611a71565b5b6000611d4386828701611cc7565b9350506020611d5486828701611cc7565b9250506040611d6586828701611c12565b9150509250925092565b600080fd5b600080fd5b7f4e487b7100000000000000000000000000000000000000000000000000000000600052604160045260246000fd5b611db182611b85565b810181811067ffffffffffffffff82111715611dd057611dcf611d79565b5b80604052505050565b6000611de3611a67565b9050611def8282611da8565b919050565b600067ffffffffffffffff821115611e0f57611e0e611d79565b5b611e1882611b85565b9050602081019050919050565b82818337600083830152505050565b6000611e47611e4284611df4565b611dd9565b905082815260208101848484011115611e6357611e62611d74565b5b611e6e848285611e25565b509392505050565b600082601f830112611e8b57611e8a611d6f565b5b8135611e9b848260208601611e34565b91505092915050565b600060208284031215611eba57611eb9611a71565b5b600082013567ffffffffffffffff811115611ed857611ed7611a76565b5b611ee484828501611e76565b91505092915050565b611ef681611bf1565b82525050565b6000602082019050611f116000830184611eed565b92915050565b600060208284031215611f2d57611f2c611a71565b5b6000611f3b84828501611cc7565b91505092915050565b611f4d81611b00565b8114611f5857600080fd5b50565b600081359050611f6a81611f44565b92915050565b60008060408385031215611f8757611f86611a71565b5b6000611f9585828601611cc7565b9250506020611fa685828601611f5b565b9150509250929050565b600067ffffffffffffffff821115611fcb57611fca611d79565b5b611fd482611b85565b9050602081019050919050565b6000611ff4611fef84611fb0565b611dd9565b9050828152602081018484840111156120105761200f611d74565b5b61201b848285611e25565b509392505050565b600082601f83011261203857612037611d6f565b5b8135612048848260208601611fe1565b91505092915050565b6000806000806080858703121561206b5761206a611a71565b5b600061207987828801611cc7565b945050602061208a87828801611cc7565b935050604061209b87828801611c12565b925050606085013567ffffffffffffffff8111156120bc576120bb611a76565b5b6120c887828801612023565b91505092959194509250565b600080604083850312156120eb576120ea611a71565b5b60006120f985828601611cc7565b925050602061210a85828601611cc7565b9150509250929050565b600081519050919050565b600082825260208201905092915050565b6000819050602082019050919050565b61214981611bf1565b82525050565b600061215b8383612140565b60208301905092915050565b6000602082019050919050565b600061217f82612114565b612189818561211f565b935061219483612130565b8060005b838110156121c55781516121ac888261214f565b97506121b783612167565b925050600181019050612198565b5085935050505092915050565b600060208201905081810360008301526121ec8184612174565b905092915050565b7f4e487b7100000000000000000000000000000000000000000000000000000000600052602260045260246000fd5b6000600282049050600182168061223b57607f821691505b60208210810361224e5761224d6121f4565b5b50919050565b7f4552433732313a20617070726f76656420717565727920666f72206e6f6e657860008201527f697374656e7420746f6b656e0000000000000000000000000000000000000000602082015250565b60006122b0602c83611b41565b91506122bb82612254565b604082019050919050565b600060208201905081810360008301526122df816122a3565b9050919050565b7f4552433732313a20617070726f76616c20746f2063757272656e74206f776e6560008201527f7200000000000000000000000000000000000000000000000000000000000000602082015250565b6000612342602183611b41565b915061234d826122e6565b604082019050919050565b6000602082019050818103600083015261237181612335565b9050919050565b7f4552433732313a20617070726f76652063616c6c6572206973206e6f74206f7760008201527f6e6572206e6f7220617070726f76656420666f7220616c6c0000000000000000602082015250565b60006123d4603883611b41565b91506123df82612378565b604082019050919050565b60006020820190508181036000830152612403816123c7565b9050919050565b7f4552433732313a207472616e736665722063616c6c6572206973206e6f74206f60008201527f776e6572206e6f7220617070726f766564000000000000000000000000000000602082015250565b6000612466603183611b41565b91506124718261240a565b604082019050919050565b6000602082019050818103600083015261249581612459565b9050919050565b7f4552433732313a206f776e657220717565727920666f72206e6f6e657869737460008201527f656e7420746f6b656e0000000000000000000000000000000000000000000000602082015250565b60006124f8602983611b41565b91506125038261249c565b604082019050919050565b60006020820190508181036000830152612527816124eb565b9050919050565b7f4552433732313a2062616c616e636520717565727920666f7220746865207a6560008201527f726f206164647265737300000000000000000000000000000000000000000000602082015250565b600061258a602a83611b41565b91506125958261252e565b604082019050919050565b600060208201905081810360008301526125b98161257d565b9050919050565b7f45524337323155524953746f726167653a2055524920717565727920666f722060008201527f6e6f6e6578697374656e7420746f6b656e000000000000000000000000000000602082015250565b600061261c603183611b41565b9150612627826125c0565b604082019050919050565b6000602082019050818103600083015261264b8161260f565b9050919050565b600081905092915050565b600061266882611b36565b6126728185612652565b9350612682818560208601611b52565b80840191505092915050565b600061269a828561265d565b91506126a6828461265d565b91508190509392505050565b7f4e487b7100000000000000000000000000000000000000000000000000000000600052601160045260246000fd5b60006126ec82611bf1565b91506126f783611bf1565b9250827fffffffffffffffffffffffffffffffffffffffffffffffffffffffffffffffff0382111561272c5761272b6126b2565b5b828201905092915050565b7f4e487b7100000000000000000000000000000000000000000000000000000000600052603260045260246000fd5b600061277182611bf1565b91507fffffffffffffffffffffffffffffffffffffffffffffffffffffffffffffffff82036127a3576127a26126b2565b5b600182019050919050565b7f4552433732313a206f70657261746f7220717565727920666f72206e6f6e657860008201527f697374656e7420746f6b656e0000000000000000000000000000000000000000602082015250565b600061280a602c83611b41565b9150612815826127ae565b604082019050919050565b60006020820190508181036000830152612839816127fd565b9050919050565b7f4552433732313a207472616e736665722066726f6d20696e636f72726563742060008201527f6f776e6572000000000000000000000000000000000000000000000000000000602082015250565b600061289c602583611b41565b91506128a782612840565b604082019050919050565b600060208201905081810360008301526128cb8161288f565b9050919050565b7f4552433732313a207472616e7366657220746f20746865207a65726f2061646460008201527f7265737300000000000000000000000000000000000000000000000000000000602082015250565b600061292e602483611b41565b9150612939826128d2565b604082019050919050565b6000602082019050818103600083015261295d81612921565b9050919050565b600061296f82611bf1565b915061297a83611bf1565b92508282101561298d5761298c6126b2565b5b828203905092915050565b7f4552433732313a206d696e7420746f20746865207a65726f2061646472657373600082015250565b60006129ce602083611b41565b91506129d982612998565b602082019050919050565b600060208201905081810360008301526129fd816129c1565b9050919050565b7f4552433732313a20746f6b656e20616c7265616479206d696e74656400000000600082015250565b6000612a3a601c83611b41565b9150612a4582612a04565b602082019050919050565b60006020820190508181036000830152612a6981612a2d565b9050919050565b7f45524337323155524953746f726167653a2055524920736574206f66206e6f6e60008201527f6578697374656e7420746f6b656e000000000000000000000000000000000000602082015250565b6000612acc602e83611b41565b9150612ad782612a70565b604082019050919050565b60006020820190508181036000830152612afb81612abf565b9050919050565b7f4552433732313a20617070726f766520746f2063616c6c657200000000000000600082015250565b6000612b38601983611b41565b9150612b4382612b02565b602082019050919050565b60006020820190508181036000830152612b6781612b2b565b9050919050565b7f4552433732313a207472616e7366657220746f206e6f6e20455243373231526560008201527f63656976657220696d706c656d656e7465720000000000000000000000000000602082015250565b6000612bca603283611b41565b9150612bd582612b6e565b604082019050919050565b60006020820190508181036000830152612bf981612bbd565b9050919050565b7f4552433732314d657461646174613a2055524920717565727920666f72206e6f60008201527f6e6578697374656e7420746f6b656e0000000000000000000000000000000000602082015250565b6000612c5c602f83611b41565b9150612c6782612c00565b604082019050919050565b60006020820190508181036000830152612c8b81612c4f565b9050919050565b600081519050919050565b600082825260208201905092915050565b6000612cb982612c92565b612cc38185612c9d565b9350612cd3818560208601611b52565b612cdc81611b85565b840191505092915050565b6000608082019050612cfc6000830187611c86565b612d096020830186611c86565b612d166040830185611eed565b8181036060830152612d288184612cae565b905095945050505050565b600081519050612d4281611aa7565b92915050565b600060208284031215612d5e57612d5d611a71565b5b6000612d6c84828501612d33565b91505092915050565b7f4e487b7100000000000000000000000000000000000000000000000000000000600052601260045260246000fd5b6000612daf82611bf1565b9150612dba83611bf1565b925082612dca57612dc9612d75565b5b828204905092915050565b6000612de082611bf1565b9150612deb83611bf1565b925082612dfb57612dfa612d75565b5b82820690509291505056fea2646970667358221220e7679c6a05ee57a5b560a53d6a24153fd6a2a98ba53ac7ef7598aae8fb21f89d64736f6c634300080d0033",
  "immutableReferences": {},
  "source": "// SPDX-License-Identifier: MIT\r\n\r\npragma solidity ^0.8.13;\r\n\r\nimport \"@openzeppelin/contracts/token/ERC721/ERC721.sol\";\r\nimport \"@openzeppelin/contracts/token/ERC721/extensions/ERC721URIStorage.sol\";\r\nimport \"@openzeppelin/contracts/utils/Counters.sol\";\r\n\r\ncontract TankNFT is ERC721URIStorage {\r\n    using Counters for Counters.Counter;\r\n    Counters.Counter private _tokenIds;\r\n    address contractAddress;\r\n\r\n    constructor(address NFTMarket) ERC721(\"TankNFTToken\", \"DKT\") {\r\n        contractAddress = NFTMarket;\r\n    }\r\n\r\n    event NFTMinted(uint256 tokenId);\r\n\r\n    function createToken(string memory tokenURI) public returns (uint256) {\r\n        _tokenIds.increment();\r\n        uint256 newTokenId = _tokenIds.current();\r\n\r\n        _mint(msg.sender, newTokenId);\r\n        _setTokenURI(newTokenId, tokenURI);\r\n        _setApprovalForAll(_msgSender(), contractAddress, true);\r\n\r\n        emit NFTMinted(newTokenId);\r\n        return newTokenId;\r\n    }\r\n\r\n    function getMyNfts(address _ownerAddress)\r\n        public\r\n        view\r\n        returns (uint256[] memory)\r\n    {\r\n        uint256 nftCount = _tokenIds.current();\r\n        uint256[] memory nfts = new uint256[](balanceOf(_ownerAddress));\r\n        uint256 nftIndex = 0;\r\n        for (uint256 i = 0; i < nftCount; i++) {\r\n            if (ownerOf(i + 1) == _ownerAddress) {\r\n                nfts[nftIndex] = i + 1;\r\n                nftIndex++;\r\n            }\r\n        }\r\n        return nfts;\r\n    }\r\n}\r\n",
  "sourcePath": "D:\\code\\TheDeadKingdom\\Contract\\contracts\\ethereum\\TankNFT.sol",
  "compiler": {
    "name": "solc",
    "version": "0.8.13+commit.abaa5c0e.Emscripten.clang"
  },
  "schemaVersion": "3.4.7",
  "updatedAt": "2022-07-08T18:51:23.575Z",
  "networkType": "ethereum",
  "devdoc": {
    "kind": "dev",
    "methods": {
      "approve(address,uint256)": {
        "details": "See {IERC721-approve}."
      },
      "balanceOf(address)": {
        "details": "See {IERC721-balanceOf}."
      },
      "getApproved(uint256)": {
        "details": "See {IERC721-getApproved}."
      },
      "isApprovedForAll(address,address)": {
        "details": "See {IERC721-isApprovedForAll}."
      },
      "name()": {
        "details": "See {IERC721Metadata-name}."
      },
      "ownerOf(uint256)": {
        "details": "See {IERC721-ownerOf}."
      },
      "safeTransferFrom(address,address,uint256)": {
        "details": "See {IERC721-safeTransferFrom}."
      },
      "safeTransferFrom(address,address,uint256,bytes)": {
        "details": "See {IERC721-safeTransferFrom}."
      },
      "setApprovalForAll(address,bool)": {
        "details": "See {IERC721-setApprovalForAll}."
      },
      "supportsInterface(bytes4)": {
        "details": "See {IERC165-supportsInterface}."
      },
      "symbol()": {
        "details": "See {IERC721Metadata-symbol}."
      },
      "tokenURI(uint256)": {
        "details": "See {IERC721Metadata-tokenURI}."
      },
      "transferFrom(address,address,uint256)": {
        "details": "See {IERC721-transferFrom}."
      }
    },
    "version": 1
  },
  "userdoc": {
    "kind": "user",
    "methods": {},
    "version": 1
  }
}