{
  "contractName": "Marketplace",
  "abi": [
    {
      "inputs": [
        {
          "internalType": "address",
          "name": "_tokenAddress",
          "type": "address"
        }
      ],
      "stateMutability": "nonpayable",
      "type": "constructor"
    },
    {
      "anonymous": false,
      "inputs": [
        {
          "indexed": false,
          "internalType": "uint256",
          "name": "marketItemId",
          "type": "uint256"
        },
        {
          "indexed": false,
          "internalType": "address",
          "name": "nftContract",
          "type": "address"
        },
        {
          "indexed": false,
          "internalType": "uint256",
          "name": "tokenId",
          "type": "uint256"
        },
        {
          "indexed": false,
          "internalType": "address",
          "name": "seller",
          "type": "address"
        },
        {
          "indexed": false,
          "internalType": "address",
          "name": "buyer",
          "type": "address"
        },
        {
          "indexed": false,
          "internalType": "uint256",
          "name": "price",
          "type": "uint256"
        }
      ],
      "name": "NFTListed",
      "type": "event"
    },
    {
      "anonymous": false,
      "inputs": [
        {
          "indexed": false,
          "internalType": "uint256",
          "name": "marketItemId",
          "type": "uint256"
        },
        {
          "indexed": false,
          "internalType": "address",
          "name": "nftContract",
          "type": "address"
        },
        {
          "indexed": false,
          "internalType": "uint256",
          "name": "tokenId",
          "type": "uint256"
        },
        {
          "indexed": false,
          "internalType": "address",
          "name": "seller",
          "type": "address"
        },
        {
          "indexed": false,
          "internalType": "address",
          "name": "buyer",
          "type": "address"
        },
        {
          "indexed": false,
          "internalType": "uint256",
          "name": "price",
          "type": "uint256"
        }
      ],
      "name": "NFTSaleCanceled",
      "type": "event"
    },
    {
      "anonymous": false,
      "inputs": [
        {
          "indexed": false,
          "internalType": "uint256",
          "name": "marketItemId",
          "type": "uint256"
        },
        {
          "indexed": false,
          "internalType": "address",
          "name": "nftContract",
          "type": "address"
        },
        {
          "indexed": false,
          "internalType": "uint256",
          "name": "tokenId",
          "type": "uint256"
        },
        {
          "indexed": false,
          "internalType": "address",
          "name": "seller",
          "type": "address"
        },
        {
          "indexed": false,
          "internalType": "address",
          "name": "buyer",
          "type": "address"
        },
        {
          "indexed": false,
          "internalType": "uint256",
          "name": "price",
          "type": "uint256"
        }
      ],
      "name": "NFTSold",
      "type": "event"
    },
    {
      "inputs": [],
      "name": "deno",
      "outputs": [
        {
          "internalType": "uint256",
          "name": "",
          "type": "uint256"
        }
      ],
      "stateMutability": "view",
      "type": "function",
      "constant": true
    },
    {
      "inputs": [],
      "name": "platformFee",
      "outputs": [
        {
          "internalType": "uint256",
          "name": "",
          "type": "uint256"
        }
      ],
      "stateMutability": "view",
      "type": "function",
      "constant": true
    },
    {
      "inputs": [],
      "name": "tokenAddress",
      "outputs": [
        {
          "internalType": "contract IERC20",
          "name": "",
          "type": "address"
        }
      ],
      "stateMutability": "view",
      "type": "function",
      "constant": true
    },
    {
      "inputs": [
        {
          "internalType": "address",
          "name": "_nftContract",
          "type": "address"
        },
        {
          "internalType": "uint256",
          "name": "_tokenId",
          "type": "uint256"
        },
        {
          "internalType": "uint256",
          "name": "_price",
          "type": "uint256"
        }
      ],
      "name": "listNft",
      "outputs": [],
      "stateMutability": "nonpayable",
      "type": "function"
    },
    {
      "inputs": [
        {
          "internalType": "uint256",
          "name": "_marketItemId",
          "type": "uint256"
        }
      ],
      "name": "cancelSellNft",
      "outputs": [],
      "stateMutability": "nonpayable",
      "type": "function"
    },
    {
      "inputs": [
        {
          "internalType": "uint256",
          "name": "_marketItemId",
          "type": "uint256"
        }
      ],
      "name": "buyNft",
      "outputs": [],
      "stateMutability": "payable",
      "type": "function",
      "payable": true
    },
    {
      "inputs": [],
      "name": "getListingNfts",
      "outputs": [
        {
          "components": [
            {
              "internalType": "uint256",
              "name": "marketItemId",
              "type": "uint256"
            },
            {
              "internalType": "uint256",
              "name": "tokenId",
              "type": "uint256"
            },
            {
              "internalType": "uint256",
              "name": "price",
              "type": "uint256"
            },
            {
              "internalType": "address payable",
              "name": "seller",
              "type": "address"
            },
            {
              "internalType": "address payable",
              "name": "buyer",
              "type": "address"
            },
            {
              "internalType": "address",
              "name": "nftContract",
              "type": "address"
            },
            {
              "internalType": "bool",
              "name": "isSelling",
              "type": "bool"
            }
          ],
          "internalType": "struct Marketplace.NFTMarketItem[]",
          "name": "",
          "type": "tuple[]"
        }
      ],
      "stateMutability": "view",
      "type": "function",
      "constant": true
    },
    {
      "inputs": [],
      "name": "getMyListingNfts",
      "outputs": [
        {
          "components": [
            {
              "internalType": "uint256",
              "name": "marketItemId",
              "type": "uint256"
            },
            {
              "internalType": "uint256",
              "name": "tokenId",
              "type": "uint256"
            },
            {
              "internalType": "uint256",
              "name": "price",
              "type": "uint256"
            },
            {
              "internalType": "address payable",
              "name": "seller",
              "type": "address"
            },
            {
              "internalType": "address payable",
              "name": "buyer",
              "type": "address"
            },
            {
              "internalType": "address",
              "name": "nftContract",
              "type": "address"
            },
            {
              "internalType": "bool",
              "name": "isSelling",
              "type": "bool"
            }
          ],
          "internalType": "struct Marketplace.NFTMarketItem[]",
          "name": "",
          "type": "tuple[]"
        }
      ],
      "stateMutability": "view",
      "type": "function",
      "constant": true
    }
  ],
  "bytecode": "0x608060405260196004556103e86005553480156200001c57600080fd5b5060405162001d0538038062001d0583398181016040528101906200004291906200013d565b600160008190555033600660006101000a81548173ffffffffffffffffffffffffffffffffffffffff021916908373ffffffffffffffffffffffffffffffffffffffff16021790555080600360006101000a81548173ffffffffffffffffffffffffffffffffffffffff021916908373ffffffffffffffffffffffffffffffffffffffff160217905550506200016f565b600080fd5b600073ffffffffffffffffffffffffffffffffffffffff82169050919050565b60006200010582620000d8565b9050919050565b6200011781620000f8565b81146200012357600080fd5b50565b60008151905062000137816200010c565b92915050565b600060208284031215620001565762000155620000d3565b5b6000620001668482850162000126565b91505092915050565b611b86806200017f6000396000f3fe60806040526004361061007b5760003560e01c806359f482711161004e57806359f482711461011d5780639d76ea58146101465780639fee5bc614610171578063c922b17c1461019c5761007b565b8063243adbdd1461008057806326232a2e1461009c578063443c2fd7146100c75780634cb55876146100f2575b600080fd5b61009a6004803603810190610095919061134e565b6101c5565b005b3480156100a857600080fd5b506100b16107ba565b6040516100be919061138a565b60405180910390f35b3480156100d357600080fd5b506100dc6107c0565b6040516100e9919061156e565b60405180910390f35b3480156100fe57600080fd5b50610107610a32565b604051610114919061156e565b60405180910390f35b34801561012957600080fd5b50610144600480360381019061013f919061134e565b610de1565b005b34801561015257600080fd5b5061015b610fc5565b60405161016891906115ef565b60405180910390f35b34801561017d57600080fd5b50610186610feb565b604051610193919061138a565b60405180910390f35b3480156101a857600080fd5b506101c360048036038101906101be9190611636565b610ff1565b005b60006007600083815260200190815260200160002090506000816002015490506000600554600454836101f891906116b8565b6102029190611741565b90506000600360009054906101000a900473ffffffffffffffffffffffffffffffffffffffff1673ffffffffffffffffffffffffffffffffffffffff1663dd62ed3e33306040518363ffffffff1660e01b8152600401610263929190611781565b602060405180830381865afa158015610280573d6000803e3d6000fd5b505050506040513d601f19601f820116820180604052508101906102a491906117bf565b9050828110156102e9576040517f08c379a00000000000000000000000000000000000000000000000000000000081526004016102e090611849565b60405180910390fd5b600360009054906101000a900473ffffffffffffffffffffffffffffffffffffffff1673ffffffffffffffffffffffffffffffffffffffff166323b872dd3330866040518463ffffffff1660e01b815260040161034893929190611869565b6020604051808303816000875af1158015610367573d6000803e3d6000fd5b505050506040513d601f19601f8201168201806040525081019061038b91906118cc565b50600360009054906101000a900473ffffffffffffffffffffffffffffffffffffffff1673ffffffffffffffffffffffffffffffffffffffff1663a9059cbb8560030160009054906101000a900473ffffffffffffffffffffffffffffffffffffffff1684866103fb91906118f9565b6040518363ffffffff1660e01b815260040161041892919061194e565b6020604051808303816000875af1158015610437573d6000803e3d6000fd5b505050506040513d601f19601f8201168201806040525081019061045b91906118cc565b50600360009054906101000a900473ffffffffffffffffffffffffffffffffffffffff1673ffffffffffffffffffffffffffffffffffffffff1663a9059cbb600660009054906101000a900473ffffffffffffffffffffffffffffffffffffffff16600360009054906101000a900473ffffffffffffffffffffffffffffffffffffffff1673ffffffffffffffffffffffffffffffffffffffff166370a08231306040518263ffffffff1660e01b81526004016105189190611977565b602060405180830381865afa158015610535573d6000803e3d6000fd5b505050506040513d601f19601f8201168201806040525081019061055991906117bf565b6040518363ffffffff1660e01b815260040161057692919061194e565b6020604051808303816000875af1158015610595573d6000803e3d6000fd5b505050506040513d601f19601f820116820180604052508101906105b991906118cc565b50338460040160006101000a81548173ffffffffffffffffffffffffffffffffffffffff021916908373ffffffffffffffffffffffffffffffffffffffff160217905550610607600261126e565b8360050160009054906101000a900473ffffffffffffffffffffffffffffffffffffffff1673ffffffffffffffffffffffffffffffffffffffff166323b872dd303387600101546040518463ffffffff1660e01b815260040161066c93929190611869565b600060405180830381600087803b15801561068657600080fd5b505af115801561069a573d6000803e3d6000fd5b5050505060008460050160146101000a81548160ff021916908315150217905550338460040160006101000a81548173ffffffffffffffffffffffffffffffffffffffff021916908373ffffffffffffffffffffffffffffffffffffffff1602179055507ffbd14ef83c9e36d4cd05cdc496d3b3a07da3041679b4142908d0ef3cef210dc484600001548560050160009054906101000a900473ffffffffffffffffffffffffffffffffffffffff1686600101548760030160009054906101000a900473ffffffffffffffffffffffffffffffffffffffff168860040160009054906101000a900473ffffffffffffffffffffffffffffffffffffffff16886040516107ab96959493929190611992565b60405180910390a15050505050565b60045481565b606060006107ce6001611284565b905060006107dc6002611284565b826107e791906118f9565b905060008167ffffffffffffffff811115610805576108046119f3565b5b60405190808252806020026020018201604052801561083e57816020015b61082b611292565b8152602001906001900390816108235790505b5090506000805b84811015610a27576007600060018361085e9190611a22565b815260200190815260200160002060050160149054906101000a900460ff1615610a1457600760006001836108939190611a22565b81526020019081526020016000206040518060e00160405290816000820154815260200160018201548152602001600282015481526020016003820160009054906101000a900473ffffffffffffffffffffffffffffffffffffffff1673ffffffffffffffffffffffffffffffffffffffff1673ffffffffffffffffffffffffffffffffffffffff1681526020016004820160009054906101000a900473ffffffffffffffffffffffffffffffffffffffff1673ffffffffffffffffffffffffffffffffffffffff1673ffffffffffffffffffffffffffffffffffffffff1681526020016005820160009054906101000a900473ffffffffffffffffffffffffffffffffffffffff1673ffffffffffffffffffffffffffffffffffffffff1673ffffffffffffffffffffffffffffffffffffffff1681526020016005820160149054906101000a900460ff1615151515815250508383815181106109fa576109f9611a78565b5b60200260200101819052508180610a1090611aa7565b9250505b8080610a1f90611aa7565b915050610845565b508194505050505090565b60606000610a406001611284565b90506000805b82811015610b1e573373ffffffffffffffffffffffffffffffffffffffff1660076000600184610a769190611a22565b815260200190815260200160002060030160009054906101000a900473ffffffffffffffffffffffffffffffffffffffff1673ffffffffffffffffffffffffffffffffffffffff16148015610af7575060076000600183610ad79190611a22565b815260200190815260200160002060050160149054906101000a900460ff165b15610b0b578180610b0790611aa7565b9250505b8080610b1690611aa7565b915050610a46565b5060008167ffffffffffffffff811115610b3b57610b3a6119f3565b5b604051908082528060200260200182016040528015610b7457816020015b610b61611292565b815260200190600190039081610b595790505b5090506000805b84811015610dd6573373ffffffffffffffffffffffffffffffffffffffff1660076000600184610bab9190611a22565b815260200190815260200160002060030160009054906101000a900473ffffffffffffffffffffffffffffffffffffffff1673ffffffffffffffffffffffffffffffffffffffff16148015610c2c575060076000600183610c0c9190611a22565b815260200190815260200160002060050160149054906101000a900460ff165b15610dc35760076000600183610c429190611a22565b81526020019081526020016000206040518060e00160405290816000820154815260200160018201548152602001600282015481526020016003820160009054906101000a900473ffffffffffffffffffffffffffffffffffffffff1673ffffffffffffffffffffffffffffffffffffffff1673ffffffffffffffffffffffffffffffffffffffff1681526020016004820160009054906101000a900473ffffffffffffffffffffffffffffffffffffffff1673ffffffffffffffffffffffffffffffffffffffff1673ffffffffffffffffffffffffffffffffffffffff1681526020016005820160009054906101000a900473ffffffffffffffffffffffffffffffffffffffff1673ffffffffffffffffffffffffffffffffffffffff1673ffffffffffffffffffffffffffffffffffffffff1681526020016005820160149054906101000a900460ff161515151581525050838381518110610da957610da8611a78565b5b60200260200101819052508180610dbf90611aa7565b9250505b8080610dce90611aa7565b915050610b7b565b508194505050505090565b60006007600083815260200190815260200160002090508060030160009054906101000a900473ffffffffffffffffffffffffffffffffffffffff1673ffffffffffffffffffffffffffffffffffffffff163373ffffffffffffffffffffffffffffffffffffffff1614610e5457600080fd5b60008160050160146101000a81548160ff0219169083151502179055508060050160009054906101000a900473ffffffffffffffffffffffffffffffffffffffff1673ffffffffffffffffffffffffffffffffffffffff166323b872dd303384600101546040518463ffffffff1660e01b8152600401610ed693929190611869565b600060405180830381600087803b158015610ef057600080fd5b505af1158015610f04573d6000803e3d6000fd5b505050507f59c5c697698d4245f5931b2d83da5c09c16445194cb3e1adf9cef2cc3b9d722b81600001548260050160009054906101000a900473ffffffffffffffffffffffffffffffffffffffff1683600101548460030160009054906101000a900473ffffffffffffffffffffffffffffffffffffffff168560040160009054906101000a900473ffffffffffffffffffffffffffffffffffffffff168660020154604051610fb996959493929190611992565b60405180910390a15050565b600360009054906101000a900473ffffffffffffffffffffffffffffffffffffffff1681565b60055481565b60008111610ffe57600080fd5b611008600161126e565b60006110146001611284565b90506040518060e001604052808281526020018481526020018381526020013373ffffffffffffffffffffffffffffffffffffffff168152602001600073ffffffffffffffffffffffffffffffffffffffff1681526020018573ffffffffffffffffffffffffffffffffffffffff168152602001600115158152506007600083815260200190815260200160002060008201518160000155602082015181600101556040820151816002015560608201518160030160006101000a81548173ffffffffffffffffffffffffffffffffffffffff021916908373ffffffffffffffffffffffffffffffffffffffff16021790555060808201518160040160006101000a81548173ffffffffffffffffffffffffffffffffffffffff021916908373ffffffffffffffffffffffffffffffffffffffff16021790555060a08201518160050160006101000a81548173ffffffffffffffffffffffffffffffffffffffff021916908373ffffffffffffffffffffffffffffffffffffffff16021790555060c08201518160050160146101000a81548160ff0219169083151502179055509050508373ffffffffffffffffffffffffffffffffffffffff166323b872dd3330866040518463ffffffff1660e01b81526004016111f593929190611869565b600060405180830381600087803b15801561120f57600080fd5b505af1158015611223573d6000803e3d6000fd5b505050507f837b3a4a47f6aedac2e74f9f4be36ee333052be462fd01f2282e34cfd3a158a681858533308760405161126096959493929190611aef565b60405180910390a150505050565b6001816000016000828254019250508190555050565b600081600001549050919050565b6040518060e00160405280600081526020016000815260200160008152602001600073ffffffffffffffffffffffffffffffffffffffff168152602001600073ffffffffffffffffffffffffffffffffffffffff168152602001600073ffffffffffffffffffffffffffffffffffffffff1681526020016000151581525090565b600080fd5b6000819050919050565b61132b81611318565b811461133657600080fd5b50565b60008135905061134881611322565b92915050565b60006020828403121561136457611363611313565b5b600061137284828501611339565b91505092915050565b61138481611318565b82525050565b600060208201905061139f600083018461137b565b92915050565b600081519050919050565b600082825260208201905092915050565b6000819050602082019050919050565b6113da81611318565b82525050565b600073ffffffffffffffffffffffffffffffffffffffff82169050919050565b600061140b826113e0565b9050919050565b61141b81611400565b82525050565b600061142c826113e0565b9050919050565b61143c81611421565b82525050565b60008115159050919050565b61145781611442565b82525050565b60e08201600082015161147360008501826113d1565b50602082015161148660208501826113d1565b50604082015161149960408501826113d1565b5060608201516114ac6060850182611412565b5060808201516114bf6080850182611412565b5060a08201516114d260a0850182611433565b5060c08201516114e560c085018261144e565b50505050565b60006114f7838361145d565b60e08301905092915050565b6000602082019050919050565b600061151b826113a5565b61152581856113b0565b9350611530836113c1565b8060005b8381101561156157815161154888826114eb565b975061155383611503565b925050600181019050611534565b5085935050505092915050565b600060208201905081810360008301526115888184611510565b905092915050565b6000819050919050565b60006115b56115b06115ab846113e0565b611590565b6113e0565b9050919050565b60006115c78261159a565b9050919050565b60006115d9826115bc565b9050919050565b6115e9816115ce565b82525050565b600060208201905061160460008301846115e0565b92915050565b61161381611421565b811461161e57600080fd5b50565b6000813590506116308161160a565b92915050565b60008060006060848603121561164f5761164e611313565b5b600061165d86828701611621565b935050602061166e86828701611339565b925050604061167f86828701611339565b9150509250925092565b7f4e487b7100000000000000000000000000000000000000000000000000000000600052601160045260246000fd5b60006116c382611318565b91506116ce83611318565b9250817fffffffffffffffffffffffffffffffffffffffffffffffffffffffffffffffff048311821515161561170757611706611689565b5b828202905092915050565b7f4e487b7100000000000000000000000000000000000000000000000000000000600052601260045260246000fd5b600061174c82611318565b915061175783611318565b92508261176757611766611712565b5b828204905092915050565b61177b81611421565b82525050565b60006040820190506117966000830185611772565b6117a36020830184611772565b9392505050565b6000815190506117b981611322565b92915050565b6000602082840312156117d5576117d4611313565b5b60006117e3848285016117aa565b91505092915050565b600082825260208201905092915050565b7f436865636b2074686520746f6b656e20616c6c6f77616e636500000000000000600082015250565b60006118336019836117ec565b915061183e826117fd565b602082019050919050565b6000602082019050818103600083015261186281611826565b9050919050565b600060608201905061187e6000830186611772565b61188b6020830185611772565b611898604083018461137b565b949350505050565b6118a981611442565b81146118b457600080fd5b50565b6000815190506118c6816118a0565b92915050565b6000602082840312156118e2576118e1611313565b5b60006118f0848285016118b7565b91505092915050565b600061190482611318565b915061190f83611318565b92508282101561192257611921611689565b5b828203905092915050565b6000611938826115bc565b9050919050565b6119488161192d565b82525050565b6000604082019050611963600083018561193f565b611970602083018461137b565b9392505050565b600060208201905061198c6000830184611772565b92915050565b600060c0820190506119a7600083018961137b565b6119b46020830188611772565b6119c1604083018761137b565b6119ce606083018661193f565b6119db608083018561193f565b6119e860a083018461137b565b979650505050505050565b7f4e487b7100000000000000000000000000000000000000000000000000000000600052604160045260246000fd5b6000611a2d82611318565b9150611a3883611318565b9250827fffffffffffffffffffffffffffffffffffffffffffffffffffffffffffffffff03821115611a6d57611a6c611689565b5b828201905092915050565b7f4e487b7100000000000000000000000000000000000000000000000000000000600052603260045260246000fd5b6000611ab282611318565b91507fffffffffffffffffffffffffffffffffffffffffffffffffffffffffffffffff8203611ae457611ae3611689565b5b600182019050919050565b600060c082019050611b04600083018961137b565b611b116020830188611772565b611b1e604083018761137b565b611b2b6060830186611772565b611b386080830185611772565b611b4560a083018461137b565b97965050505050505056fea2646970667358221220c8b46ec8153dbcecec425394edbf4060e93d056ffdbcece50f5bc0d696087d9b64736f6c634300080d0033",
  "immutableReferences": {},
  "source": "// SPDX-License-Identifier: MIT\r\n\r\npragma solidity ^0.8.13;\r\n\r\nimport \"@openzeppelin/contracts/utils/Counters.sol\";\r\nimport \"@openzeppelin/contracts/token/ERC20/IERC20.sol\";\r\nimport \"@openzeppelin/contracts/token/ERC721/IERC721.sol\";\r\nimport \"@openzeppelin/contracts/security/ReentrancyGuard.sol\";\r\n\r\ncontract Marketplace is ReentrancyGuard {\r\n    using Counters for Counters.Counter;\r\n    Counters.Counter private _marketItemIds;\r\n    Counters.Counter private _nftSold;\r\n    IERC20 public tokenAddress;\r\n    uint256 public platformFee = 25;\r\n    uint256 public deno = 1000;\r\n\r\n    address payable marketOwner;\r\n\r\n    mapping(uint256 => NFTMarketItem) private marketItems;\r\n\r\n    constructor(address _tokenAddress) {\r\n        marketOwner = payable(msg.sender);\r\n        tokenAddress = IERC20(_tokenAddress);\r\n    }\r\n\r\n    struct NFTMarketItem {\r\n        uint256 marketItemId;\r\n        uint256 tokenId;\r\n        uint256 price;\r\n        address payable seller;\r\n        address payable buyer;\r\n        address nftContract;\r\n        bool isSelling;\r\n    }\r\n\r\n    event NFTListed(\r\n        uint256 marketItemId,\r\n        address nftContract,\r\n        uint256 tokenId,\r\n        address seller,\r\n        address buyer,\r\n        uint256 price\r\n    );\r\n\r\n    event NFTSaleCanceled(\r\n        uint256 marketItemId,\r\n        address nftContract,\r\n        uint256 tokenId,\r\n        address seller,\r\n        address buyer,\r\n        uint256 price\r\n    );\r\n\r\n    event NFTSold(\r\n        uint256 marketItemId,\r\n        address nftContract,\r\n        uint256 tokenId,\r\n        address seller,\r\n        address buyer,\r\n        uint256 price\r\n    );\r\n\r\n    function listNft(\r\n        address _nftContract,\r\n        uint256 _tokenId,\r\n        uint256 _price\r\n    ) public {\r\n        require(_price > 0);\r\n        _marketItemIds.increment();\r\n        uint256 marketItemId = _marketItemIds.current();\r\n\r\n        marketItems[marketItemId] = NFTMarketItem(\r\n            marketItemId,\r\n            _tokenId,\r\n            _price,\r\n            payable(msg.sender),\r\n            payable(address(0)),\r\n            _nftContract,\r\n            true\r\n        );\r\n        IERC721(_nftContract).transferFrom(msg.sender, address(this), _tokenId);\r\n        emit NFTListed(\r\n            marketItemId,\r\n            _nftContract,\r\n            _tokenId,\r\n            msg.sender,\r\n            address(this),\r\n            _price\r\n        );\r\n    }\r\n\r\n    function cancelSellNft(uint256 _marketItemId) public {\r\n        NFTMarketItem storage nftMarketItem = marketItems[_marketItemId];\r\n        require(msg.sender == nftMarketItem.seller);\r\n        nftMarketItem.isSelling = false;\r\n        IERC721(nftMarketItem.nftContract).transferFrom(\r\n            address(this),\r\n            msg.sender,\r\n            nftMarketItem.tokenId\r\n        );\r\n        emit NFTSaleCanceled(\r\n            nftMarketItem.marketItemId,\r\n            nftMarketItem.nftContract,\r\n            nftMarketItem.tokenId,\r\n            nftMarketItem.seller,\r\n            nftMarketItem.buyer,\r\n            nftMarketItem.price\r\n        );\r\n    }\r\n\r\n    function buyNft(uint256 _marketItemId) public payable {\r\n        NFTMarketItem storage nftMarketItem = marketItems[_marketItemId];\r\n        uint256 price = nftMarketItem.price;\r\n        uint256 marketFee = (price * platformFee) / deno;\r\n\r\n        uint256 allowance = tokenAddress.allowance(msg.sender, address(this));\r\n        require(allowance >= price, \"Check the token allowance\");\r\n\r\n        tokenAddress.transferFrom(msg.sender, address(this), price);\r\n\r\n        tokenAddress.transfer(nftMarketItem.seller, price - marketFee);\r\n\r\n        tokenAddress.transfer(\r\n            marketOwner,\r\n            tokenAddress.balanceOf(address(this))\r\n        );\r\n\r\n        nftMarketItem.buyer = payable(msg.sender);\r\n        _nftSold.increment();\r\n\r\n        IERC721(nftMarketItem.nftContract).transferFrom(\r\n            address(this),\r\n            msg.sender,\r\n            nftMarketItem.tokenId\r\n        );\r\n\r\n        nftMarketItem.isSelling = false;\r\n        nftMarketItem.buyer = payable(msg.sender);\r\n\r\n        emit NFTSold(\r\n            nftMarketItem.marketItemId,\r\n            nftMarketItem.nftContract,\r\n            nftMarketItem.tokenId,\r\n            nftMarketItem.seller,\r\n            nftMarketItem.buyer,\r\n            price\r\n        );\r\n    }\r\n\r\n    function getListingNfts() public view returns (NFTMarketItem[] memory) {\r\n        uint256 nftCount = _marketItemIds.current();\r\n        uint256 unsoldNftsCount = nftCount - _nftSold.current();\r\n\r\n        NFTMarketItem[] memory nfts = new NFTMarketItem[](unsoldNftsCount);\r\n        uint256 nftsIndex = 0;\r\n        for (uint256 i = 0; i < nftCount; i++) {\r\n            if (marketItems[i + 1].isSelling) {\r\n                nfts[nftsIndex] = marketItems[i + 1];\r\n                nftsIndex++;\r\n            }\r\n        }\r\n        return nfts;\r\n    }\r\n\r\n    function getMyListingNfts() public view returns (NFTMarketItem[] memory) {\r\n        uint256 nftCount = _marketItemIds.current();\r\n        uint256 myListingNftCount = 0;\r\n        for (uint256 i = 0; i < nftCount; i++) {\r\n            if (\r\n                marketItems[i + 1].seller == msg.sender &&\r\n                marketItems[i + 1].isSelling\r\n            ) {\r\n                myListingNftCount++;\r\n            }\r\n        }\r\n\r\n        NFTMarketItem[] memory nfts = new NFTMarketItem[](myListingNftCount);\r\n        uint256 nftsIndex = 0;\r\n        for (uint256 i = 0; i < nftCount; i++) {\r\n            if (\r\n                marketItems[i + 1].seller == msg.sender &&\r\n                marketItems[i + 1].isSelling\r\n            ) {\r\n                nfts[nftsIndex] = marketItems[i + 1];\r\n                nftsIndex++;\r\n            }\r\n        }\r\n        return nfts;\r\n    }\r\n}\r\n",
  "sourcePath": "D:\\code\\TheDeadKingdom\\Contract\\contracts\\ethereum\\Marketplace.sol",
  "compiler": {
    "name": "solc",
    "version": "0.8.13+commit.abaa5c0e.Emscripten.clang"
  },
  "schemaVersion": "3.4.7",
  "updatedAt": "2022-07-10T17:08:01.041Z",
  "networkType": "ethereum",
  "devdoc": {
    "kind": "dev",
    "methods": {},
    "version": 1
  },
  "userdoc": {
    "kind": "user",
    "methods": {},
    "version": 1
  }
}