{
  "contractName": "Marketplace",
  "abi": [
    {
      "inputs": [
        {
          "internalType": "address",
          "name": "_deathKingdomCoinContract",
          "type": "address"
        }
      ],
      "stateMutability": "nonpayable",
      "type": "constructor"
    },
    {
      "anonymous": false,
      "inputs": [
        {
          "indexed": false,
          "internalType": "uint256",
          "name": "marketItemId",
          "type": "uint256"
        },
        {
          "indexed": false,
          "internalType": "address",
          "name": "nftContract",
          "type": "address"
        },
        {
          "indexed": false,
          "internalType": "uint256",
          "name": "tokenId",
          "type": "uint256"
        },
        {
          "indexed": false,
          "internalType": "address",
          "name": "seller",
          "type": "address"
        },
        {
          "indexed": false,
          "internalType": "address",
          "name": "buyer",
          "type": "address"
        },
        {
          "indexed": false,
          "internalType": "uint256",
          "name": "price",
          "type": "uint256"
        }
      ],
      "name": "NFTListed",
      "type": "event"
    },
    {
      "anonymous": false,
      "inputs": [
        {
          "indexed": false,
          "internalType": "uint256",
          "name": "marketItemId",
          "type": "uint256"
        },
        {
          "indexed": false,
          "internalType": "address",
          "name": "nftContract",
          "type": "address"
        },
        {
          "indexed": false,
          "internalType": "uint256",
          "name": "tokenId",
          "type": "uint256"
        },
        {
          "indexed": false,
          "internalType": "address",
          "name": "seller",
          "type": "address"
        },
        {
          "indexed": false,
          "internalType": "address",
          "name": "buyer",
          "type": "address"
        },
        {
          "indexed": false,
          "internalType": "uint256",
          "name": "price",
          "type": "uint256"
        }
      ],
      "name": "NFTSaleCanceled",
      "type": "event"
    },
    {
      "anonymous": false,
      "inputs": [
        {
          "indexed": false,
          "internalType": "uint256",
          "name": "marketItemId",
          "type": "uint256"
        },
        {
          "indexed": false,
          "internalType": "address",
          "name": "nftContract",
          "type": "address"
        },
        {
          "indexed": false,
          "internalType": "uint256",
          "name": "tokenId",
          "type": "uint256"
        },
        {
          "indexed": false,
          "internalType": "address",
          "name": "seller",
          "type": "address"
        },
        {
          "indexed": false,
          "internalType": "address",
          "name": "buyer",
          "type": "address"
        },
        {
          "indexed": false,
          "internalType": "uint256",
          "name": "price",
          "type": "uint256"
        }
      ],
      "name": "NFTSold",
      "type": "event"
    },
    {
      "anonymous": false,
      "inputs": [
        {
          "indexed": true,
          "internalType": "address",
          "name": "previousOwner",
          "type": "address"
        },
        {
          "indexed": true,
          "internalType": "address",
          "name": "newOwner",
          "type": "address"
        }
      ],
      "name": "OwnershipTransferred",
      "type": "event"
    },
    {
      "inputs": [],
      "name": "deathKingdomCoin",
      "outputs": [
        {
          "internalType": "contract IERC20",
          "name": "",
          "type": "address"
        }
      ],
      "stateMutability": "view",
      "type": "function",
      "constant": true
    },
    {
      "inputs": [],
      "name": "deno",
      "outputs": [
        {
          "internalType": "uint256",
          "name": "",
          "type": "uint256"
        }
      ],
      "stateMutability": "view",
      "type": "function",
      "constant": true
    },
    {
      "inputs": [],
      "name": "owner",
      "outputs": [
        {
          "internalType": "address",
          "name": "",
          "type": "address"
        }
      ],
      "stateMutability": "view",
      "type": "function",
      "constant": true
    },
    {
      "inputs": [],
      "name": "platformFee",
      "outputs": [
        {
          "internalType": "uint256",
          "name": "",
          "type": "uint256"
        }
      ],
      "stateMutability": "view",
      "type": "function",
      "constant": true
    },
    {
      "inputs": [],
      "name": "renounceOwnership",
      "outputs": [],
      "stateMutability": "nonpayable",
      "type": "function"
    },
    {
      "inputs": [
        {
          "internalType": "address",
          "name": "newOwner",
          "type": "address"
        }
      ],
      "name": "transferOwnership",
      "outputs": [],
      "stateMutability": "nonpayable",
      "type": "function"
    },
    {
      "inputs": [
        {
          "internalType": "address",
          "name": "_nftContract",
          "type": "address"
        },
        {
          "internalType": "uint256",
          "name": "_tokenId",
          "type": "uint256"
        },
        {
          "internalType": "uint256",
          "name": "_price",
          "type": "uint256"
        }
      ],
      "name": "listNft",
      "outputs": [],
      "stateMutability": "nonpayable",
      "type": "function"
    },
    {
      "inputs": [
        {
          "internalType": "uint256",
          "name": "_marketItemId",
          "type": "uint256"
        }
      ],
      "name": "cancelSellNft",
      "outputs": [],
      "stateMutability": "nonpayable",
      "type": "function"
    },
    {
      "inputs": [
        {
          "internalType": "uint256",
          "name": "_marketItemId",
          "type": "uint256"
        }
      ],
      "name": "buyNft",
      "outputs": [],
      "stateMutability": "payable",
      "type": "function",
      "payable": true
    },
    {
      "inputs": [
        {
          "internalType": "uint256",
          "name": "_marketItemId",
          "type": "uint256"
        }
      ],
      "name": "getMarketItem",
      "outputs": [
        {
          "components": [
            {
              "internalType": "uint256",
              "name": "marketItemId",
              "type": "uint256"
            },
            {
              "internalType": "uint256",
              "name": "tokenId",
              "type": "uint256"
            },
            {
              "internalType": "uint256",
              "name": "price",
              "type": "uint256"
            },
            {
              "internalType": "address payable",
              "name": "seller",
              "type": "address"
            },
            {
              "internalType": "address payable",
              "name": "buyer",
              "type": "address"
            },
            {
              "internalType": "address",
              "name": "nftContract",
              "type": "address"
            },
            {
              "internalType": "bool",
              "name": "isSelling",
              "type": "bool"
            }
          ],
          "internalType": "struct Marketplace.NFTMarketItem",
          "name": "",
          "type": "tuple"
        }
      ],
      "stateMutability": "view",
      "type": "function",
      "constant": true
    },
    {
      "inputs": [],
      "name": "getListingNfts",
      "outputs": [
        {
          "components": [
            {
              "internalType": "uint256",
              "name": "marketItemId",
              "type": "uint256"
            },
            {
              "internalType": "uint256",
              "name": "tokenId",
              "type": "uint256"
            },
            {
              "internalType": "uint256",
              "name": "price",
              "type": "uint256"
            },
            {
              "internalType": "address payable",
              "name": "seller",
              "type": "address"
            },
            {
              "internalType": "address payable",
              "name": "buyer",
              "type": "address"
            },
            {
              "internalType": "address",
              "name": "nftContract",
              "type": "address"
            },
            {
              "internalType": "bool",
              "name": "isSelling",
              "type": "bool"
            }
          ],
          "internalType": "struct Marketplace.NFTMarketItem[]",
          "name": "",
          "type": "tuple[]"
        }
      ],
      "stateMutability": "view",
      "type": "function",
      "constant": true
    },
    {
      "inputs": [],
      "name": "getMyListingNfts",
      "outputs": [
        {
          "components": [
            {
              "internalType": "uint256",
              "name": "marketItemId",
              "type": "uint256"
            },
            {
              "internalType": "uint256",
              "name": "tokenId",
              "type": "uint256"
            },
            {
              "internalType": "uint256",
              "name": "price",
              "type": "uint256"
            },
            {
              "internalType": "address payable",
              "name": "seller",
              "type": "address"
            },
            {
              "internalType": "address payable",
              "name": "buyer",
              "type": "address"
            },
            {
              "internalType": "address",
              "name": "nftContract",
              "type": "address"
            },
            {
              "internalType": "bool",
              "name": "isSelling",
              "type": "bool"
            }
          ],
          "internalType": "struct Marketplace.NFTMarketItem[]",
          "name": "",
          "type": "tuple[]"
        }
      ],
      "stateMutability": "view",
      "type": "function",
      "constant": true
    },
    {
      "inputs": [
        {
          "internalType": "uint256",
          "name": "_tokenId",
          "type": "uint256"
        }
      ],
      "name": "getNftSellHistory",
      "outputs": [
        {
          "components": [
            {
              "internalType": "uint256",
              "name": "marketItemId",
              "type": "uint256"
            },
            {
              "internalType": "uint256",
              "name": "tokenId",
              "type": "uint256"
            },
            {
              "internalType": "uint256",
              "name": "price",
              "type": "uint256"
            },
            {
              "internalType": "address payable",
              "name": "seller",
              "type": "address"
            },
            {
              "internalType": "address payable",
              "name": "buyer",
              "type": "address"
            },
            {
              "internalType": "address",
              "name": "nftContract",
              "type": "address"
            },
            {
              "internalType": "bool",
              "name": "isSelling",
              "type": "bool"
            }
          ],
          "internalType": "struct Marketplace.NFTMarketItem[]",
          "name": "",
          "type": "tuple[]"
        }
      ],
      "stateMutability": "view",
      "type": "function",
      "constant": true
    }
  ],
  "bytecode": "0x608060405260196005556103e86006553480156200001c57600080fd5b50604051620030de380380620030de8339818101604052810190620000429190620001ea565b60016000819055506200006a6200005e620000b260201b60201c565b620000ba60201b60201c565b80600460006101000a81548173ffffffffffffffffffffffffffffffffffffffff021916908373ffffffffffffffffffffffffffffffffffffffff160217905550506200021c565b600033905090565b6000600160009054906101000a900473ffffffffffffffffffffffffffffffffffffffff16905081600160006101000a81548173ffffffffffffffffffffffffffffffffffffffff021916908373ffffffffffffffffffffffffffffffffffffffff1602179055508173ffffffffffffffffffffffffffffffffffffffff168173ffffffffffffffffffffffffffffffffffffffff167f8be0079c531659141344cd1fd0a4f28419497f9722a3daafe3b4186f6b6457e060405160405180910390a35050565b600080fd5b600073ffffffffffffffffffffffffffffffffffffffff82169050919050565b6000620001b28262000185565b9050919050565b620001c481620001a5565b8114620001d057600080fd5b50565b600081519050620001e481620001b9565b92915050565b60006020828403121562000203576200020262000180565b5b60006200021384828501620001d3565b91505092915050565b612eb2806200022c6000396000f3fe6080604052600436106100c25760003560e01c8063715018a61161007f578063c7be7a4911610059578063c7be7a4914610225578063c922b17c14610262578063d34c127e1461028b578063f2fde38b146102c8576100c2565b8063715018a6146101b85780638da5cb5b146101cf5780639fee5bc6146101fa576100c2565b806314d889cf146100c7578063243adbdd146100f257806326232a2e1461010e578063443c2fd7146101395780634cb558761461016457806359f482711461018f575b600080fd5b3480156100d357600080fd5b506100dc6102f1565b6040516100e991906120d3565b60405180910390f35b61010c60048036038101906101079190612129565b610317565b005b34801561011a57600080fd5b50610123610b50565b6040516101309190612165565b60405180910390f35b34801561014557600080fd5b5061014e610b56565b60405161015b9190612329565b60405180910390f35b34801561017057600080fd5b50610179610dc8565b6040516101869190612329565b60405180910390f35b34801561019b57600080fd5b506101b660048036038101906101b19190612129565b611177565b005b3480156101c457600080fd5b506101cd611484565b005b3480156101db57600080fd5b506101e461150c565b6040516101f1919061235a565b60405180910390f35b34801561020657600080fd5b5061020f611536565b60405161021c9190612165565b60405180910390f35b34801561023157600080fd5b5061024c60048036038101906102479190612129565b61153c565b6040516102599190612403565b60405180910390f35b34801561026e57600080fd5b506102896004803603810190610284919061244a565b611735565b005b34801561029757600080fd5b506102b260048036038101906102ad9190612129565b611acf565b6040516102bf9190612329565b60405180910390f35b3480156102d457600080fd5b506102ef60048036038101906102ea919061249d565b611dea565b005b600460009054906101000a900473ffffffffffffffffffffffffffffffffffffffff1681565b806000811161035b576040517f08c379a000000000000000000000000000000000000000000000000000000000815260040161035290612527565b60405180910390fd5b6103656002611ee1565b8111156103a7576040517f08c379a000000000000000000000000000000000000000000000000000000000815260040161039e90612593565b60405180910390fd5b6000600760008481526020019081526020016000209050600115158160050160149054906101000a900460ff16151514610416576040517f08c379a000000000000000000000000000000000000000000000000000000000815260040161040d906125ff565b60405180910390fd5b3373ffffffffffffffffffffffffffffffffffffffff168160030160009054906101000a900473ffffffffffffffffffffffffffffffffffffffff1673ffffffffffffffffffffffffffffffffffffffff16036104a8576040517f08c379a000000000000000000000000000000000000000000000000000000000815260040161049f9061266b565b60405180910390fd5b6000816002015490506000600654600554836104c491906126ba565b6104ce9190612743565b90506000600460009054906101000a900473ffffffffffffffffffffffffffffffffffffffff1673ffffffffffffffffffffffffffffffffffffffff166370a08231336040518263ffffffff1660e01b815260040161052d919061235a565b602060405180830381865afa15801561054a573d6000803e3d6000fd5b505050506040513d601f19601f8201168201806040525081019061056e9190612789565b9050828110156105b3576040517f08c379a00000000000000000000000000000000000000000000000000000000081526004016105aa90612828565b60405180910390fd5b6000600460009054906101000a900473ffffffffffffffffffffffffffffffffffffffff1673ffffffffffffffffffffffffffffffffffffffff1663dd62ed3e33306040518363ffffffff1660e01b8152600401610612929190612848565b602060405180830381865afa15801561062f573d6000803e3d6000fd5b505050506040513d601f19601f820116820180604052508101906106539190612789565b905083811015610698576040517f08c379a000000000000000000000000000000000000000000000000000000000815260040161068f906128e3565b60405180910390fd5b600460009054906101000a900473ffffffffffffffffffffffffffffffffffffffff1673ffffffffffffffffffffffffffffffffffffffff166323b872dd3330876040518463ffffffff1660e01b81526004016106f793929190612903565b6020604051808303816000875af1158015610716573d6000803e3d6000fd5b505050506040513d601f19601f8201168201806040525081019061073a9190612966565b50600460009054906101000a900473ffffffffffffffffffffffffffffffffffffffff1673ffffffffffffffffffffffffffffffffffffffff1663a9059cbb8660030160009054906101000a900473ffffffffffffffffffffffffffffffffffffffff1685876107aa9190612993565b6040518363ffffffff1660e01b81526004016107c79291906129e8565b6020604051808303816000875af11580156107e6573d6000803e3d6000fd5b505050506040513d601f19601f8201168201806040525081019061080a9190612966565b50600460009054906101000a900473ffffffffffffffffffffffffffffffffffffffff1673ffffffffffffffffffffffffffffffffffffffff1663a9059cbb61085161150c565b600460009054906101000a900473ffffffffffffffffffffffffffffffffffffffff1673ffffffffffffffffffffffffffffffffffffffff166370a08231306040518263ffffffff1660e01b81526004016108ac919061235a565b602060405180830381865afa1580156108c9573d6000803e3d6000fd5b505050506040513d601f19601f820116820180604052508101906108ed9190612789565b6040518363ffffffff1660e01b815260040161090a929190612a11565b6020604051808303816000875af1158015610929573d6000803e3d6000fd5b505050506040513d601f19601f8201168201806040525081019061094d9190612966565b50338560040160006101000a81548173ffffffffffffffffffffffffffffffffffffffff021916908373ffffffffffffffffffffffffffffffffffffffff16021790555061099b6003611eef565b8460050160009054906101000a900473ffffffffffffffffffffffffffffffffffffffff1673ffffffffffffffffffffffffffffffffffffffff166323b872dd303388600101546040518463ffffffff1660e01b8152600401610a0093929190612903565b600060405180830381600087803b158015610a1a57600080fd5b505af1158015610a2e573d6000803e3d6000fd5b5050505060008560050160146101000a81548160ff021916908315150217905550338560040160006101000a81548173ffffffffffffffffffffffffffffffffffffffff021916908373ffffffffffffffffffffffffffffffffffffffff1602179055507ffbd14ef83c9e36d4cd05cdc496d3b3a07da3041679b4142908d0ef3cef210dc485600001548660050160009054906101000a900473ffffffffffffffffffffffffffffffffffffffff1687600101548860030160009054906101000a900473ffffffffffffffffffffffffffffffffffffffff168960040160009054906101000a900473ffffffffffffffffffffffffffffffffffffffff1689604051610b3f96959493929190612a3a565b60405180910390a150505050505050565b60055481565b60606000610b646002611ee1565b90506000610b726003611ee1565b82610b7d9190612993565b905060008167ffffffffffffffff811115610b9b57610b9a612a9b565b5b604051908082528060200260200182016040528015610bd457816020015b610bc1611fd3565b815260200190600190039081610bb95790505b5090506000805b84811015610dbd5760076000600183610bf49190612aca565b815260200190815260200160002060050160149054906101000a900460ff1615610daa5760076000600183610c299190612aca565b81526020019081526020016000206040518060e00160405290816000820154815260200160018201548152602001600282015481526020016003820160009054906101000a900473ffffffffffffffffffffffffffffffffffffffff1673ffffffffffffffffffffffffffffffffffffffff1673ffffffffffffffffffffffffffffffffffffffff1681526020016004820160009054906101000a900473ffffffffffffffffffffffffffffffffffffffff1673ffffffffffffffffffffffffffffffffffffffff1673ffffffffffffffffffffffffffffffffffffffff1681526020016005820160009054906101000a900473ffffffffffffffffffffffffffffffffffffffff1673ffffffffffffffffffffffffffffffffffffffff1673ffffffffffffffffffffffffffffffffffffffff1681526020016005820160149054906101000a900460ff161515151581525050838381518110610d9057610d8f612b20565b5b60200260200101819052508180610da690612b4f565b9250505b8080610db590612b4f565b915050610bdb565b508194505050505090565b60606000610dd66002611ee1565b90506000805b82811015610eb4573373ffffffffffffffffffffffffffffffffffffffff1660076000600184610e0c9190612aca565b815260200190815260200160002060030160009054906101000a900473ffffffffffffffffffffffffffffffffffffffff1673ffffffffffffffffffffffffffffffffffffffff16148015610e8d575060076000600183610e6d9190612aca565b815260200190815260200160002060050160149054906101000a900460ff165b15610ea1578180610e9d90612b4f565b9250505b8080610eac90612b4f565b915050610ddc565b5060008167ffffffffffffffff811115610ed157610ed0612a9b565b5b604051908082528060200260200182016040528015610f0a57816020015b610ef7611fd3565b815260200190600190039081610eef5790505b5090506000805b8481101561116c573373ffffffffffffffffffffffffffffffffffffffff1660076000600184610f419190612aca565b815260200190815260200160002060030160009054906101000a900473ffffffffffffffffffffffffffffffffffffffff1673ffffffffffffffffffffffffffffffffffffffff16148015610fc2575060076000600183610fa29190612aca565b815260200190815260200160002060050160149054906101000a900460ff165b156111595760076000600183610fd89190612aca565b81526020019081526020016000206040518060e00160405290816000820154815260200160018201548152602001600282015481526020016003820160009054906101000a900473ffffffffffffffffffffffffffffffffffffffff1673ffffffffffffffffffffffffffffffffffffffff1673ffffffffffffffffffffffffffffffffffffffff1681526020016004820160009054906101000a900473ffffffffffffffffffffffffffffffffffffffff1673ffffffffffffffffffffffffffffffffffffffff1673ffffffffffffffffffffffffffffffffffffffff1681526020016005820160009054906101000a900473ffffffffffffffffffffffffffffffffffffffff1673ffffffffffffffffffffffffffffffffffffffff1673ffffffffffffffffffffffffffffffffffffffff1681526020016005820160149054906101000a900460ff16151515158152505083838151811061113f5761113e612b20565b5b6020026020010181905250818061115590612b4f565b9250505b808061116490612b4f565b915050610f11565b508194505050505090565b80600081116111bb576040517f08c379a00000000000000000000000000000000000000000000000000000000081526004016111b290612527565b60405180910390fd5b6111c56002611ee1565b811115611207576040517f08c379a00000000000000000000000000000000000000000000000000000000081526004016111fe90612593565b60405180910390fd5b60006007600084815260200190815260200160002090508060030160009054906101000a900473ffffffffffffffffffffffffffffffffffffffff1673ffffffffffffffffffffffffffffffffffffffff163373ffffffffffffffffffffffffffffffffffffffff16146112b0576040517f08c379a00000000000000000000000000000000000000000000000000000000081526004016112a790612be3565b60405180910390fd5b600115158160050160149054906101000a900460ff16151514611308576040517f08c379a00000000000000000000000000000000000000000000000000000000081526004016112ff906125ff565b60405180910390fd5b60008160050160146101000a81548160ff0219169083151502179055508060050160009054906101000a900473ffffffffffffffffffffffffffffffffffffffff1673ffffffffffffffffffffffffffffffffffffffff166323b872dd303384600101546040518463ffffffff1660e01b815260040161138a93929190612903565b600060405180830381600087803b1580156113a457600080fd5b505af11580156113b8573d6000803e3d6000fd5b505050506113c66003611eef565b7f59c5c697698d4245f5931b2d83da5c09c16445194cb3e1adf9cef2cc3b9d722b81600001548260050160009054906101000a900473ffffffffffffffffffffffffffffffffffffffff1683600101548460030160009054906101000a900473ffffffffffffffffffffffffffffffffffffffff168560040160009054906101000a900473ffffffffffffffffffffffffffffffffffffffff16866002015460405161147796959493929190612a3a565b60405180910390a1505050565b61148c611f05565b73ffffffffffffffffffffffffffffffffffffffff166114aa61150c565b73ffffffffffffffffffffffffffffffffffffffff1614611500576040517f08c379a00000000000000000000000000000000000000000000000000000000081526004016114f790612c4f565b60405180910390fd5b61150a6000611f0d565b565b6000600160009054906101000a900473ffffffffffffffffffffffffffffffffffffffff16905090565b60065481565b611544611fd3565b8160008111611588576040517f08c379a000000000000000000000000000000000000000000000000000000000815260040161157f90612527565b60405180910390fd5b6115926002611ee1565b8111156115d4576040517f08c379a00000000000000000000000000000000000000000000000000000000081526004016115cb90612593565b60405180910390fd5b600760008481526020019081526020016000206040518060e00160405290816000820154815260200160018201548152602001600282015481526020016003820160009054906101000a900473ffffffffffffffffffffffffffffffffffffffff1673ffffffffffffffffffffffffffffffffffffffff1673ffffffffffffffffffffffffffffffffffffffff1681526020016004820160009054906101000a900473ffffffffffffffffffffffffffffffffffffffff1673ffffffffffffffffffffffffffffffffffffffff1673ffffffffffffffffffffffffffffffffffffffff1681526020016005820160009054906101000a900473ffffffffffffffffffffffffffffffffffffffff1673ffffffffffffffffffffffffffffffffffffffff1673ffffffffffffffffffffffffffffffffffffffff1681526020016005820160149054906101000a900460ff161515151581525050915050919050565b60008111611778576040517f08c379a000000000000000000000000000000000000000000000000000000000815260040161176f90612cbb565b60405180910390fd5b3373ffffffffffffffffffffffffffffffffffffffff168373ffffffffffffffffffffffffffffffffffffffff16636352211e846040518263ffffffff1660e01b81526004016117c89190612165565b602060405180830381865afa1580156117e5573d6000803e3d6000fd5b505050506040513d601f19601f820116820180604052508101906118099190612cf0565b73ffffffffffffffffffffffffffffffffffffffff161461185f576040517f08c379a000000000000000000000000000000000000000000000000000000000815260040161185690612d69565b60405180910390fd5b6118696002611eef565b60006118756002611ee1565b90506040518060e001604052808281526020018481526020018381526020013373ffffffffffffffffffffffffffffffffffffffff168152602001600073ffffffffffffffffffffffffffffffffffffffff1681526020018573ffffffffffffffffffffffffffffffffffffffff168152602001600115158152506007600083815260200190815260200160002060008201518160000155602082015181600101556040820151816002015560608201518160030160006101000a81548173ffffffffffffffffffffffffffffffffffffffff021916908373ffffffffffffffffffffffffffffffffffffffff16021790555060808201518160040160006101000a81548173ffffffffffffffffffffffffffffffffffffffff021916908373ffffffffffffffffffffffffffffffffffffffff16021790555060a08201518160050160006101000a81548173ffffffffffffffffffffffffffffffffffffffff021916908373ffffffffffffffffffffffffffffffffffffffff16021790555060c08201518160050160146101000a81548160ff0219169083151502179055509050508373ffffffffffffffffffffffffffffffffffffffff166323b872dd3330866040518463ffffffff1660e01b8152600401611a5693929190612903565b600060405180830381600087803b158015611a7057600080fd5b505af1158015611a84573d6000803e3d6000fd5b505050507f837b3a4a47f6aedac2e74f9f4be36ee333052be462fd01f2282e34cfd3a158a6818585333087604051611ac196959493929190612d89565b60405180910390a150505050565b60606000611add6002611ee1565b90506000805b82811015611b70578460076000600184611afd9190612aca565b815260200190815260200160002060010154148015611b49575060076000600183611b289190612aca565b815260200190815260200160002060050160149054906101000a900460ff16155b15611b5d578180611b5990612b4f565b9250505b8080611b6890612b4f565b915050611ae3565b5060008167ffffffffffffffff811115611b8d57611b8c612a9b565b5b604051908082528060200260200182016040528015611bc657816020015b611bb3611fd3565b815260200190600190039081611bab5790505b5090506000805b84811015611ddd578660076000600184611be79190612aca565b815260200190815260200160002060010154148015611c33575060076000600183611c129190612aca565b815260200190815260200160002060050160149054906101000a900460ff16155b15611dca5760076000600183611c499190612aca565b81526020019081526020016000206040518060e00160405290816000820154815260200160018201548152602001600282015481526020016003820160009054906101000a900473ffffffffffffffffffffffffffffffffffffffff1673ffffffffffffffffffffffffffffffffffffffff1673ffffffffffffffffffffffffffffffffffffffff1681526020016004820160009054906101000a900473ffffffffffffffffffffffffffffffffffffffff1673ffffffffffffffffffffffffffffffffffffffff1673ffffffffffffffffffffffffffffffffffffffff1681526020016005820160009054906101000a900473ffffffffffffffffffffffffffffffffffffffff1673ffffffffffffffffffffffffffffffffffffffff1673ffffffffffffffffffffffffffffffffffffffff1681526020016005820160149054906101000a900460ff161515151581525050838381518110611db057611daf612b20565b5b60200260200101819052508180611dc690612b4f565b9250505b8080611dd590612b4f565b915050611bcd565b5081945050505050919050565b611df2611f05565b73ffffffffffffffffffffffffffffffffffffffff16611e1061150c565b73ffffffffffffffffffffffffffffffffffffffff1614611e66576040517f08c379a0000000000000000000000000000000000000000000000000000000008152600401611e5d90612c4f565b60405180910390fd5b600073ffffffffffffffffffffffffffffffffffffffff168173ffffffffffffffffffffffffffffffffffffffff1603611ed5576040517f08c379a0000000000000000000000000000000000000000000000000000000008152600401611ecc90612e5c565b60405180910390fd5b611ede81611f0d565b50565b600081600001549050919050565b6001816000016000828254019250508190555050565b600033905090565b6000600160009054906101000a900473ffffffffffffffffffffffffffffffffffffffff16905081600160006101000a81548173ffffffffffffffffffffffffffffffffffffffff021916908373ffffffffffffffffffffffffffffffffffffffff1602179055508173ffffffffffffffffffffffffffffffffffffffff168173ffffffffffffffffffffffffffffffffffffffff167f8be0079c531659141344cd1fd0a4f28419497f9722a3daafe3b4186f6b6457e060405160405180910390a35050565b6040518060e00160405280600081526020016000815260200160008152602001600073ffffffffffffffffffffffffffffffffffffffff168152602001600073ffffffffffffffffffffffffffffffffffffffff168152602001600073ffffffffffffffffffffffffffffffffffffffff1681526020016000151581525090565b600073ffffffffffffffffffffffffffffffffffffffff82169050919050565b6000819050919050565b600061209961209461208f84612054565b612074565b612054565b9050919050565b60006120ab8261207e565b9050919050565b60006120bd826120a0565b9050919050565b6120cd816120b2565b82525050565b60006020820190506120e860008301846120c4565b92915050565b600080fd5b6000819050919050565b612106816120f3565b811461211157600080fd5b50565b600081359050612123816120fd565b92915050565b60006020828403121561213f5761213e6120ee565b5b600061214d84828501612114565b91505092915050565b61215f816120f3565b82525050565b600060208201905061217a6000830184612156565b92915050565b600081519050919050565b600082825260208201905092915050565b6000819050602082019050919050565b6121b5816120f3565b82525050565b60006121c682612054565b9050919050565b6121d6816121bb565b82525050565b60006121e782612054565b9050919050565b6121f7816121dc565b82525050565b60008115159050919050565b612212816121fd565b82525050565b60e08201600082015161222e60008501826121ac565b50602082015161224160208501826121ac565b50604082015161225460408501826121ac565b50606082015161226760608501826121cd565b50608082015161227a60808501826121cd565b5060a082015161228d60a08501826121ee565b5060c08201516122a060c0850182612209565b50505050565b60006122b28383612218565b60e08301905092915050565b6000602082019050919050565b60006122d682612180565b6122e0818561218b565b93506122eb8361219c565b8060005b8381101561231c57815161230388826122a6565b975061230e836122be565b9250506001810190506122ef565b5085935050505092915050565b6000602082019050818103600083015261234381846122cb565b905092915050565b612354816121dc565b82525050565b600060208201905061236f600083018461234b565b92915050565b60e08201600082015161238b60008501826121ac565b50602082015161239e60208501826121ac565b5060408201516123b160408501826121ac565b5060608201516123c460608501826121cd565b5060808201516123d760808501826121cd565b5060a08201516123ea60a08501826121ee565b5060c08201516123fd60c0850182612209565b50505050565b600060e0820190506124186000830184612375565b92915050565b612427816121dc565b811461243257600080fd5b50565b6000813590506124448161241e565b92915050565b600080600060608486031215612463576124626120ee565b5b600061247186828701612435565b935050602061248286828701612114565b925050604061249386828701612114565b9150509250925092565b6000602082840312156124b3576124b26120ee565b5b60006124c184828501612435565b91505092915050565b600082825260208201905092915050565b7f4d61726b65744974656d49642073686f756c64206265203e2030000000000000600082015250565b6000612511601a836124ca565b915061251c826124db565b602082019050919050565b6000602082019050818103600083015261254081612504565b9050919050565b7f4d61726b65744974656d49642073686f756c6420626520657869737400000000600082015250565b600061257d601c836124ca565b915061258882612547565b602082019050919050565b600060208201905081810360008301526125ac81612570565b9050919050565b7f4e4654206973206e6f742053656c6c696e670000000000000000000000000000600082015250565b60006125e96012836124ca565b91506125f4826125b3565b602082019050919050565b60006020820190508181036000830152612618816125dc565b9050919050565b7f596f752063616e206e6f742062757920796f7572206f776e204e465400000000600082015250565b6000612655601c836124ca565b91506126608261261f565b602082019050919050565b6000602082019050818103600083015261268481612648565b9050919050565b7f4e487b7100000000000000000000000000000000000000000000000000000000600052601160045260246000fd5b60006126c5826120f3565b91506126d0836120f3565b9250817fffffffffffffffffffffffffffffffffffffffffffffffffffffffffffffffff04831182151516156127095761270861268b565b5b828202905092915050565b7f4e487b7100000000000000000000000000000000000000000000000000000000600052601260045260246000fd5b600061274e826120f3565b9150612759836120f3565b92508261276957612768612714565b5b828204905092915050565b600081519050612783816120fd565b92915050565b60006020828403121561279f5761279e6120ee565b5b60006127ad84828501612774565b91505092915050565b7f596f7520646f206e6f74206861766520656e6f75676820444b4320746f20627560008201527f792074686973204e465400000000000000000000000000000000000000000000602082015250565b6000612812602a836124ca565b915061281d826127b6565b604082019050919050565b6000602082019050818103600083015261284181612805565b9050919050565b600060408201905061285d600083018561234b565b61286a602083018461234b565b9392505050565b7f596f7520646f206e6f7420617070726f766520656e6f75676820444b4320746f60008201527f206275792074686973204e465400000000000000000000000000000000000000602082015250565b60006128cd602d836124ca565b91506128d882612871565b604082019050919050565b600060208201905081810360008301526128fc816128c0565b9050919050565b6000606082019050612918600083018661234b565b612925602083018561234b565b6129326040830184612156565b949350505050565b612943816121fd565b811461294e57600080fd5b50565b6000815190506129608161293a565b92915050565b60006020828403121561297c5761297b6120ee565b5b600061298a84828501612951565b91505092915050565b600061299e826120f3565b91506129a9836120f3565b9250828210156129bc576129bb61268b565b5b828203905092915050565b60006129d2826120a0565b9050919050565b6129e2816129c7565b82525050565b60006040820190506129fd60008301856129d9565b612a0a6020830184612156565b9392505050565b6000604082019050612a26600083018561234b565b612a336020830184612156565b9392505050565b600060c082019050612a4f6000830189612156565b612a5c602083018861234b565b612a696040830187612156565b612a7660608301866129d9565b612a8360808301856129d9565b612a9060a0830184612156565b979650505050505050565b7f4e487b7100000000000000000000000000000000000000000000000000000000600052604160045260246000fd5b6000612ad5826120f3565b9150612ae0836120f3565b9250827fffffffffffffffffffffffffffffffffffffffffffffffffffffffffffffffff03821115612b1557612b1461268b565b5b828201905092915050565b7f4e487b7100000000000000000000000000000000000000000000000000000000600052603260045260246000fd5b6000612b5a826120f3565b91507fffffffffffffffffffffffffffffffffffffffffffffffffffffffffffffffff8203612b8c57612b8b61268b565b5b600182019050919050565b7f596f7520617265206e6f74204e46542773204f776e6572000000000000000000600082015250565b6000612bcd6017836124ca565b9150612bd882612b97565b602082019050919050565b60006020820190508181036000830152612bfc81612bc0565b9050919050565b7f4f776e61626c653a2063616c6c6572206973206e6f7420746865206f776e6572600082015250565b6000612c396020836124ca565b9150612c4482612c03565b602082019050919050565b60006020820190508181036000830152612c6881612c2c565b9050919050565b7f5072696365206d757374203e2030000000000000000000000000000000000000600082015250565b6000612ca5600e836124ca565b9150612cb082612c6f565b602082019050919050565b60006020820190508181036000830152612cd481612c98565b9050919050565b600081519050612cea8161241e565b92915050565b600060208284031215612d0657612d056120ee565b5b6000612d1484828501612cdb565b91505092915050565b7f596f7520617265206e6f74204e46542773206f776e6572000000000000000000600082015250565b6000612d536017836124ca565b9150612d5e82612d1d565b602082019050919050565b60006020820190508181036000830152612d8281612d46565b9050919050565b600060c082019050612d9e6000830189612156565b612dab602083018861234b565b612db86040830187612156565b612dc5606083018661234b565b612dd2608083018561234b565b612ddf60a0830184612156565b979650505050505050565b7f4f776e61626c653a206e6577206f776e657220697320746865207a65726f206160008201527f6464726573730000000000000000000000000000000000000000000000000000602082015250565b6000612e466026836124ca565b9150612e5182612dea565b604082019050919050565b60006020820190508181036000830152612e7581612e39565b905091905056fea26469706673582212206e05cacdc356bf3f233243caf3022b0b9f1228944d52aad5c47f07c8d0d3453d64736f6c634300080d0033",
  "immutableReferences": {},
  "source": "// SPDX-License-Identifier: MIT\r\n\r\npragma solidity ^0.8.13;\r\n\r\nimport \"@openzeppelin/contracts/utils/Counters.sol\";\r\nimport \"@openzeppelin/contracts/token/ERC20/IERC20.sol\";\r\nimport \"@openzeppelin/contracts/token/ERC721/IERC721.sol\";\r\nimport \"@openzeppelin/contracts/security/ReentrancyGuard.sol\";\r\nimport \"@openzeppelin/contracts/access/Ownable.sol\";\r\n\r\ncontract Marketplace is ReentrancyGuard, Ownable {\r\n    using Counters for Counters.Counter;\r\n    Counters.Counter private _marketItemIds;\r\n    Counters.Counter private _nftSold;\r\n    IERC20 public deathKingdomCoin;\r\n    uint256 public platformFee = 25;\r\n    uint256 public deno = 1000;\r\n\r\n    mapping(uint256 => NFTMarketItem) private marketItems;\r\n\r\n    constructor(address _deathKingdomCoinContract) {\r\n        deathKingdomCoin = IERC20(_deathKingdomCoinContract);\r\n    }\r\n\r\n    struct NFTMarketItem {\r\n        uint256 marketItemId;\r\n        uint256 tokenId;\r\n        uint256 price;\r\n        address payable seller;\r\n        address payable buyer;\r\n        address nftContract;\r\n        bool isSelling;\r\n    }\r\n\r\n    event NFTListed(\r\n        uint256 marketItemId,\r\n        address nftContract,\r\n        uint256 tokenId,\r\n        address seller,\r\n        address buyer,\r\n        uint256 price\r\n    );\r\n\r\n    event NFTSaleCanceled(\r\n        uint256 marketItemId,\r\n        address nftContract,\r\n        uint256 tokenId,\r\n        address seller,\r\n        address buyer,\r\n        uint256 price\r\n    );\r\n\r\n    event NFTSold(\r\n        uint256 marketItemId,\r\n        address nftContract,\r\n        uint256 tokenId,\r\n        address seller,\r\n        address buyer,\r\n        uint256 price\r\n    );\r\n\r\n    modifier marketplaceItemExist(uint256 _marketplaceItemId) {\r\n        require(_marketplaceItemId > 0, \"MarketItemId should be > 0\");\r\n        require(\r\n            _marketplaceItemId <= _marketItemIds.current(),\r\n            \"MarketItemId should be exist\"\r\n        );\r\n        _;\r\n    }\r\n\r\n    function listNft(\r\n        address _nftContract,\r\n        uint256 _tokenId,\r\n        uint256 _price\r\n    ) public {\r\n        require(_price > 0, \"Price must > 0\");\r\n        require(\r\n            IERC721(_nftContract).ownerOf(_tokenId) == msg.sender,\r\n            \"You are not NFT's owner\"\r\n        );\r\n        _marketItemIds.increment();\r\n        uint256 marketItemId = _marketItemIds.current();\r\n\r\n        marketItems[marketItemId] = NFTMarketItem(\r\n            marketItemId,\r\n            _tokenId,\r\n            _price,\r\n            payable(msg.sender),\r\n            payable(address(0)),\r\n            _nftContract,\r\n            true\r\n        );\r\n        IERC721(_nftContract).transferFrom(msg.sender, address(this), _tokenId);\r\n        emit NFTListed(\r\n            marketItemId,\r\n            _nftContract,\r\n            _tokenId,\r\n            msg.sender,\r\n            address(this),\r\n            _price\r\n        );\r\n    }\r\n\r\n    function cancelSellNft(uint256 _marketItemId)\r\n        public\r\n        marketplaceItemExist(_marketItemId)\r\n    {\r\n        NFTMarketItem storage nftMarketItem = marketItems[_marketItemId];\r\n        require(msg.sender == nftMarketItem.seller, \"You are not NFT's Owner\");\r\n        require(nftMarketItem.isSelling == true, \"NFT is not Selling\");\r\n        nftMarketItem.isSelling = false;\r\n        IERC721(nftMarketItem.nftContract).transferFrom(\r\n            address(this),\r\n            msg.sender,\r\n            nftMarketItem.tokenId\r\n        );\r\n        _nftSold.increment();\r\n        emit NFTSaleCanceled(\r\n            nftMarketItem.marketItemId,\r\n            nftMarketItem.nftContract,\r\n            nftMarketItem.tokenId,\r\n            nftMarketItem.seller,\r\n            nftMarketItem.buyer,\r\n            nftMarketItem.price\r\n        );\r\n    }\r\n\r\n    function buyNft(uint256 _marketItemId)\r\n        public\r\n        payable\r\n        marketplaceItemExist(_marketItemId)\r\n    {\r\n        NFTMarketItem storage nftMarketItem = marketItems[_marketItemId];\r\n        require(nftMarketItem.isSelling == true, \"NFT is not Selling\");\r\n        require(\r\n            nftMarketItem.seller != msg.sender,\r\n            \"You can not buy your own NFT\"\r\n        );\r\n\r\n        uint256 price = nftMarketItem.price;\r\n        uint256 marketFee = (price * platformFee) / deno;\r\n\r\n        uint256 senderBalance = deathKingdomCoin.balanceOf(msg.sender);\r\n        require(\r\n            senderBalance >= price,\r\n            \"You do not have enough DKC to buy this NFT\"\r\n        );\r\n\r\n        uint256 allowance = deathKingdomCoin.allowance(\r\n            msg.sender,\r\n            address(this)\r\n        );\r\n        require(\r\n            allowance >= price,\r\n            \"You do not approve enough DKC to buy this NFT\"\r\n        );\r\n\r\n        deathKingdomCoin.transferFrom(msg.sender, address(this), price);\r\n\r\n        deathKingdomCoin.transfer(nftMarketItem.seller, price - marketFee);\r\n\r\n        deathKingdomCoin.transfer(\r\n            owner(),\r\n            deathKingdomCoin.balanceOf(address(this))\r\n        );\r\n\r\n        nftMarketItem.buyer = payable(msg.sender);\r\n        _nftSold.increment();\r\n\r\n        IERC721(nftMarketItem.nftContract).transferFrom(\r\n            address(this),\r\n            msg.sender,\r\n            nftMarketItem.tokenId\r\n        );\r\n\r\n        nftMarketItem.isSelling = false;\r\n        nftMarketItem.buyer = payable(msg.sender);\r\n\r\n        emit NFTSold(\r\n            nftMarketItem.marketItemId,\r\n            nftMarketItem.nftContract,\r\n            nftMarketItem.tokenId,\r\n            nftMarketItem.seller,\r\n            nftMarketItem.buyer,\r\n            price\r\n        );\r\n    }\r\n\r\n    function getMarketItem(uint256 _marketItemId)\r\n        public\r\n        view\r\n        marketplaceItemExist(_marketItemId)\r\n        returns (NFTMarketItem memory)\r\n    {\r\n        return marketItems[_marketItemId];\r\n    }\r\n\r\n    function getListingNfts() public view returns (NFTMarketItem[] memory) {\r\n        uint256 nftCount = _marketItemIds.current();\r\n        uint256 unsoldNftsCount = nftCount - _nftSold.current();\r\n\r\n        NFTMarketItem[] memory nfts = new NFTMarketItem[](unsoldNftsCount);\r\n        uint256 nftsIndex = 0;\r\n        for (uint256 i = 0; i < nftCount; i++) {\r\n            if (marketItems[i + 1].isSelling) {\r\n                nfts[nftsIndex] = marketItems[i + 1];\r\n                nftsIndex++;\r\n            }\r\n        }\r\n        return nfts;\r\n    }\r\n\r\n    function getMyListingNfts() public view returns (NFTMarketItem[] memory) {\r\n        uint256 nftCount = _marketItemIds.current();\r\n        uint256 myListingNftCount = 0;\r\n        for (uint256 i = 0; i < nftCount; i++) {\r\n            if (\r\n                marketItems[i + 1].seller == msg.sender &&\r\n                marketItems[i + 1].isSelling\r\n            ) {\r\n                myListingNftCount++;\r\n            }\r\n        }\r\n\r\n        NFTMarketItem[] memory nfts = new NFTMarketItem[](myListingNftCount);\r\n        uint256 nftsIndex = 0;\r\n        for (uint256 i = 0; i < nftCount; i++) {\r\n            if (\r\n                marketItems[i + 1].seller == msg.sender &&\r\n                marketItems[i + 1].isSelling\r\n            ) {\r\n                nfts[nftsIndex] = marketItems[i + 1];\r\n                nftsIndex++;\r\n            }\r\n        }\r\n        return nfts;\r\n    }\r\n\r\n    function getNftSellHistory(uint256 _tokenId)\r\n        public\r\n        view\r\n        returns (NFTMarketItem[] memory)\r\n    {\r\n        uint256 nftCount = _marketItemIds.current();\r\n        uint256 nftSellHistoryCount = 0;\r\n        for (uint256 i = 0; i < nftCount; i++) {\r\n            if (\r\n                marketItems[i + 1].tokenId == _tokenId &&\r\n                !marketItems[i + 1].isSelling\r\n            ) {\r\n                nftSellHistoryCount++;\r\n            }\r\n        }\r\n\r\n        NFTMarketItem[] memory nfts = new NFTMarketItem[](nftSellHistoryCount);\r\n        uint256 nftsIndex = 0;\r\n        for (uint256 i = 0; i < nftCount; i++) {\r\n            if (\r\n                marketItems[i + 1].tokenId == _tokenId &&\r\n                !marketItems[i + 1].isSelling\r\n            ) {\r\n                nfts[nftsIndex] = marketItems[i + 1];\r\n                nftsIndex++;\r\n            }\r\n        }\r\n        return nfts;\r\n    }\r\n}\r\n",
  "sourcePath": "D:\\code\\TheDeadKingdom\\Contract\\contracts\\ethereum\\Marketplace.sol",
  "compiler": {
    "name": "solc",
    "version": "0.8.13+commit.abaa5c0e.Emscripten.clang"
  },
  "schemaVersion": "3.4.7",
  "updatedAt": "2022-08-20T16:22:29.212Z",
  "networkType": "ethereum",
  "devdoc": {
    "kind": "dev",
    "methods": {
      "owner()": {
        "details": "Returns the address of the current owner."
      },
      "renounceOwnership()": {
        "details": "Leaves the contract without owner. It will not be possible to call `onlyOwner` functions anymore. Can only be called by the current owner. NOTE: Renouncing ownership will leave the contract without an owner, thereby removing any functionality that is only available to the owner."
      },
      "transferOwnership(address)": {
        "details": "Transfers ownership of the contract to a new account (`newOwner`). Can only be called by the current owner."
      }
    },
    "version": 1
  },
  "userdoc": {
    "kind": "user",
    "methods": {},
    "version": 1
  }
}