{
  "contractName": "Marketplace",
  "abi": [
    {
      "inputs": [
        {
          "internalType": "address",
          "name": "_deathKingdomCoinContract",
          "type": "address"
        }
      ],
      "stateMutability": "nonpayable",
      "type": "constructor"
    },
    {
      "anonymous": false,
      "inputs": [
        {
          "indexed": false,
          "internalType": "uint256",
          "name": "marketItemId",
          "type": "uint256"
        },
        {
          "indexed": false,
          "internalType": "address",
          "name": "nftContract",
          "type": "address"
        },
        {
          "indexed": false,
          "internalType": "uint256",
          "name": "tokenId",
          "type": "uint256"
        },
        {
          "indexed": false,
          "internalType": "address",
          "name": "seller",
          "type": "address"
        },
        {
          "indexed": false,
          "internalType": "address",
          "name": "buyer",
          "type": "address"
        },
        {
          "indexed": false,
          "internalType": "uint256",
          "name": "price",
          "type": "uint256"
        }
      ],
      "name": "NFTListed",
      "type": "event"
    },
    {
      "anonymous": false,
      "inputs": [
        {
          "indexed": false,
          "internalType": "uint256",
          "name": "marketItemId",
          "type": "uint256"
        },
        {
          "indexed": false,
          "internalType": "address",
          "name": "nftContract",
          "type": "address"
        },
        {
          "indexed": false,
          "internalType": "uint256",
          "name": "tokenId",
          "type": "uint256"
        },
        {
          "indexed": false,
          "internalType": "address",
          "name": "seller",
          "type": "address"
        },
        {
          "indexed": false,
          "internalType": "address",
          "name": "buyer",
          "type": "address"
        },
        {
          "indexed": false,
          "internalType": "uint256",
          "name": "price",
          "type": "uint256"
        }
      ],
      "name": "NFTSaleCanceled",
      "type": "event"
    },
    {
      "anonymous": false,
      "inputs": [
        {
          "indexed": false,
          "internalType": "uint256",
          "name": "marketItemId",
          "type": "uint256"
        },
        {
          "indexed": false,
          "internalType": "address",
          "name": "nftContract",
          "type": "address"
        },
        {
          "indexed": false,
          "internalType": "uint256",
          "name": "tokenId",
          "type": "uint256"
        },
        {
          "indexed": false,
          "internalType": "address",
          "name": "seller",
          "type": "address"
        },
        {
          "indexed": false,
          "internalType": "address",
          "name": "buyer",
          "type": "address"
        },
        {
          "indexed": false,
          "internalType": "uint256",
          "name": "price",
          "type": "uint256"
        }
      ],
      "name": "NFTSold",
      "type": "event"
    },
    {
      "anonymous": false,
      "inputs": [
        {
          "indexed": true,
          "internalType": "address",
          "name": "previousOwner",
          "type": "address"
        },
        {
          "indexed": true,
          "internalType": "address",
          "name": "newOwner",
          "type": "address"
        }
      ],
      "name": "OwnershipTransferred",
      "type": "event"
    },
    {
      "inputs": [],
      "name": "deathKingdomCoin",
      "outputs": [
        {
          "internalType": "contract IERC20",
          "name": "",
          "type": "address"
        }
      ],
      "stateMutability": "view",
      "type": "function",
      "constant": true
    },
    {
      "inputs": [],
      "name": "deno",
      "outputs": [
        {
          "internalType": "uint256",
          "name": "",
          "type": "uint256"
        }
      ],
      "stateMutability": "view",
      "type": "function",
      "constant": true
    },
    {
      "inputs": [],
      "name": "owner",
      "outputs": [
        {
          "internalType": "address",
          "name": "",
          "type": "address"
        }
      ],
      "stateMutability": "view",
      "type": "function",
      "constant": true
    },
    {
      "inputs": [],
      "name": "platformFee",
      "outputs": [
        {
          "internalType": "uint256",
          "name": "",
          "type": "uint256"
        }
      ],
      "stateMutability": "view",
      "type": "function",
      "constant": true
    },
    {
      "inputs": [],
      "name": "renounceOwnership",
      "outputs": [],
      "stateMutability": "nonpayable",
      "type": "function"
    },
    {
      "inputs": [
        {
          "internalType": "address",
          "name": "newOwner",
          "type": "address"
        }
      ],
      "name": "transferOwnership",
      "outputs": [],
      "stateMutability": "nonpayable",
      "type": "function"
    },
    {
      "inputs": [
        {
          "internalType": "address",
          "name": "_nftContract",
          "type": "address"
        },
        {
          "internalType": "uint256",
          "name": "_tokenId",
          "type": "uint256"
        },
        {
          "internalType": "uint256",
          "name": "_price",
          "type": "uint256"
        }
      ],
      "name": "listNft",
      "outputs": [],
      "stateMutability": "nonpayable",
      "type": "function"
    },
    {
      "inputs": [
        {
          "internalType": "uint256",
          "name": "_marketItemId",
          "type": "uint256"
        }
      ],
      "name": "cancelSellNft",
      "outputs": [],
      "stateMutability": "nonpayable",
      "type": "function"
    },
    {
      "inputs": [
        {
          "internalType": "uint256",
          "name": "_marketItemId",
          "type": "uint256"
        }
      ],
      "name": "buyNft",
      "outputs": [],
      "stateMutability": "payable",
      "type": "function",
      "payable": true
    },
    {
      "inputs": [],
      "name": "getListingNfts",
      "outputs": [
        {
          "components": [
            {
              "internalType": "uint256",
              "name": "marketItemId",
              "type": "uint256"
            },
            {
              "internalType": "uint256",
              "name": "tokenId",
              "type": "uint256"
            },
            {
              "internalType": "uint256",
              "name": "price",
              "type": "uint256"
            },
            {
              "internalType": "address payable",
              "name": "seller",
              "type": "address"
            },
            {
              "internalType": "address payable",
              "name": "buyer",
              "type": "address"
            },
            {
              "internalType": "address",
              "name": "nftContract",
              "type": "address"
            },
            {
              "internalType": "bool",
              "name": "isSelling",
              "type": "bool"
            }
          ],
          "internalType": "struct Marketplace.NFTMarketItem[]",
          "name": "",
          "type": "tuple[]"
        }
      ],
      "stateMutability": "view",
      "type": "function",
      "constant": true
    },
    {
      "inputs": [],
      "name": "getMyListingNfts",
      "outputs": [
        {
          "components": [
            {
              "internalType": "uint256",
              "name": "marketItemId",
              "type": "uint256"
            },
            {
              "internalType": "uint256",
              "name": "tokenId",
              "type": "uint256"
            },
            {
              "internalType": "uint256",
              "name": "price",
              "type": "uint256"
            },
            {
              "internalType": "address payable",
              "name": "seller",
              "type": "address"
            },
            {
              "internalType": "address payable",
              "name": "buyer",
              "type": "address"
            },
            {
              "internalType": "address",
              "name": "nftContract",
              "type": "address"
            },
            {
              "internalType": "bool",
              "name": "isSelling",
              "type": "bool"
            }
          ],
          "internalType": "struct Marketplace.NFTMarketItem[]",
          "name": "",
          "type": "tuple[]"
        }
      ],
      "stateMutability": "view",
      "type": "function",
      "constant": true
    },
    {
      "inputs": [
        {
          "internalType": "uint256",
          "name": "_tokenId",
          "type": "uint256"
        }
      ],
      "name": "getNftSellHistory",
      "outputs": [
        {
          "components": [
            {
              "internalType": "uint256",
              "name": "marketItemId",
              "type": "uint256"
            },
            {
              "internalType": "uint256",
              "name": "tokenId",
              "type": "uint256"
            },
            {
              "internalType": "uint256",
              "name": "price",
              "type": "uint256"
            },
            {
              "internalType": "address payable",
              "name": "seller",
              "type": "address"
            },
            {
              "internalType": "address payable",
              "name": "buyer",
              "type": "address"
            },
            {
              "internalType": "address",
              "name": "nftContract",
              "type": "address"
            },
            {
              "internalType": "bool",
              "name": "isSelling",
              "type": "bool"
            }
          ],
          "internalType": "struct Marketplace.NFTMarketItem[]",
          "name": "",
          "type": "tuple[]"
        }
      ],
      "stateMutability": "view",
      "type": "function",
      "constant": true
    }
  ],
  "bytecode": "0x608060405260196005556103e86006553480156200001c57600080fd5b5060405162002a6a38038062002a6a8339818101604052810190620000429190620001ea565b60016000819055506200006a6200005e620000b260201b60201c565b620000ba60201b60201c565b80600460006101000a81548173ffffffffffffffffffffffffffffffffffffffff021916908373ffffffffffffffffffffffffffffffffffffffff160217905550506200021c565b600033905090565b6000600160009054906101000a900473ffffffffffffffffffffffffffffffffffffffff16905081600160006101000a81548173ffffffffffffffffffffffffffffffffffffffff021916908373ffffffffffffffffffffffffffffffffffffffff1602179055508173ffffffffffffffffffffffffffffffffffffffff168173ffffffffffffffffffffffffffffffffffffffff167f8be0079c531659141344cd1fd0a4f28419497f9722a3daafe3b4186f6b6457e060405160405180910390a35050565b600080fd5b600073ffffffffffffffffffffffffffffffffffffffff82169050919050565b6000620001b28262000185565b9050919050565b620001c481620001a5565b8114620001d057600080fd5b50565b600081519050620001e481620001b9565b92915050565b60006020828403121562000203576200020262000180565b5b60006200021384828501620001d3565b91505092915050565b61283e806200022c6000396000f3fe6080604052600436106100a75760003560e01c8063715018a611610064578063715018a61461019d5780638da5cb5b146101b45780639fee5bc6146101df578063c922b17c1461020a578063d34c127e14610233578063f2fde38b14610270576100a7565b806314d889cf146100ac578063243adbdd146100d757806326232a2e146100f3578063443c2fd71461011e5780634cb558761461014957806359f4827114610174575b600080fd5b3480156100b857600080fd5b506100c1610299565b6040516100ce9190611c72565b60405180910390f35b6100f160048036038101906100ec9190611cc8565b6102bf565b005b3480156100ff57600080fd5b50610108610983565b6040516101159190611d04565b60405180910390f35b34801561012a57600080fd5b50610133610989565b6040516101409190611ec8565b60405180910390f35b34801561015557600080fd5b5061015e610bfb565b60405161016b9190611ec8565b60405180910390f35b34801561018057600080fd5b5061019b60048036038101906101969190611cc8565b610faa565b005b3480156101a957600080fd5b506101b261121c565b005b3480156101c057600080fd5b506101c96112a4565b6040516101d69190611ef9565b60405180910390f35b3480156101eb57600080fd5b506101f46112ce565b6040516102019190611d04565b60405180910390f35b34801561021657600080fd5b50610231600480360381019061022c9190611f40565b6112d4565b005b34801561023f57600080fd5b5061025a60048036038101906102559190611cc8565b61166e565b6040516102679190611ec8565b60405180910390f35b34801561027c57600080fd5b5061029760048036038101906102929190611f93565b611989565b005b600460009054906101000a900473ffffffffffffffffffffffffffffffffffffffff1681565b6000600760008381526020019081526020016000209050600115158160050160149054906101000a900460ff1615151461032e576040517f08c379a00000000000000000000000000000000000000000000000000000000081526004016103259061201d565b60405180910390fd5b3373ffffffffffffffffffffffffffffffffffffffff168160030160009054906101000a900473ffffffffffffffffffffffffffffffffffffffff1673ffffffffffffffffffffffffffffffffffffffff16036103c0576040517f08c379a00000000000000000000000000000000000000000000000000000000081526004016103b790612089565b60405180910390fd5b6000816002015490506000600654600554836103dc91906120d8565b6103e69190612161565b90506000600460009054906101000a900473ffffffffffffffffffffffffffffffffffffffff1673ffffffffffffffffffffffffffffffffffffffff1663dd62ed3e33306040518363ffffffff1660e01b8152600401610447929190612192565b602060405180830381865afa158015610464573d6000803e3d6000fd5b505050506040513d601f19601f8201168201806040525081019061048891906121d0565b9050828110156104cd576040517f08c379a00000000000000000000000000000000000000000000000000000000081526004016104c49061226f565b60405180910390fd5b600460009054906101000a900473ffffffffffffffffffffffffffffffffffffffff1673ffffffffffffffffffffffffffffffffffffffff166323b872dd3330866040518463ffffffff1660e01b815260040161052c9392919061228f565b6020604051808303816000875af115801561054b573d6000803e3d6000fd5b505050506040513d601f19601f8201168201806040525081019061056f91906122f2565b50600460009054906101000a900473ffffffffffffffffffffffffffffffffffffffff1673ffffffffffffffffffffffffffffffffffffffff1663a9059cbb8560030160009054906101000a900473ffffffffffffffffffffffffffffffffffffffff1684866105df919061231f565b6040518363ffffffff1660e01b81526004016105fc929190612374565b6020604051808303816000875af115801561061b573d6000803e3d6000fd5b505050506040513d601f19601f8201168201806040525081019061063f91906122f2565b50600460009054906101000a900473ffffffffffffffffffffffffffffffffffffffff1673ffffffffffffffffffffffffffffffffffffffff1663a9059cbb6106866112a4565b600460009054906101000a900473ffffffffffffffffffffffffffffffffffffffff1673ffffffffffffffffffffffffffffffffffffffff166370a08231306040518263ffffffff1660e01b81526004016106e19190611ef9565b602060405180830381865afa1580156106fe573d6000803e3d6000fd5b505050506040513d601f19601f8201168201806040525081019061072291906121d0565b6040518363ffffffff1660e01b815260040161073f92919061239d565b6020604051808303816000875af115801561075e573d6000803e3d6000fd5b505050506040513d601f19601f8201168201806040525081019061078291906122f2565b50338460040160006101000a81548173ffffffffffffffffffffffffffffffffffffffff021916908373ffffffffffffffffffffffffffffffffffffffff1602179055506107d06003611a80565b8360050160009054906101000a900473ffffffffffffffffffffffffffffffffffffffff1673ffffffffffffffffffffffffffffffffffffffff166323b872dd303387600101546040518463ffffffff1660e01b81526004016108359392919061228f565b600060405180830381600087803b15801561084f57600080fd5b505af1158015610863573d6000803e3d6000fd5b5050505060008460050160146101000a81548160ff021916908315150217905550338460040160006101000a81548173ffffffffffffffffffffffffffffffffffffffff021916908373ffffffffffffffffffffffffffffffffffffffff1602179055507ffbd14ef83c9e36d4cd05cdc496d3b3a07da3041679b4142908d0ef3cef210dc484600001548560050160009054906101000a900473ffffffffffffffffffffffffffffffffffffffff1686600101548760030160009054906101000a900473ffffffffffffffffffffffffffffffffffffffff168860040160009054906101000a900473ffffffffffffffffffffffffffffffffffffffff1688604051610974969594939291906123c6565b60405180910390a15050505050565b60055481565b606060006109976002611a96565b905060006109a56003611a96565b826109b0919061231f565b905060008167ffffffffffffffff8111156109ce576109cd612427565b5b604051908082528060200260200182016040528015610a0757816020015b6109f4611b72565b8152602001906001900390816109ec5790505b5090506000805b84811015610bf05760076000600183610a279190612456565b815260200190815260200160002060050160149054906101000a900460ff1615610bdd5760076000600183610a5c9190612456565b81526020019081526020016000206040518060e00160405290816000820154815260200160018201548152602001600282015481526020016003820160009054906101000a900473ffffffffffffffffffffffffffffffffffffffff1673ffffffffffffffffffffffffffffffffffffffff1673ffffffffffffffffffffffffffffffffffffffff1681526020016004820160009054906101000a900473ffffffffffffffffffffffffffffffffffffffff1673ffffffffffffffffffffffffffffffffffffffff1673ffffffffffffffffffffffffffffffffffffffff1681526020016005820160009054906101000a900473ffffffffffffffffffffffffffffffffffffffff1673ffffffffffffffffffffffffffffffffffffffff1673ffffffffffffffffffffffffffffffffffffffff1681526020016005820160149054906101000a900460ff161515151581525050838381518110610bc357610bc26124ac565b5b60200260200101819052508180610bd9906124db565b9250505b8080610be8906124db565b915050610a0e565b508194505050505090565b60606000610c096002611a96565b90506000805b82811015610ce7573373ffffffffffffffffffffffffffffffffffffffff1660076000600184610c3f9190612456565b815260200190815260200160002060030160009054906101000a900473ffffffffffffffffffffffffffffffffffffffff1673ffffffffffffffffffffffffffffffffffffffff16148015610cc0575060076000600183610ca09190612456565b815260200190815260200160002060050160149054906101000a900460ff165b15610cd4578180610cd0906124db565b9250505b8080610cdf906124db565b915050610c0f565b5060008167ffffffffffffffff811115610d0457610d03612427565b5b604051908082528060200260200182016040528015610d3d57816020015b610d2a611b72565b815260200190600190039081610d225790505b5090506000805b84811015610f9f573373ffffffffffffffffffffffffffffffffffffffff1660076000600184610d749190612456565b815260200190815260200160002060030160009054906101000a900473ffffffffffffffffffffffffffffffffffffffff1673ffffffffffffffffffffffffffffffffffffffff16148015610df5575060076000600183610dd59190612456565b815260200190815260200160002060050160149054906101000a900460ff165b15610f8c5760076000600183610e0b9190612456565b81526020019081526020016000206040518060e00160405290816000820154815260200160018201548152602001600282015481526020016003820160009054906101000a900473ffffffffffffffffffffffffffffffffffffffff1673ffffffffffffffffffffffffffffffffffffffff1673ffffffffffffffffffffffffffffffffffffffff1681526020016004820160009054906101000a900473ffffffffffffffffffffffffffffffffffffffff1673ffffffffffffffffffffffffffffffffffffffff1673ffffffffffffffffffffffffffffffffffffffff1681526020016005820160009054906101000a900473ffffffffffffffffffffffffffffffffffffffff1673ffffffffffffffffffffffffffffffffffffffff1673ffffffffffffffffffffffffffffffffffffffff1681526020016005820160149054906101000a900460ff161515151581525050838381518110610f7257610f716124ac565b5b60200260200101819052508180610f88906124db565b9250505b8080610f97906124db565b915050610d44565b508194505050505090565b60006007600083815260200190815260200160002090508060030160009054906101000a900473ffffffffffffffffffffffffffffffffffffffff1673ffffffffffffffffffffffffffffffffffffffff163373ffffffffffffffffffffffffffffffffffffffff1614611053576040517f08c379a000000000000000000000000000000000000000000000000000000000815260040161104a9061256f565b60405180910390fd5b600115158160050160149054906101000a900460ff161515146110ab576040517f08c379a00000000000000000000000000000000000000000000000000000000081526004016110a29061201d565b60405180910390fd5b60008160050160146101000a81548160ff0219169083151502179055508060050160009054906101000a900473ffffffffffffffffffffffffffffffffffffffff1673ffffffffffffffffffffffffffffffffffffffff166323b872dd303384600101546040518463ffffffff1660e01b815260040161112d9392919061228f565b600060405180830381600087803b15801561114757600080fd5b505af115801561115b573d6000803e3d6000fd5b505050507f59c5c697698d4245f5931b2d83da5c09c16445194cb3e1adf9cef2cc3b9d722b81600001548260050160009054906101000a900473ffffffffffffffffffffffffffffffffffffffff1683600101548460030160009054906101000a900473ffffffffffffffffffffffffffffffffffffffff168560040160009054906101000a900473ffffffffffffffffffffffffffffffffffffffff168660020154604051611210969594939291906123c6565b60405180910390a15050565b611224611aa4565b73ffffffffffffffffffffffffffffffffffffffff166112426112a4565b73ffffffffffffffffffffffffffffffffffffffff1614611298576040517f08c379a000000000000000000000000000000000000000000000000000000000815260040161128f906125db565b60405180910390fd5b6112a26000611aac565b565b6000600160009054906101000a900473ffffffffffffffffffffffffffffffffffffffff16905090565b60065481565b60008111611317576040517f08c379a000000000000000000000000000000000000000000000000000000000815260040161130e90612647565b60405180910390fd5b3373ffffffffffffffffffffffffffffffffffffffff168373ffffffffffffffffffffffffffffffffffffffff16636352211e846040518263ffffffff1660e01b81526004016113679190611d04565b602060405180830381865afa158015611384573d6000803e3d6000fd5b505050506040513d601f19601f820116820180604052508101906113a8919061267c565b73ffffffffffffffffffffffffffffffffffffffff16146113fe576040517f08c379a00000000000000000000000000000000000000000000000000000000081526004016113f5906126f5565b60405180910390fd5b6114086002611a80565b60006114146002611a96565b90506040518060e001604052808281526020018481526020018381526020013373ffffffffffffffffffffffffffffffffffffffff168152602001600073ffffffffffffffffffffffffffffffffffffffff1681526020018573ffffffffffffffffffffffffffffffffffffffff168152602001600115158152506007600083815260200190815260200160002060008201518160000155602082015181600101556040820151816002015560608201518160030160006101000a81548173ffffffffffffffffffffffffffffffffffffffff021916908373ffffffffffffffffffffffffffffffffffffffff16021790555060808201518160040160006101000a81548173ffffffffffffffffffffffffffffffffffffffff021916908373ffffffffffffffffffffffffffffffffffffffff16021790555060a08201518160050160006101000a81548173ffffffffffffffffffffffffffffffffffffffff021916908373ffffffffffffffffffffffffffffffffffffffff16021790555060c08201518160050160146101000a81548160ff0219169083151502179055509050508373ffffffffffffffffffffffffffffffffffffffff166323b872dd3330866040518463ffffffff1660e01b81526004016115f59392919061228f565b600060405180830381600087803b15801561160f57600080fd5b505af1158015611623573d6000803e3d6000fd5b505050507f837b3a4a47f6aedac2e74f9f4be36ee333052be462fd01f2282e34cfd3a158a681858533308760405161166096959493929190612715565b60405180910390a150505050565b6060600061167c6002611a96565b90506000805b8281101561170f57846007600060018461169c9190612456565b8152602001908152602001600020600101541480156116e85750600760006001836116c79190612456565b815260200190815260200160002060050160149054906101000a900460ff16155b156116fc5781806116f8906124db565b9250505b8080611707906124db565b915050611682565b5060008167ffffffffffffffff81111561172c5761172b612427565b5b60405190808252806020026020018201604052801561176557816020015b611752611b72565b81526020019060019003908161174a5790505b5090506000805b8481101561197c5786600760006001846117869190612456565b8152602001908152602001600020600101541480156117d25750600760006001836117b19190612456565b815260200190815260200160002060050160149054906101000a900460ff16155b1561196957600760006001836117e89190612456565b81526020019081526020016000206040518060e00160405290816000820154815260200160018201548152602001600282015481526020016003820160009054906101000a900473ffffffffffffffffffffffffffffffffffffffff1673ffffffffffffffffffffffffffffffffffffffff1673ffffffffffffffffffffffffffffffffffffffff1681526020016004820160009054906101000a900473ffffffffffffffffffffffffffffffffffffffff1673ffffffffffffffffffffffffffffffffffffffff1673ffffffffffffffffffffffffffffffffffffffff1681526020016005820160009054906101000a900473ffffffffffffffffffffffffffffffffffffffff1673ffffffffffffffffffffffffffffffffffffffff1673ffffffffffffffffffffffffffffffffffffffff1681526020016005820160149054906101000a900460ff16151515158152505083838151811061194f5761194e6124ac565b5b60200260200101819052508180611965906124db565b9250505b8080611974906124db565b91505061176c565b5081945050505050919050565b611991611aa4565b73ffffffffffffffffffffffffffffffffffffffff166119af6112a4565b73ffffffffffffffffffffffffffffffffffffffff1614611a05576040517f08c379a00000000000000000000000000000000000000000000000000000000081526004016119fc906125db565b60405180910390fd5b600073ffffffffffffffffffffffffffffffffffffffff168173ffffffffffffffffffffffffffffffffffffffff1603611a74576040517f08c379a0000000000000000000000000000000000000000000000000000000008152600401611a6b906127e8565b60405180910390fd5b611a7d81611aac565b50565b6001816000016000828254019250508190555050565b600081600001549050919050565b600033905090565b6000600160009054906101000a900473ffffffffffffffffffffffffffffffffffffffff16905081600160006101000a81548173ffffffffffffffffffffffffffffffffffffffff021916908373ffffffffffffffffffffffffffffffffffffffff1602179055508173ffffffffffffffffffffffffffffffffffffffff168173ffffffffffffffffffffffffffffffffffffffff167f8be0079c531659141344cd1fd0a4f28419497f9722a3daafe3b4186f6b6457e060405160405180910390a35050565b6040518060e00160405280600081526020016000815260200160008152602001600073ffffffffffffffffffffffffffffffffffffffff168152602001600073ffffffffffffffffffffffffffffffffffffffff168152602001600073ffffffffffffffffffffffffffffffffffffffff1681526020016000151581525090565b600073ffffffffffffffffffffffffffffffffffffffff82169050919050565b6000819050919050565b6000611c38611c33611c2e84611bf3565b611c13565b611bf3565b9050919050565b6000611c4a82611c1d565b9050919050565b6000611c5c82611c3f565b9050919050565b611c6c81611c51565b82525050565b6000602082019050611c876000830184611c63565b92915050565b600080fd5b6000819050919050565b611ca581611c92565b8114611cb057600080fd5b50565b600081359050611cc281611c9c565b92915050565b600060208284031215611cde57611cdd611c8d565b5b6000611cec84828501611cb3565b91505092915050565b611cfe81611c92565b82525050565b6000602082019050611d196000830184611cf5565b92915050565b600081519050919050565b600082825260208201905092915050565b6000819050602082019050919050565b611d5481611c92565b82525050565b6000611d6582611bf3565b9050919050565b611d7581611d5a565b82525050565b6000611d8682611bf3565b9050919050565b611d9681611d7b565b82525050565b60008115159050919050565b611db181611d9c565b82525050565b60e082016000820151611dcd6000850182611d4b565b506020820151611de06020850182611d4b565b506040820151611df36040850182611d4b565b506060820151611e066060850182611d6c565b506080820151611e196080850182611d6c565b5060a0820151611e2c60a0850182611d8d565b5060c0820151611e3f60c0850182611da8565b50505050565b6000611e518383611db7565b60e08301905092915050565b6000602082019050919050565b6000611e7582611d1f565b611e7f8185611d2a565b9350611e8a83611d3b565b8060005b83811015611ebb578151611ea28882611e45565b9750611ead83611e5d565b925050600181019050611e8e565b5085935050505092915050565b60006020820190508181036000830152611ee28184611e6a565b905092915050565b611ef381611d7b565b82525050565b6000602082019050611f0e6000830184611eea565b92915050565b611f1d81611d7b565b8114611f2857600080fd5b50565b600081359050611f3a81611f14565b92915050565b600080600060608486031215611f5957611f58611c8d565b5b6000611f6786828701611f2b565b9350506020611f7886828701611cb3565b9250506040611f8986828701611cb3565b9150509250925092565b600060208284031215611fa957611fa8611c8d565b5b6000611fb784828501611f2b565b91505092915050565b600082825260208201905092915050565b7f4e4654206973206e6f742053656c6c696e670000000000000000000000000000600082015250565b6000612007601283611fc0565b915061201282611fd1565b602082019050919050565b6000602082019050818103600083015261203681611ffa565b9050919050565b7f596f752063616e206e6f742062757920796f7572206f776e204e465400000000600082015250565b6000612073601c83611fc0565b915061207e8261203d565b602082019050919050565b600060208201905081810360008301526120a281612066565b9050919050565b7f4e487b7100000000000000000000000000000000000000000000000000000000600052601160045260246000fd5b60006120e382611c92565b91506120ee83611c92565b9250817fffffffffffffffffffffffffffffffffffffffffffffffffffffffffffffffff0483118215151615612127576121266120a9565b5b828202905092915050565b7f4e487b7100000000000000000000000000000000000000000000000000000000600052601260045260246000fd5b600061216c82611c92565b915061217783611c92565b92508261218757612186612132565b5b828204905092915050565b60006040820190506121a76000830185611eea565b6121b46020830184611eea565b9392505050565b6000815190506121ca81611c9c565b92915050565b6000602082840312156121e6576121e5611c8d565b5b60006121f4848285016121bb565b91505092915050565b7f446f206e6f74206861766520656e6f75676820444b4320746f20627579204e4660008201527f5400000000000000000000000000000000000000000000000000000000000000602082015250565b6000612259602183611fc0565b9150612264826121fd565b604082019050919050565b600060208201905081810360008301526122888161224c565b9050919050565b60006060820190506122a46000830186611eea565b6122b16020830185611eea565b6122be6040830184611cf5565b949350505050565b6122cf81611d9c565b81146122da57600080fd5b50565b6000815190506122ec816122c6565b92915050565b60006020828403121561230857612307611c8d565b5b6000612316848285016122dd565b91505092915050565b600061232a82611c92565b915061233583611c92565b925082821015612348576123476120a9565b5b828203905092915050565b600061235e82611c3f565b9050919050565b61236e81612353565b82525050565b60006040820190506123896000830185612365565b6123966020830184611cf5565b9392505050565b60006040820190506123b26000830185611eea565b6123bf6020830184611cf5565b9392505050565b600060c0820190506123db6000830189611cf5565b6123e86020830188611eea565b6123f56040830187611cf5565b6124026060830186612365565b61240f6080830185612365565b61241c60a0830184611cf5565b979650505050505050565b7f4e487b7100000000000000000000000000000000000000000000000000000000600052604160045260246000fd5b600061246182611c92565b915061246c83611c92565b9250827fffffffffffffffffffffffffffffffffffffffffffffffffffffffffffffffff038211156124a1576124a06120a9565b5b828201905092915050565b7f4e487b7100000000000000000000000000000000000000000000000000000000600052603260045260246000fd5b60006124e682611c92565b91507fffffffffffffffffffffffffffffffffffffffffffffffffffffffffffffffff8203612518576125176120a9565b5b600182019050919050565b7f596f7520617265206e6f74204e46542773204f776e6572000000000000000000600082015250565b6000612559601783611fc0565b915061256482612523565b602082019050919050565b600060208201905081810360008301526125888161254c565b9050919050565b7f4f776e61626c653a2063616c6c6572206973206e6f7420746865206f776e6572600082015250565b60006125c5602083611fc0565b91506125d08261258f565b602082019050919050565b600060208201905081810360008301526125f4816125b8565b9050919050565b7f5072696365206d757374203e2030000000000000000000000000000000000000600082015250565b6000612631600e83611fc0565b915061263c826125fb565b602082019050919050565b6000602082019050818103600083015261266081612624565b9050919050565b60008151905061267681611f14565b92915050565b60006020828403121561269257612691611c8d565b5b60006126a084828501612667565b91505092915050565b7f596f7520617265206e6f74204e46542773206f776e6572000000000000000000600082015250565b60006126df601783611fc0565b91506126ea826126a9565b602082019050919050565b6000602082019050818103600083015261270e816126d2565b9050919050565b600060c08201905061272a6000830189611cf5565b6127376020830188611eea565b6127446040830187611cf5565b6127516060830186611eea565b61275e6080830185611eea565b61276b60a0830184611cf5565b979650505050505050565b7f4f776e61626c653a206e6577206f776e657220697320746865207a65726f206160008201527f6464726573730000000000000000000000000000000000000000000000000000602082015250565b60006127d2602683611fc0565b91506127dd82612776565b604082019050919050565b60006020820190508181036000830152612801816127c5565b905091905056fea2646970667358221220b4d3e6f238e3618c4a8a3da310101a7f61f0794dd7ccf58f153503927cae0c9964736f6c634300080d0033",
  "immutableReferences": {},
  "source": "// SPDX-License-Identifier: MIT\r\n\r\npragma solidity ^0.8.13;\r\n\r\nimport \"@openzeppelin/contracts/utils/Counters.sol\";\r\nimport \"@openzeppelin/contracts/token/ERC20/IERC20.sol\";\r\nimport \"@openzeppelin/contracts/token/ERC721/IERC721.sol\";\r\nimport \"@openzeppelin/contracts/security/ReentrancyGuard.sol\";\r\nimport \"@openzeppelin/contracts/access/Ownable.sol\";\r\n\r\ncontract Marketplace is ReentrancyGuard, Ownable {\r\n    using Counters for Counters.Counter;\r\n    Counters.Counter private _marketItemIds;\r\n    Counters.Counter private _nftSold;\r\n    IERC20 public deathKingdomCoin;\r\n    uint256 public platformFee = 25;\r\n    uint256 public deno = 1000;\r\n\r\n    mapping(uint256 => NFTMarketItem) private marketItems;\r\n\r\n    constructor(address _deathKingdomCoinContract) {\r\n        deathKingdomCoin = IERC20(_deathKingdomCoinContract);\r\n    }\r\n\r\n    struct NFTMarketItem {\r\n        uint256 marketItemId;\r\n        uint256 tokenId;\r\n        uint256 price;\r\n        address payable seller;\r\n        address payable buyer;\r\n        address nftContract;\r\n        bool isSelling;\r\n    }\r\n\r\n    event NFTListed(\r\n        uint256 marketItemId,\r\n        address nftContract,\r\n        uint256 tokenId,\r\n        address seller,\r\n        address buyer,\r\n        uint256 price\r\n    );\r\n\r\n    event NFTSaleCanceled(\r\n        uint256 marketItemId,\r\n        address nftContract,\r\n        uint256 tokenId,\r\n        address seller,\r\n        address buyer,\r\n        uint256 price\r\n    );\r\n\r\n    event NFTSold(\r\n        uint256 marketItemId,\r\n        address nftContract,\r\n        uint256 tokenId,\r\n        address seller,\r\n        address buyer,\r\n        uint256 price\r\n    );\r\n\r\n    function listNft(\r\n        address _nftContract,\r\n        uint256 _tokenId,\r\n        uint256 _price\r\n    ) public {\r\n        require(_price > 0, \"Price must > 0\");\r\n        require(\r\n            IERC721(_nftContract).ownerOf(_tokenId) == msg.sender,\r\n            \"You are not NFT's owner\"\r\n        );\r\n        _marketItemIds.increment();\r\n        uint256 marketItemId = _marketItemIds.current();\r\n\r\n        marketItems[marketItemId] = NFTMarketItem(\r\n            marketItemId,\r\n            _tokenId,\r\n            _price,\r\n            payable(msg.sender),\r\n            payable(address(0)),\r\n            _nftContract,\r\n            true\r\n        );\r\n        IERC721(_nftContract).transferFrom(msg.sender, address(this), _tokenId);\r\n        emit NFTListed(\r\n            marketItemId,\r\n            _nftContract,\r\n            _tokenId,\r\n            msg.sender,\r\n            address(this),\r\n            _price\r\n        );\r\n    }\r\n\r\n    function cancelSellNft(uint256 _marketItemId) public {\r\n        NFTMarketItem storage nftMarketItem = marketItems[_marketItemId];\r\n        require(msg.sender == nftMarketItem.seller, \"You are not NFT's Owner\");\r\n        require(nftMarketItem.isSelling == true, \"NFT is not Selling\");\r\n        nftMarketItem.isSelling = false;\r\n        IERC721(nftMarketItem.nftContract).transferFrom(\r\n            address(this),\r\n            msg.sender,\r\n            nftMarketItem.tokenId\r\n        );\r\n        emit NFTSaleCanceled(\r\n            nftMarketItem.marketItemId,\r\n            nftMarketItem.nftContract,\r\n            nftMarketItem.tokenId,\r\n            nftMarketItem.seller,\r\n            nftMarketItem.buyer,\r\n            nftMarketItem.price\r\n        );\r\n    }\r\n\r\n    function buyNft(uint256 _marketItemId) public payable {\r\n        NFTMarketItem storage nftMarketItem = marketItems[_marketItemId];\r\n        require(nftMarketItem.isSelling == true, \"NFT is not Selling\");\r\n        require(\r\n            nftMarketItem.seller != msg.sender,\r\n            \"You can not buy your own NFT\"\r\n        );\r\n\r\n        uint256 price = nftMarketItem.price;\r\n        uint256 marketFee = (price * platformFee) / deno;\r\n\r\n        uint256 allowance = deathKingdomCoin.allowance(\r\n            msg.sender,\r\n            address(this)\r\n        );\r\n        require(allowance >= price, \"Do not have enough DKC to buy NFT\");\r\n\r\n        deathKingdomCoin.transferFrom(msg.sender, address(this), price);\r\n\r\n        deathKingdomCoin.transfer(nftMarketItem.seller, price - marketFee);\r\n\r\n        deathKingdomCoin.transfer(\r\n            owner(),\r\n            deathKingdomCoin.balanceOf(address(this))\r\n        );\r\n\r\n        nftMarketItem.buyer = payable(msg.sender);\r\n        _nftSold.increment();\r\n\r\n        IERC721(nftMarketItem.nftContract).transferFrom(\r\n            address(this),\r\n            msg.sender,\r\n            nftMarketItem.tokenId\r\n        );\r\n\r\n        nftMarketItem.isSelling = false;\r\n        nftMarketItem.buyer = payable(msg.sender);\r\n\r\n        emit NFTSold(\r\n            nftMarketItem.marketItemId,\r\n            nftMarketItem.nftContract,\r\n            nftMarketItem.tokenId,\r\n            nftMarketItem.seller,\r\n            nftMarketItem.buyer,\r\n            price\r\n        );\r\n    }\r\n\r\n    function getListingNfts() public view returns (NFTMarketItem[] memory) {\r\n        uint256 nftCount = _marketItemIds.current();\r\n        uint256 unsoldNftsCount = nftCount - _nftSold.current();\r\n\r\n        NFTMarketItem[] memory nfts = new NFTMarketItem[](unsoldNftsCount);\r\n        uint256 nftsIndex = 0;\r\n        for (uint256 i = 0; i < nftCount; i++) {\r\n            if (marketItems[i + 1].isSelling) {\r\n                nfts[nftsIndex] = marketItems[i + 1];\r\n                nftsIndex++;\r\n            }\r\n        }\r\n        return nfts;\r\n    }\r\n\r\n    function getMyListingNfts() public view returns (NFTMarketItem[] memory) {\r\n        uint256 nftCount = _marketItemIds.current();\r\n        uint256 myListingNftCount = 0;\r\n        for (uint256 i = 0; i < nftCount; i++) {\r\n            if (\r\n                marketItems[i + 1].seller == msg.sender &&\r\n                marketItems[i + 1].isSelling\r\n            ) {\r\n                myListingNftCount++;\r\n            }\r\n        }\r\n\r\n        NFTMarketItem[] memory nfts = new NFTMarketItem[](myListingNftCount);\r\n        uint256 nftsIndex = 0;\r\n        for (uint256 i = 0; i < nftCount; i++) {\r\n            if (\r\n                marketItems[i + 1].seller == msg.sender &&\r\n                marketItems[i + 1].isSelling\r\n            ) {\r\n                nfts[nftsIndex] = marketItems[i + 1];\r\n                nftsIndex++;\r\n            }\r\n        }\r\n        return nfts;\r\n    }\r\n\r\n    function getNftSellHistory(uint256 _tokenId)\r\n        public\r\n        view\r\n        returns (NFTMarketItem[] memory)\r\n    {\r\n        uint256 nftCount = _marketItemIds.current();\r\n        uint256 nftSellHistoryCount = 0;\r\n        for (uint256 i = 0; i < nftCount; i++) {\r\n            if (\r\n                marketItems[i + 1].tokenId == _tokenId &&\r\n                !marketItems[i + 1].isSelling\r\n            ) {\r\n                nftSellHistoryCount++;\r\n            }\r\n        }\r\n\r\n        NFTMarketItem[] memory nfts = new NFTMarketItem[](nftSellHistoryCount);\r\n        uint256 nftsIndex = 0;\r\n        for (uint256 i = 0; i < nftCount; i++) {\r\n            if (\r\n                marketItems[i + 1].tokenId == _tokenId &&\r\n                !marketItems[i + 1].isSelling\r\n            ) {\r\n                nfts[nftsIndex] = marketItems[i + 1];\r\n                nftsIndex++;\r\n            }\r\n        }\r\n        return nfts;\r\n    }\r\n}\r\n",
  "sourcePath": "D:\\code\\TheDeadKingdom\\Contract\\contracts\\ethereum\\Marketplace.sol",
  "compiler": {
    "name": "solc",
    "version": "0.8.13+commit.abaa5c0e.Emscripten.clang"
  },
  "schemaVersion": "3.4.7",
  "updatedAt": "2022-08-08T10:46:03.230Z",
  "networkType": "ethereum",
  "devdoc": {
    "kind": "dev",
    "methods": {
      "owner()": {
        "details": "Returns the address of the current owner."
      },
      "renounceOwnership()": {
        "details": "Leaves the contract without owner. It will not be possible to call `onlyOwner` functions anymore. Can only be called by the current owner. NOTE: Renouncing ownership will leave the contract without an owner, thereby removing any functionality that is only available to the owner."
      },
      "transferOwnership(address)": {
        "details": "Transfers ownership of the contract to a new account (`newOwner`). Can only be called by the current owner."
      }
    },
    "version": 1
  },
  "userdoc": {
    "kind": "user",
    "methods": {},
    "version": 1
  }
}