{
  "contractName": "TankNFT",
  "abi": [
    {
      "inputs": [
        {
          "internalType": "address",
          "name": "_mrketplaceContract",
          "type": "address"
        },
        {
          "internalType": "address",
          "name": "_deathKingdomCoinContract",
          "type": "address"
        }
      ],
      "stateMutability": "nonpayable",
      "type": "constructor"
    },
    {
      "anonymous": false,
      "inputs": [
        {
          "indexed": true,
          "internalType": "address",
          "name": "owner",
          "type": "address"
        },
        {
          "indexed": true,
          "internalType": "address",
          "name": "approved",
          "type": "address"
        },
        {
          "indexed": true,
          "internalType": "uint256",
          "name": "tokenId",
          "type": "uint256"
        }
      ],
      "name": "Approval",
      "type": "event"
    },
    {
      "anonymous": false,
      "inputs": [
        {
          "indexed": true,
          "internalType": "address",
          "name": "owner",
          "type": "address"
        },
        {
          "indexed": true,
          "internalType": "address",
          "name": "operator",
          "type": "address"
        },
        {
          "indexed": false,
          "internalType": "bool",
          "name": "approved",
          "type": "bool"
        }
      ],
      "name": "ApprovalForAll",
      "type": "event"
    },
    {
      "anonymous": false,
      "inputs": [
        {
          "indexed": false,
          "internalType": "uint256[]",
          "name": "listTokenId",
          "type": "uint256[]"
        },
        {
          "indexed": false,
          "internalType": "address",
          "name": "tokenOwner",
          "type": "address"
        },
        {
          "indexed": false,
          "internalType": "uint256",
          "name": "boxId",
          "type": "uint256"
        }
      ],
      "name": "BoxSold",
      "type": "event"
    },
    {
      "anonymous": false,
      "inputs": [
        {
          "indexed": true,
          "internalType": "address",
          "name": "previousOwner",
          "type": "address"
        },
        {
          "indexed": true,
          "internalType": "address",
          "name": "newOwner",
          "type": "address"
        }
      ],
      "name": "OwnershipTransferred",
      "type": "event"
    },
    {
      "anonymous": false,
      "inputs": [
        {
          "indexed": true,
          "internalType": "address",
          "name": "from",
          "type": "address"
        },
        {
          "indexed": true,
          "internalType": "address",
          "name": "to",
          "type": "address"
        },
        {
          "indexed": true,
          "internalType": "uint256",
          "name": "tokenId",
          "type": "uint256"
        }
      ],
      "name": "Transfer",
      "type": "event"
    },
    {
      "inputs": [
        {
          "internalType": "address",
          "name": "to",
          "type": "address"
        },
        {
          "internalType": "uint256",
          "name": "tokenId",
          "type": "uint256"
        }
      ],
      "name": "approve",
      "outputs": [],
      "stateMutability": "nonpayable",
      "type": "function"
    },
    {
      "inputs": [
        {
          "internalType": "address",
          "name": "owner",
          "type": "address"
        }
      ],
      "name": "balanceOf",
      "outputs": [
        {
          "internalType": "uint256",
          "name": "",
          "type": "uint256"
        }
      ],
      "stateMutability": "view",
      "type": "function",
      "constant": true
    },
    {
      "inputs": [],
      "name": "deathKingdomCoin",
      "outputs": [
        {
          "internalType": "contract ERC20",
          "name": "",
          "type": "address"
        }
      ],
      "stateMutability": "view",
      "type": "function",
      "constant": true
    },
    {
      "inputs": [
        {
          "internalType": "uint256",
          "name": "tokenId",
          "type": "uint256"
        }
      ],
      "name": "getApproved",
      "outputs": [
        {
          "internalType": "address",
          "name": "",
          "type": "address"
        }
      ],
      "stateMutability": "view",
      "type": "function",
      "constant": true
    },
    {
      "inputs": [
        {
          "internalType": "address",
          "name": "owner",
          "type": "address"
        },
        {
          "internalType": "address",
          "name": "operator",
          "type": "address"
        }
      ],
      "name": "isApprovedForAll",
      "outputs": [
        {
          "internalType": "bool",
          "name": "",
          "type": "bool"
        }
      ],
      "stateMutability": "view",
      "type": "function",
      "constant": true
    },
    {
      "inputs": [],
      "name": "marketAddress",
      "outputs": [
        {
          "internalType": "address",
          "name": "",
          "type": "address"
        }
      ],
      "stateMutability": "view",
      "type": "function",
      "constant": true
    },
    {
      "inputs": [],
      "name": "name",
      "outputs": [
        {
          "internalType": "string",
          "name": "",
          "type": "string"
        }
      ],
      "stateMutability": "view",
      "type": "function",
      "constant": true
    },
    {
      "inputs": [],
      "name": "owner",
      "outputs": [
        {
          "internalType": "address",
          "name": "",
          "type": "address"
        }
      ],
      "stateMutability": "view",
      "type": "function",
      "constant": true
    },
    {
      "inputs": [
        {
          "internalType": "uint256",
          "name": "tokenId",
          "type": "uint256"
        }
      ],
      "name": "ownerOf",
      "outputs": [
        {
          "internalType": "address",
          "name": "",
          "type": "address"
        }
      ],
      "stateMutability": "view",
      "type": "function",
      "constant": true
    },
    {
      "inputs": [],
      "name": "renounceOwnership",
      "outputs": [],
      "stateMutability": "nonpayable",
      "type": "function"
    },
    {
      "inputs": [
        {
          "internalType": "address",
          "name": "from",
          "type": "address"
        },
        {
          "internalType": "address",
          "name": "to",
          "type": "address"
        },
        {
          "internalType": "uint256",
          "name": "tokenId",
          "type": "uint256"
        }
      ],
      "name": "safeTransferFrom",
      "outputs": [],
      "stateMutability": "nonpayable",
      "type": "function"
    },
    {
      "inputs": [
        {
          "internalType": "address",
          "name": "from",
          "type": "address"
        },
        {
          "internalType": "address",
          "name": "to",
          "type": "address"
        },
        {
          "internalType": "uint256",
          "name": "tokenId",
          "type": "uint256"
        },
        {
          "internalType": "bytes",
          "name": "_data",
          "type": "bytes"
        }
      ],
      "name": "safeTransferFrom",
      "outputs": [],
      "stateMutability": "nonpayable",
      "type": "function"
    },
    {
      "inputs": [
        {
          "internalType": "address",
          "name": "operator",
          "type": "address"
        },
        {
          "internalType": "bool",
          "name": "approved",
          "type": "bool"
        }
      ],
      "name": "setApprovalForAll",
      "outputs": [],
      "stateMutability": "nonpayable",
      "type": "function"
    },
    {
      "inputs": [
        {
          "internalType": "bytes4",
          "name": "interfaceId",
          "type": "bytes4"
        }
      ],
      "name": "supportsInterface",
      "outputs": [
        {
          "internalType": "bool",
          "name": "",
          "type": "bool"
        }
      ],
      "stateMutability": "view",
      "type": "function",
      "constant": true
    },
    {
      "inputs": [],
      "name": "symbol",
      "outputs": [
        {
          "internalType": "string",
          "name": "",
          "type": "string"
        }
      ],
      "stateMutability": "view",
      "type": "function",
      "constant": true
    },
    {
      "inputs": [
        {
          "internalType": "uint256",
          "name": "tokenId",
          "type": "uint256"
        }
      ],
      "name": "tokenURI",
      "outputs": [
        {
          "internalType": "string",
          "name": "",
          "type": "string"
        }
      ],
      "stateMutability": "view",
      "type": "function",
      "constant": true
    },
    {
      "inputs": [
        {
          "internalType": "address",
          "name": "from",
          "type": "address"
        },
        {
          "internalType": "address",
          "name": "to",
          "type": "address"
        },
        {
          "internalType": "uint256",
          "name": "tokenId",
          "type": "uint256"
        }
      ],
      "name": "transferFrom",
      "outputs": [],
      "stateMutability": "nonpayable",
      "type": "function"
    },
    {
      "inputs": [
        {
          "internalType": "address",
          "name": "newOwner",
          "type": "address"
        }
      ],
      "name": "transferOwnership",
      "outputs": [],
      "stateMutability": "nonpayable",
      "type": "function"
    },
    {
      "inputs": [
        {
          "internalType": "uint256",
          "name": "_boxId",
          "type": "uint256"
        },
        {
          "internalType": "uint256",
          "name": "_price",
          "type": "uint256"
        }
      ],
      "name": "setBoxPrice",
      "outputs": [],
      "stateMutability": "nonpayable",
      "type": "function"
    },
    {
      "inputs": [
        {
          "internalType": "uint256",
          "name": "_boxId",
          "type": "uint256"
        },
        {
          "internalType": "uint256",
          "name": "_amount",
          "type": "uint256"
        }
      ],
      "name": "buyBoxes",
      "outputs": [
        {
          "internalType": "uint256[]",
          "name": "",
          "type": "uint256[]"
        }
      ],
      "stateMutability": "nonpayable",
      "type": "function"
    },
    {
      "inputs": [
        {
          "internalType": "address",
          "name": "_ownerAddress",
          "type": "address"
        }
      ],
      "name": "getMyNfts",
      "outputs": [
        {
          "internalType": "uint256[]",
          "name": "",
          "type": "uint256[]"
        }
      ],
      "stateMutability": "view",
      "type": "function",
      "constant": true
    }
  ],
  "bytecode": "0x60806040523480156200001157600080fd5b50604051620040903803806200409083398181016040528101906200003791906200051c565b6040518060400160405280600c81526020017f54616e6b4e4654546f6b656e00000000000000000000000000000000000000008152506040518060400160405280600381526020017f444b5400000000000000000000000000000000000000000000000000000000008152508160009080519060200190620000bb92919062000402565b508060019080519060200190620000d492919062000402565b505050620000f7620000eb6200019560201b60201c565b6200019d60201b60201c565b81600860006101000a81548173ffffffffffffffffffffffffffffffffffffffff021916908373ffffffffffffffffffffffffffffffffffffffff16021790555080600960006101000a81548173ffffffffffffffffffffffffffffffffffffffff021916908373ffffffffffffffffffffffffffffffffffffffff1602179055506200018d600160c86200026360201b60201c565b5050620008f9565b600033905090565b6000600660009054906101000a900473ffffffffffffffffffffffffffffffffffffffff16905081600660006101000a81548173ffffffffffffffffffffffffffffffffffffffff021916908373ffffffffffffffffffffffffffffffffffffffff1602179055508173ffffffffffffffffffffffffffffffffffffffff168173ffffffffffffffffffffffffffffffffffffffff167f8be0079c531659141344cd1fd0a4f28419497f9722a3daafe3b4186f6b6457e060405160405180910390a35050565b620002736200019560201b60201c565b73ffffffffffffffffffffffffffffffffffffffff1662000299620003d860201b60201c565b73ffffffffffffffffffffffffffffffffffffffff1614620002f2576040517f08c379a0000000000000000000000000000000000000000000000000000000008152600401620002e990620005c4565b60405180910390fd5b600082116200030057600080fd5b600a81116200030e57600080fd5b600960009054906101000a900473ffffffffffffffffffffffffffffffffffffffff1673ffffffffffffffffffffffffffffffffffffffff1663313ce5676040518163ffffffff1660e01b8152600401602060405180830381865afa1580156200037c573d6000803e3d6000fd5b505050506040513d601f19601f82011682018060405250810190620003a2919062000624565b600a620003b09190620007e3565b81620003bd919062000834565b600a6000848152602001908152602001600020819055505050565b6000600660009054906101000a900473ffffffffffffffffffffffffffffffffffffffff16905090565b8280546200041090620008c4565b90600052602060002090601f01602090048101928262000434576000855562000480565b82601f106200044f57805160ff191683800117855562000480565b8280016001018555821562000480579182015b828111156200047f57825182559160200191906001019062000462565b5b5090506200048f919062000493565b5090565b5b80821115620004ae57600081600090555060010162000494565b5090565b600080fd5b600073ffffffffffffffffffffffffffffffffffffffff82169050919050565b6000620004e482620004b7565b9050919050565b620004f681620004d7565b81146200050257600080fd5b50565b6000815190506200051681620004eb565b92915050565b60008060408385031215620005365762000535620004b2565b5b6000620005468582860162000505565b9250506020620005598582860162000505565b9150509250929050565b600082825260208201905092915050565b7f4f776e61626c653a2063616c6c6572206973206e6f7420746865206f776e6572600082015250565b6000620005ac60208362000563565b9150620005b98262000574565b602082019050919050565b60006020820190508181036000830152620005df816200059d565b9050919050565b600060ff82169050919050565b620005fe81620005e6565b81146200060a57600080fd5b50565b6000815190506200061e81620005f3565b92915050565b6000602082840312156200063d576200063c620004b2565b5b60006200064d848285016200060d565b91505092915050565b7f4e487b7100000000000000000000000000000000000000000000000000000000600052601160045260246000fd5b60008160011c9050919050565b6000808291508390505b6001851115620006e457808604811115620006bc57620006bb62000656565b5b6001851615620006cc5780820291505b8081029050620006dc8562000685565b94506200069c565b94509492505050565b600082620006ff5760019050620007d2565b816200070f5760009050620007d2565b8160018114620007285760028114620007335762000769565b6001915050620007d2565b60ff84111562000748576200074762000656565b5b8360020a91508482111562000762576200076162000656565b5b50620007d2565b5060208310610133831016604e8410600b8410161715620007a35782820a9050838111156200079d576200079c62000656565b5b620007d2565b620007b2848484600162000692565b92509050818404811115620007cc57620007cb62000656565b5b81810290505b9392505050565b6000819050919050565b6000620007f082620007d9565b9150620007fd83620005e6565b92506200082c7fffffffffffffffffffffffffffffffffffffffffffffffffffffffffffffffff8484620006ed565b905092915050565b60006200084182620007d9565b91506200084e83620007d9565b9250817fffffffffffffffffffffffffffffffffffffffffffffffffffffffffffffffff04831182151516156200088a576200088962000656565b5b828202905092915050565b7f4e487b7100000000000000000000000000000000000000000000000000000000600052602260045260246000fd5b60006002820490506001821680620008dd57607f821691505b602082108103620008f357620008f262000895565b5b50919050565b61378780620009096000396000f3fe608060405234801561001057600080fd5b50600436106101375760003560e01c8063715018a6116100b8578063a22cb4651161007c578063a22cb4651461033c578063b88d4fde14610358578063c87b56dd14610374578063e985e9c5146103a4578063f2fde38b146103d4578063f6c1b77a146103f057610137565b8063715018a6146102a857806388de44bc146102b25780638da5cb5b146102e2578063956236411461030057806395d89b411461031e57610137565b806314d889cf116100ff57806314d889cf146101f257806323b872dd1461021057806342842e0e1461022c5780636352211e1461024857806370a082311461027857610137565b806301ffc9a71461013c57806306a87dc01461016c57806306fdde0314610188578063081812fc146101a6578063095ea7b3146101d6575b600080fd5b61015660048036038101906101519190611ff4565b610420565b604051610163919061203c565b60405180910390f35b6101866004803603810190610181919061208d565b610502565b005b61019061065b565b60405161019d9190612166565b60405180910390f35b6101c060048036038101906101bb9190612188565b6106ed565b6040516101cd91906121f6565b60405180910390f35b6101f060048036038101906101eb919061223d565b610772565b005b6101fa610889565b60405161020791906122dc565b60405180910390f35b61022a600480360381019061022591906122f7565b6108af565b005b610246600480360381019061024191906122f7565b61090f565b005b610262600480360381019061025d9190612188565b61092f565b60405161026f91906121f6565b60405180910390f35b610292600480360381019061028d919061234a565b6109e0565b60405161029f9190612386565b60405180910390f35b6102b0610a97565b005b6102cc60048036038101906102c7919061208d565b610b1f565b6040516102d9919061245f565b60405180910390f35b6102ea610df0565b6040516102f791906121f6565b60405180910390f35b610308610e1a565b60405161031591906121f6565b60405180910390f35b610326610e40565b6040516103339190612166565b60405180910390f35b610356600480360381019061035191906124ad565b610ed2565b005b610372600480360381019061036d9190612622565b610ee8565b005b61038e60048036038101906103899190612188565b610f4a565b60405161039b9190612166565b60405180910390f35b6103be60048036038101906103b991906126a5565b610ff1565b6040516103cb919061203c565b60405180910390f35b6103ee60048036038101906103e9919061234a565b611085565b005b61040a6004803603810190610405919061234a565b61117c565b604051610417919061245f565b60405180910390f35b60007f80ac58cd000000000000000000000000000000000000000000000000000000007bffffffffffffffffffffffffffffffffffffffffffffffffffffffff1916827bffffffffffffffffffffffffffffffffffffffffffffffffffffffff191614806104eb57507f5b5e139f000000000000000000000000000000000000000000000000000000007bffffffffffffffffffffffffffffffffffffffffffffffffffffffff1916827bffffffffffffffffffffffffffffffffffffffffffffffffffffffff1916145b806104fb57506104fa8261128e565b5b9050919050565b61050a6112f8565b73ffffffffffffffffffffffffffffffffffffffff16610528610df0565b73ffffffffffffffffffffffffffffffffffffffff161461057e576040517f08c379a000000000000000000000000000000000000000000000000000000000815260040161057590612731565b60405180910390fd5b6000821161058b57600080fd5b600a811161059857600080fd5b600960009054906101000a900473ffffffffffffffffffffffffffffffffffffffff1673ffffffffffffffffffffffffffffffffffffffff1663313ce5676040518163ffffffff1660e01b8152600401602060405180830381865afa158015610605573d6000803e3d6000fd5b505050506040513d601f19601f82011682018060405250810190610629919061278a565b600a6106359190612919565b816106409190612964565b600a6000848152602001908152602001600020819055505050565b60606000805461066a906129ed565b80601f0160208091040260200160405190810160405280929190818152602001828054610696906129ed565b80156106e35780601f106106b8576101008083540402835291602001916106e3565b820191906000526020600020905b8154815290600101906020018083116106c657829003601f168201915b5050505050905090565b60006106f882611300565b610737576040517f08c379a000000000000000000000000000000000000000000000000000000000815260040161072e90612a90565b60405180910390fd5b6004600083815260200190815260200160002060009054906101000a900473ffffffffffffffffffffffffffffffffffffffff169050919050565b600061077d8261092f565b90508073ffffffffffffffffffffffffffffffffffffffff168373ffffffffffffffffffffffffffffffffffffffff16036107ed576040517f08c379a00000000000000000000000000000000000000000000000000000000081526004016107e490612b22565b60405180910390fd5b8073ffffffffffffffffffffffffffffffffffffffff1661080c6112f8565b73ffffffffffffffffffffffffffffffffffffffff16148061083b575061083a816108356112f8565b610ff1565b5b61087a576040517f08c379a000000000000000000000000000000000000000000000000000000000815260040161087190612bb4565b60405180910390fd5b610884838361136c565b505050565b600960009054906101000a900473ffffffffffffffffffffffffffffffffffffffff1681565b6108c06108ba6112f8565b82611425565b6108ff576040517f08c379a00000000000000000000000000000000000000000000000000000000081526004016108f690612c46565b60405180910390fd5b61090a838383611503565b505050565b61092a83838360405180602001604052806000815250610ee8565b505050565b6000806002600084815260200190815260200160002060009054906101000a900473ffffffffffffffffffffffffffffffffffffffff169050600073ffffffffffffffffffffffffffffffffffffffff168173ffffffffffffffffffffffffffffffffffffffff16036109d7576040517f08c379a00000000000000000000000000000000000000000000000000000000081526004016109ce90612cd8565b60405180910390fd5b80915050919050565b60008073ffffffffffffffffffffffffffffffffffffffff168273ffffffffffffffffffffffffffffffffffffffff1603610a50576040517f08c379a0000000000000000000000000000000000000000000000000000000008152600401610a4790612d6a565b60405180910390fd5b600360008373ffffffffffffffffffffffffffffffffffffffff1673ffffffffffffffffffffffffffffffffffffffff168152602001908152602001600020549050919050565b610a9f6112f8565b73ffffffffffffffffffffffffffffffffffffffff16610abd610df0565b73ffffffffffffffffffffffffffffffffffffffff1614610b13576040517f08c379a0000000000000000000000000000000000000000000000000000000008152600401610b0a90612731565b60405180910390fd5b610b1d6000611769565b565b606060008211610b64576040517f08c379a0000000000000000000000000000000000000000000000000000000008152600401610b5b90612dd6565b60405180910390fd5b6000600a60008581526020019081526020016000205483610b859190612964565b90506000600960009054906101000a900473ffffffffffffffffffffffffffffffffffffffff1673ffffffffffffffffffffffffffffffffffffffff1663dd62ed3e33306040518363ffffffff1660e01b8152600401610be6929190612df6565b602060405180830381865afa158015610c03573d6000803e3d6000fd5b505050506040513d601f19601f82011682018060405250810190610c279190612e34565b905081811015610c6c576040517f08c379a0000000000000000000000000000000000000000000000000000000008152600401610c6390612ed3565b60405180910390fd5b600960009054906101000a900473ffffffffffffffffffffffffffffffffffffffff1673ffffffffffffffffffffffffffffffffffffffff166323b872dd33610cb3610df0565b856040518463ffffffff1660e01b8152600401610cd293929190612ef3565b6020604051808303816000875af1158015610cf1573d6000803e3d6000fd5b505050506040513d601f19601f82011682018060405250810190610d159190612f3f565b5060008467ffffffffffffffff811115610d3257610d316124f7565b5b604051908082528060200260200182016040528015610d605781602001602082028036833780820191505090505b50905060005b85811015610da857610d7661182f565b828281518110610d8957610d88612f6c565b5b6020026020010181815250508080610da090612f9b565b915050610d66565b507fd284149afaee9745ddde68b5f0f3d5d91b767f4f266565f08acceea00fdad08c813388604051610ddc93929190612fe3565b60405180910390a180935050505092915050565b6000600660009054906101000a900473ffffffffffffffffffffffffffffffffffffffff16905090565b600860009054906101000a900473ffffffffffffffffffffffffffffffffffffffff1681565b606060018054610e4f906129ed565b80601f0160208091040260200160405190810160405280929190818152602001828054610e7b906129ed565b8015610ec85780601f10610e9d57610100808354040283529160200191610ec8565b820191906000526020600020905b815481529060010190602001808311610eab57829003601f168201915b5050505050905090565b610ee4610edd6112f8565b838361188f565b5050565b610ef9610ef36112f8565b83611425565b610f38576040517f08c379a0000000000000000000000000000000000000000000000000000000008152600401610f2f90612c46565b60405180910390fd5b610f44848484846119fb565b50505050565b6060610f5582611300565b610f94576040517f08c379a0000000000000000000000000000000000000000000000000000000008152600401610f8b90613093565b60405180910390fd5b6000610f9e611a57565b90506000815111610fbe5760405180602001604052806000815250610fe9565b80610fc884611a77565b604051602001610fd99291906130ef565b6040516020818303038152906040525b915050919050565b6000600560008473ffffffffffffffffffffffffffffffffffffffff1673ffffffffffffffffffffffffffffffffffffffff16815260200190815260200160002060008373ffffffffffffffffffffffffffffffffffffffff1673ffffffffffffffffffffffffffffffffffffffff16815260200190815260200160002060009054906101000a900460ff16905092915050565b61108d6112f8565b73ffffffffffffffffffffffffffffffffffffffff166110ab610df0565b73ffffffffffffffffffffffffffffffffffffffff1614611101576040517f08c379a00000000000000000000000000000000000000000000000000000000081526004016110f890612731565b60405180910390fd5b600073ffffffffffffffffffffffffffffffffffffffff168173ffffffffffffffffffffffffffffffffffffffff1603611170576040517f08c379a000000000000000000000000000000000000000000000000000000000815260040161116790613185565b60405180910390fd5b61117981611769565b50565b6060600061118a6007611bd7565b90506000611197846109e0565b67ffffffffffffffff8111156111b0576111af6124f7565b5b6040519080825280602002602001820160405280156111de5781602001602082028036833780820191505090505b5090506000805b83811015611282578573ffffffffffffffffffffffffffffffffffffffff1661121960018361121491906131a5565b61092f565b73ffffffffffffffffffffffffffffffffffffffff160361126f5760018161124191906131a5565b83838151811061125457611253612f6c565b5b602002602001018181525050818061126b90612f9b565b9250505b808061127a90612f9b565b9150506111e5565b50819350505050919050565b60007f01ffc9a7000000000000000000000000000000000000000000000000000000007bffffffffffffffffffffffffffffffffffffffffffffffffffffffff1916827bffffffffffffffffffffffffffffffffffffffffffffffffffffffff1916149050919050565b600033905090565b60008073ffffffffffffffffffffffffffffffffffffffff166002600084815260200190815260200160002060009054906101000a900473ffffffffffffffffffffffffffffffffffffffff1673ffffffffffffffffffffffffffffffffffffffff1614159050919050565b816004600083815260200190815260200160002060006101000a81548173ffffffffffffffffffffffffffffffffffffffff021916908373ffffffffffffffffffffffffffffffffffffffff160217905550808273ffffffffffffffffffffffffffffffffffffffff166113df8361092f565b73ffffffffffffffffffffffffffffffffffffffff167f8c5be1e5ebec7d5bd14f71427d1e84f3dd0314c0f7b2291e5b200ac8c7c3b92560405160405180910390a45050565b600061143082611300565b61146f576040517f08c379a00000000000000000000000000000000000000000000000000000000081526004016114669061326d565b60405180910390fd5b600061147a8361092f565b90508073ffffffffffffffffffffffffffffffffffffffff168473ffffffffffffffffffffffffffffffffffffffff1614806114bc57506114bb8185610ff1565b5b806114fa57508373ffffffffffffffffffffffffffffffffffffffff166114e2846106ed565b73ffffffffffffffffffffffffffffffffffffffff16145b91505092915050565b8273ffffffffffffffffffffffffffffffffffffffff166115238261092f565b73ffffffffffffffffffffffffffffffffffffffff1614611579576040517f08c379a0000000000000000000000000000000000000000000000000000000008152600401611570906132ff565b60405180910390fd5b600073ffffffffffffffffffffffffffffffffffffffff168273ffffffffffffffffffffffffffffffffffffffff16036115e8576040517f08c379a00000000000000000000000000000000000000000000000000000000081526004016115df90613391565b60405180910390fd5b6115f3838383611be5565b6115fe60008261136c565b6001600360008573ffffffffffffffffffffffffffffffffffffffff1673ffffffffffffffffffffffffffffffffffffffff168152602001908152602001600020600082825461164e91906133b1565b925050819055506001600360008473ffffffffffffffffffffffffffffffffffffffff1673ffffffffffffffffffffffffffffffffffffffff16815260200190815260200160002060008282546116a591906131a5565b92505081905550816002600083815260200190815260200160002060006101000a81548173ffffffffffffffffffffffffffffffffffffffff021916908373ffffffffffffffffffffffffffffffffffffffff160217905550808273ffffffffffffffffffffffffffffffffffffffff168473ffffffffffffffffffffffffffffffffffffffff167fddf252ad1be2c89b69c2b068fc378daa952ba7f163c4a11628f55a4df523b3ef60405160405180910390a4611764838383611bea565b505050565b6000600660009054906101000a900473ffffffffffffffffffffffffffffffffffffffff16905081600660006101000a81548173ffffffffffffffffffffffffffffffffffffffff021916908373ffffffffffffffffffffffffffffffffffffffff1602179055508173ffffffffffffffffffffffffffffffffffffffff168173ffffffffffffffffffffffffffffffffffffffff167f8be0079c531659141344cd1fd0a4f28419497f9722a3daafe3b4186f6b6457e060405160405180910390a35050565b600061183b6007611bef565b60006118476007611bd7565b90506118533382611c05565b61188861185e6112f8565b600860009054906101000a900473ffffffffffffffffffffffffffffffffffffffff16600161188f565b8091505090565b8173ffffffffffffffffffffffffffffffffffffffff168373ffffffffffffffffffffffffffffffffffffffff16036118fd576040517f08c379a00000000000000000000000000000000000000000000000000000000081526004016118f490613431565b60405180910390fd5b80600560008573ffffffffffffffffffffffffffffffffffffffff1673ffffffffffffffffffffffffffffffffffffffff16815260200190815260200160002060008473ffffffffffffffffffffffffffffffffffffffff1673ffffffffffffffffffffffffffffffffffffffff16815260200190815260200160002060006101000a81548160ff0219169083151502179055508173ffffffffffffffffffffffffffffffffffffffff168373ffffffffffffffffffffffffffffffffffffffff167f17307eab39ab6107e8899845ad3d59bd9653f200f220920489ca2b5937696c31836040516119ee919061203c565b60405180910390a3505050565b611a06848484611503565b611a1284848484611dde565b611a51576040517f08c379a0000000000000000000000000000000000000000000000000000000008152600401611a48906134c3565b60405180910390fd5b50505050565b606060405180606001604052806022815260200161373060229139905090565b606060008203611abe576040518060400160405280600181526020017f30000000000000000000000000000000000000000000000000000000000000008152509050611bd2565b600082905060005b60008214611af0578080611ad990612f9b565b915050600a82611ae99190613512565b9150611ac6565b60008167ffffffffffffffff811115611b0c57611b0b6124f7565b5b6040519080825280601f01601f191660200182016040528015611b3e5781602001600182028036833780820191505090505b5090505b60008514611bcb57600182611b5791906133b1565b9150600a85611b669190613543565b6030611b7291906131a5565b60f81b818381518110611b8857611b87612f6c565b5b60200101907effffffffffffffffffffffffffffffffffffffffffffffffffffffffffffff1916908160001a905350600a85611bc49190613512565b9450611b42565b8093505050505b919050565b600081600001549050919050565b505050565b505050565b6001816000016000828254019250508190555050565b600073ffffffffffffffffffffffffffffffffffffffff168273ffffffffffffffffffffffffffffffffffffffff1603611c74576040517f08c379a0000000000000000000000000000000000000000000000000000000008152600401611c6b906135c0565b60405180910390fd5b611c7d81611300565b15611cbd576040517f08c379a0000000000000000000000000000000000000000000000000000000008152600401611cb49061362c565b60405180910390fd5b611cc960008383611be5565b6001600360008473ffffffffffffffffffffffffffffffffffffffff1673ffffffffffffffffffffffffffffffffffffffff1681526020019081526020016000206000828254611d1991906131a5565b92505081905550816002600083815260200190815260200160002060006101000a81548173ffffffffffffffffffffffffffffffffffffffff021916908373ffffffffffffffffffffffffffffffffffffffff160217905550808273ffffffffffffffffffffffffffffffffffffffff16600073ffffffffffffffffffffffffffffffffffffffff167fddf252ad1be2c89b69c2b068fc378daa952ba7f163c4a11628f55a4df523b3ef60405160405180910390a4611dda60008383611bea565b5050565b6000611dff8473ffffffffffffffffffffffffffffffffffffffff16611f65565b15611f58578373ffffffffffffffffffffffffffffffffffffffff1663150b7a02611e286112f8565b8786866040518563ffffffff1660e01b8152600401611e4a94939291906136a1565b6020604051808303816000875af1925050508015611e8657506040513d601f19601f82011682018060405250810190611e839190613702565b60015b611f08573d8060008114611eb6576040519150601f19603f3d011682016040523d82523d6000602084013e611ebb565b606091505b506000815103611f00576040517f08c379a0000000000000000000000000000000000000000000000000000000008152600401611ef7906134c3565b60405180910390fd5b805181602001fd5b63150b7a0260e01b7bffffffffffffffffffffffffffffffffffffffffffffffffffffffff1916817bffffffffffffffffffffffffffffffffffffffffffffffffffffffff191614915050611f5d565b600190505b949350505050565b6000808273ffffffffffffffffffffffffffffffffffffffff163b119050919050565b6000604051905090565b600080fd5b600080fd5b60007fffffffff0000000000000000000000000000000000000000000000000000000082169050919050565b611fd181611f9c565b8114611fdc57600080fd5b50565b600081359050611fee81611fc8565b92915050565b60006020828403121561200a57612009611f92565b5b600061201884828501611fdf565b91505092915050565b60008115159050919050565b61203681612021565b82525050565b6000602082019050612051600083018461202d565b92915050565b6000819050919050565b61206a81612057565b811461207557600080fd5b50565b60008135905061208781612061565b92915050565b600080604083850312156120a4576120a3611f92565b5b60006120b285828601612078565b92505060206120c385828601612078565b9150509250929050565b600081519050919050565b600082825260208201905092915050565b60005b838110156121075780820151818401526020810190506120ec565b83811115612116576000848401525b50505050565b6000601f19601f8301169050919050565b6000612138826120cd565b61214281856120d8565b93506121528185602086016120e9565b61215b8161211c565b840191505092915050565b60006020820190508181036000830152612180818461212d565b905092915050565b60006020828403121561219e5761219d611f92565b5b60006121ac84828501612078565b91505092915050565b600073ffffffffffffffffffffffffffffffffffffffff82169050919050565b60006121e0826121b5565b9050919050565b6121f0816121d5565b82525050565b600060208201905061220b60008301846121e7565b92915050565b61221a816121d5565b811461222557600080fd5b50565b60008135905061223781612211565b92915050565b6000806040838503121561225457612253611f92565b5b600061226285828601612228565b925050602061227385828601612078565b9150509250929050565b6000819050919050565b60006122a261229d612298846121b5565b61227d565b6121b5565b9050919050565b60006122b482612287565b9050919050565b60006122c6826122a9565b9050919050565b6122d6816122bb565b82525050565b60006020820190506122f160008301846122cd565b92915050565b6000806000606084860312156123105761230f611f92565b5b600061231e86828701612228565b935050602061232f86828701612228565b925050604061234086828701612078565b9150509250925092565b6000602082840312156123605761235f611f92565b5b600061236e84828501612228565b91505092915050565b61238081612057565b82525050565b600060208201905061239b6000830184612377565b92915050565b600081519050919050565b600082825260208201905092915050565b6000819050602082019050919050565b6123d681612057565b82525050565b60006123e883836123cd565b60208301905092915050565b6000602082019050919050565b600061240c826123a1565b61241681856123ac565b9350612421836123bd565b8060005b8381101561245257815161243988826123dc565b9750612444836123f4565b925050600181019050612425565b5085935050505092915050565b600060208201905081810360008301526124798184612401565b905092915050565b61248a81612021565b811461249557600080fd5b50565b6000813590506124a781612481565b92915050565b600080604083850312156124c4576124c3611f92565b5b60006124d285828601612228565b92505060206124e385828601612498565b9150509250929050565b600080fd5b600080fd5b7f4e487b7100000000000000000000000000000000000000000000000000000000600052604160045260246000fd5b61252f8261211c565b810181811067ffffffffffffffff8211171561254e5761254d6124f7565b5b80604052505050565b6000612561611f88565b905061256d8282612526565b919050565b600067ffffffffffffffff82111561258d5761258c6124f7565b5b6125968261211c565b9050602081019050919050565b82818337600083830152505050565b60006125c56125c084612572565b612557565b9050828152602081018484840111156125e1576125e06124f2565b5b6125ec8482856125a3565b509392505050565b600082601f830112612609576126086124ed565b5b81356126198482602086016125b2565b91505092915050565b6000806000806080858703121561263c5761263b611f92565b5b600061264a87828801612228565b945050602061265b87828801612228565b935050604061266c87828801612078565b925050606085013567ffffffffffffffff81111561268d5761268c611f97565b5b612699878288016125f4565b91505092959194509250565b600080604083850312156126bc576126bb611f92565b5b60006126ca85828601612228565b92505060206126db85828601612228565b9150509250929050565b7f4f776e61626c653a2063616c6c6572206973206e6f7420746865206f776e6572600082015250565b600061271b6020836120d8565b9150612726826126e5565b602082019050919050565b6000602082019050818103600083015261274a8161270e565b9050919050565b600060ff82169050919050565b61276781612751565b811461277257600080fd5b50565b6000815190506127848161275e565b92915050565b6000602082840312156127a05761279f611f92565b5b60006127ae84828501612775565b91505092915050565b7f4e487b7100000000000000000000000000000000000000000000000000000000600052601160045260246000fd5b60008160011c9050919050565b6000808291508390505b600185111561283d57808604811115612819576128186127b7565b5b60018516156128285780820291505b8081029050612836856127e6565b94506127fd565b94509492505050565b6000826128565760019050612912565b816128645760009050612912565b816001811461287a5760028114612884576128b3565b6001915050612912565b60ff841115612896576128956127b7565b5b8360020a9150848211156128ad576128ac6127b7565b5b50612912565b5060208310610133831016604e8410600b84101617156128e85782820a9050838111156128e3576128e26127b7565b5b612912565b6128f584848460016127f3565b9250905081840481111561290c5761290b6127b7565b5b81810290505b9392505050565b600061292482612057565b915061292f83612751565b925061295c7fffffffffffffffffffffffffffffffffffffffffffffffffffffffffffffffff8484612846565b905092915050565b600061296f82612057565b915061297a83612057565b9250817fffffffffffffffffffffffffffffffffffffffffffffffffffffffffffffffff04831182151516156129b3576129b26127b7565b5b828202905092915050565b7f4e487b7100000000000000000000000000000000000000000000000000000000600052602260045260246000fd5b60006002820490506001821680612a0557607f821691505b602082108103612a1857612a176129be565b5b50919050565b7f4552433732313a20617070726f76656420717565727920666f72206e6f6e657860008201527f697374656e7420746f6b656e0000000000000000000000000000000000000000602082015250565b6000612a7a602c836120d8565b9150612a8582612a1e565b604082019050919050565b60006020820190508181036000830152612aa981612a6d565b9050919050565b7f4552433732313a20617070726f76616c20746f2063757272656e74206f776e6560008201527f7200000000000000000000000000000000000000000000000000000000000000602082015250565b6000612b0c6021836120d8565b9150612b1782612ab0565b604082019050919050565b60006020820190508181036000830152612b3b81612aff565b9050919050565b7f4552433732313a20617070726f76652063616c6c6572206973206e6f74206f7760008201527f6e6572206e6f7220617070726f76656420666f7220616c6c0000000000000000602082015250565b6000612b9e6038836120d8565b9150612ba982612b42565b604082019050919050565b60006020820190508181036000830152612bcd81612b91565b9050919050565b7f4552433732313a207472616e736665722063616c6c6572206973206e6f74206f60008201527f776e6572206e6f7220617070726f766564000000000000000000000000000000602082015250565b6000612c306031836120d8565b9150612c3b82612bd4565b604082019050919050565b60006020820190508181036000830152612c5f81612c23565b9050919050565b7f4552433732313a206f776e657220717565727920666f72206e6f6e657869737460008201527f656e7420746f6b656e0000000000000000000000000000000000000000000000602082015250565b6000612cc26029836120d8565b9150612ccd82612c66565b604082019050919050565b60006020820190508181036000830152612cf181612cb5565b9050919050565b7f4552433732313a2062616c616e636520717565727920666f7220746865207a6560008201527f726f206164647265737300000000000000000000000000000000000000000000602082015250565b6000612d54602a836120d8565b9150612d5f82612cf8565b604082019050919050565b60006020820190508181036000830152612d8381612d47565b9050919050565b7f426f78416d6f756e74206d757374203e20300000000000000000000000000000600082015250565b6000612dc06012836120d8565b9150612dcb82612d8a565b602082019050919050565b60006020820190508181036000830152612def81612db3565b9050919050565b6000604082019050612e0b60008301856121e7565b612e1860208301846121e7565b9392505050565b600081519050612e2e81612061565b92915050565b600060208284031215612e4a57612e49611f92565b5b6000612e5884828501612e1f565b91505092915050565b7f596f7520646f206e6f74206861766520656e6f75676820444b4320746f20627560008201527f7920426f78657300000000000000000000000000000000000000000000000000602082015250565b6000612ebd6027836120d8565b9150612ec882612e61565b604082019050919050565b60006020820190508181036000830152612eec81612eb0565b9050919050565b6000606082019050612f0860008301866121e7565b612f1560208301856121e7565b612f226040830184612377565b949350505050565b600081519050612f3981612481565b92915050565b600060208284031215612f5557612f54611f92565b5b6000612f6384828501612f2a565b91505092915050565b7f4e487b7100000000000000000000000000000000000000000000000000000000600052603260045260246000fd5b6000612fa682612057565b91507fffffffffffffffffffffffffffffffffffffffffffffffffffffffffffffffff8203612fd857612fd76127b7565b5b600182019050919050565b60006060820190508181036000830152612ffd8186612401565b905061300c60208301856121e7565b6130196040830184612377565b949350505050565b7f4552433732314d657461646174613a2055524920717565727920666f72206e6f60008201527f6e6578697374656e7420746f6b656e0000000000000000000000000000000000602082015250565b600061307d602f836120d8565b915061308882613021565b604082019050919050565b600060208201905081810360008301526130ac81613070565b9050919050565b600081905092915050565b60006130c9826120cd565b6130d381856130b3565b93506130e38185602086016120e9565b80840191505092915050565b60006130fb82856130be565b915061310782846130be565b91508190509392505050565b7f4f776e61626c653a206e6577206f776e657220697320746865207a65726f206160008201527f6464726573730000000000000000000000000000000000000000000000000000602082015250565b600061316f6026836120d8565b915061317a82613113565b604082019050919050565b6000602082019050818103600083015261319e81613162565b9050919050565b60006131b082612057565b91506131bb83612057565b9250827fffffffffffffffffffffffffffffffffffffffffffffffffffffffffffffffff038211156131f0576131ef6127b7565b5b828201905092915050565b7f4552433732313a206f70657261746f7220717565727920666f72206e6f6e657860008201527f697374656e7420746f6b656e0000000000000000000000000000000000000000602082015250565b6000613257602c836120d8565b9150613262826131fb565b604082019050919050565b600060208201905081810360008301526132868161324a565b9050919050565b7f4552433732313a207472616e736665722066726f6d20696e636f72726563742060008201527f6f776e6572000000000000000000000000000000000000000000000000000000602082015250565b60006132e96025836120d8565b91506132f48261328d565b604082019050919050565b60006020820190508181036000830152613318816132dc565b9050919050565b7f4552433732313a207472616e7366657220746f20746865207a65726f2061646460008201527f7265737300000000000000000000000000000000000000000000000000000000602082015250565b600061337b6024836120d8565b91506133868261331f565b604082019050919050565b600060208201905081810360008301526133aa8161336e565b9050919050565b60006133bc82612057565b91506133c783612057565b9250828210156133da576133d96127b7565b5b828203905092915050565b7f4552433732313a20617070726f766520746f2063616c6c657200000000000000600082015250565b600061341b6019836120d8565b9150613426826133e5565b602082019050919050565b6000602082019050818103600083015261344a8161340e565b9050919050565b7f4552433732313a207472616e7366657220746f206e6f6e20455243373231526560008201527f63656976657220696d706c656d656e7465720000000000000000000000000000602082015250565b60006134ad6032836120d8565b91506134b882613451565b604082019050919050565b600060208201905081810360008301526134dc816134a0565b9050919050565b7f4e487b7100000000000000000000000000000000000000000000000000000000600052601260045260246000fd5b600061351d82612057565b915061352883612057565b925082613538576135376134e3565b5b828204905092915050565b600061354e82612057565b915061355983612057565b925082613569576135686134e3565b5b828206905092915050565b7f4552433732313a206d696e7420746f20746865207a65726f2061646472657373600082015250565b60006135aa6020836120d8565b91506135b582613574565b602082019050919050565b600060208201905081810360008301526135d98161359d565b9050919050565b7f4552433732313a20746f6b656e20616c7265616479206d696e74656400000000600082015250565b6000613616601c836120d8565b9150613621826135e0565b602082019050919050565b6000602082019050818103600083015261364581613609565b9050919050565b600081519050919050565b600082825260208201905092915050565b60006136738261364c565b61367d8185613657565b935061368d8185602086016120e9565b6136968161211c565b840191505092915050565b60006080820190506136b660008301876121e7565b6136c360208301866121e7565b6136d06040830185612377565b81810360608301526136e28184613668565b905095945050505050565b6000815190506136fc81611fc8565b92915050565b60006020828403121561371857613717611f92565b5b6000613726848285016136ed565b9150509291505056fe687474703a2f2f34342e3230342e31312e31303a383038302f6d657461646174612fa2646970667358221220d7b810ac73951abbee4b3473e0d88f3b2292ab585a7b5031f9d17a465b005ff864736f6c634300080d0033",
  "immutableReferences": {},
  "source": "// SPDX-License-Identifier: MIT\r\n\r\npragma solidity ^0.8.13;\r\n\r\nimport \"@openzeppelin/contracts/token/ERC721/ERC721.sol\";\r\nimport \"@openzeppelin/contracts/utils/Counters.sol\";\r\nimport \"@openzeppelin/contracts/token/ERC20/ERC20.sol\";\r\nimport \"@openzeppelin/contracts/access/Ownable.sol\";\r\n\r\ncontract TankNFT is ERC721, Ownable {\r\n    using Counters for Counters.Counter;\r\n    Counters.Counter private _tokenIds;\r\n    address public marketAddress;\r\n    ERC20 public deathKingdomCoin;\r\n    mapping(uint256 => uint256) boxPrices;\r\n\r\n    constructor(address _mrketplaceContract, address _deathKingdomCoinContract)\r\n        ERC721(\"TankNFTToken\", \"DKT\")\r\n    {\r\n        marketAddress = _mrketplaceContract;\r\n        deathKingdomCoin = ERC20(_deathKingdomCoinContract);\r\n        setBoxPrice(1, 200);\r\n    }\r\n\r\n    function setBoxPrice(uint256 _boxId, uint256 _price) public onlyOwner {\r\n        require(_boxId > 0);\r\n        require(_price > 10);\r\n        boxPrices[_boxId] = _price * 10**deathKingdomCoin.decimals();\r\n    }\r\n\r\n    function _baseURI() internal pure override returns (string memory) {\r\n        return \"http://44.204.11.10:8080/metadata/\";\r\n    }\r\n\r\n    event BoxSold(uint256[] listTokenId, address tokenOwner, uint256 boxId);\r\n\r\n    function buyBoxes(uint256 _boxId, uint256 _amount)\r\n        public\r\n        returns (uint256[] memory)\r\n    {\r\n        require(_amount > 0, \"BoxAmount must > 0\");\r\n        uint256 totalPrice = _amount * boxPrices[_boxId];\r\n\r\n        uint256 allowance = deathKingdomCoin.allowance(\r\n            msg.sender,\r\n            address(this)\r\n        );\r\n        require(\r\n            allowance >= totalPrice,\r\n            \"You do not have enough DKC to buy Boxes\"\r\n        );\r\n\r\n        deathKingdomCoin.transferFrom(msg.sender, owner(), totalPrice);\r\n\r\n        uint256[] memory nfts = new uint256[](_amount);\r\n        for (uint256 i = 0; i < _amount; i++) {\r\n            nfts[i] = createToken();\r\n        }\r\n        emit BoxSold(nfts, msg.sender, _boxId);\r\n        return nfts;\r\n    }\r\n\r\n    function createToken() private returns (uint256) {\r\n        _tokenIds.increment();\r\n        uint256 newTokenId = _tokenIds.current();\r\n\r\n        _mint(msg.sender, newTokenId);\r\n        _setApprovalForAll(_msgSender(), marketAddress, true);\r\n        return newTokenId;\r\n    }\r\n\r\n    function getMyNfts(address _ownerAddress)\r\n        public\r\n        view\r\n        returns (uint256[] memory)\r\n    {\r\n        uint256 nftCount = _tokenIds.current();\r\n        uint256[] memory nfts = new uint256[](balanceOf(_ownerAddress));\r\n        uint256 nftIndex = 0;\r\n        for (uint256 i = 0; i < nftCount; i++) {\r\n            if (ownerOf(i + 1) == _ownerAddress) {\r\n                nfts[nftIndex] = i + 1;\r\n                nftIndex++;\r\n            }\r\n        }\r\n        return nfts;\r\n    }\r\n}\r\n",
  "sourcePath": "D:\\code\\TheDeadKingdom\\Contract\\contracts\\ethereum\\TankNFT.sol",
  "compiler": {
    "name": "solc",
    "version": "0.8.13+commit.abaa5c0e.Emscripten.clang"
  },
  "schemaVersion": "3.4.7",
  "updatedAt": "2022-08-08T10:46:03.208Z",
  "networkType": "ethereum",
  "devdoc": {
    "kind": "dev",
    "methods": {
      "approve(address,uint256)": {
        "details": "See {IERC721-approve}."
      },
      "balanceOf(address)": {
        "details": "See {IERC721-balanceOf}."
      },
      "getApproved(uint256)": {
        "details": "See {IERC721-getApproved}."
      },
      "isApprovedForAll(address,address)": {
        "details": "See {IERC721-isApprovedForAll}."
      },
      "name()": {
        "details": "See {IERC721Metadata-name}."
      },
      "owner()": {
        "details": "Returns the address of the current owner."
      },
      "ownerOf(uint256)": {
        "details": "See {IERC721-ownerOf}."
      },
      "renounceOwnership()": {
        "details": "Leaves the contract without owner. It will not be possible to call `onlyOwner` functions anymore. Can only be called by the current owner. NOTE: Renouncing ownership will leave the contract without an owner, thereby removing any functionality that is only available to the owner."
      },
      "safeTransferFrom(address,address,uint256)": {
        "details": "See {IERC721-safeTransferFrom}."
      },
      "safeTransferFrom(address,address,uint256,bytes)": {
        "details": "See {IERC721-safeTransferFrom}."
      },
      "setApprovalForAll(address,bool)": {
        "details": "See {IERC721-setApprovalForAll}."
      },
      "supportsInterface(bytes4)": {
        "details": "See {IERC165-supportsInterface}."
      },
      "symbol()": {
        "details": "See {IERC721Metadata-symbol}."
      },
      "tokenURI(uint256)": {
        "details": "See {IERC721Metadata-tokenURI}."
      },
      "transferFrom(address,address,uint256)": {
        "details": "See {IERC721-transferFrom}."
      },
      "transferOwnership(address)": {
        "details": "Transfers ownership of the contract to a new account (`newOwner`). Can only be called by the current owner."
      }
    },
    "version": 1
  },
  "userdoc": {
    "kind": "user",
    "methods": {},
    "version": 1
  }
}