{
  "contractName": "TankNFT",
  "abi": [
    {
      "inputs": [
        {
          "internalType": "address",
          "name": "_mrketplaceContract",
          "type": "address"
        },
        {
          "internalType": "address",
          "name": "_deathKingdomCoinContract",
          "type": "address"
        }
      ],
      "stateMutability": "nonpayable",
      "type": "constructor"
    },
    {
      "anonymous": false,
      "inputs": [
        {
          "indexed": true,
          "internalType": "address",
          "name": "owner",
          "type": "address"
        },
        {
          "indexed": true,
          "internalType": "address",
          "name": "approved",
          "type": "address"
        },
        {
          "indexed": true,
          "internalType": "uint256",
          "name": "tokenId",
          "type": "uint256"
        }
      ],
      "name": "Approval",
      "type": "event"
    },
    {
      "anonymous": false,
      "inputs": [
        {
          "indexed": true,
          "internalType": "address",
          "name": "owner",
          "type": "address"
        },
        {
          "indexed": true,
          "internalType": "address",
          "name": "operator",
          "type": "address"
        },
        {
          "indexed": false,
          "internalType": "bool",
          "name": "approved",
          "type": "bool"
        }
      ],
      "name": "ApprovalForAll",
      "type": "event"
    },
    {
      "anonymous": false,
      "inputs": [
        {
          "indexed": false,
          "internalType": "uint256[]",
          "name": "listTokenId",
          "type": "uint256[]"
        },
        {
          "indexed": false,
          "internalType": "address",
          "name": "tokenOwner",
          "type": "address"
        },
        {
          "indexed": false,
          "internalType": "string",
          "name": "boxId",
          "type": "string"
        }
      ],
      "name": "BoxSold",
      "type": "event"
    },
    {
      "anonymous": false,
      "inputs": [
        {
          "indexed": true,
          "internalType": "address",
          "name": "previousOwner",
          "type": "address"
        },
        {
          "indexed": true,
          "internalType": "address",
          "name": "newOwner",
          "type": "address"
        }
      ],
      "name": "OwnershipTransferred",
      "type": "event"
    },
    {
      "anonymous": false,
      "inputs": [
        {
          "indexed": true,
          "internalType": "address",
          "name": "from",
          "type": "address"
        },
        {
          "indexed": true,
          "internalType": "address",
          "name": "to",
          "type": "address"
        },
        {
          "indexed": true,
          "internalType": "uint256",
          "name": "tokenId",
          "type": "uint256"
        }
      ],
      "name": "Transfer",
      "type": "event"
    },
    {
      "inputs": [
        {
          "internalType": "address",
          "name": "to",
          "type": "address"
        },
        {
          "internalType": "uint256",
          "name": "tokenId",
          "type": "uint256"
        }
      ],
      "name": "approve",
      "outputs": [],
      "stateMutability": "nonpayable",
      "type": "function"
    },
    {
      "inputs": [
        {
          "internalType": "address",
          "name": "owner",
          "type": "address"
        }
      ],
      "name": "balanceOf",
      "outputs": [
        {
          "internalType": "uint256",
          "name": "",
          "type": "uint256"
        }
      ],
      "stateMutability": "view",
      "type": "function",
      "constant": true
    },
    {
      "inputs": [],
      "name": "deathKingdomCoin",
      "outputs": [
        {
          "internalType": "contract ERC20",
          "name": "",
          "type": "address"
        }
      ],
      "stateMutability": "view",
      "type": "function",
      "constant": true
    },
    {
      "inputs": [
        {
          "internalType": "uint256",
          "name": "tokenId",
          "type": "uint256"
        }
      ],
      "name": "getApproved",
      "outputs": [
        {
          "internalType": "address",
          "name": "",
          "type": "address"
        }
      ],
      "stateMutability": "view",
      "type": "function",
      "constant": true
    },
    {
      "inputs": [
        {
          "internalType": "address",
          "name": "owner",
          "type": "address"
        },
        {
          "internalType": "address",
          "name": "operator",
          "type": "address"
        }
      ],
      "name": "isApprovedForAll",
      "outputs": [
        {
          "internalType": "bool",
          "name": "",
          "type": "bool"
        }
      ],
      "stateMutability": "view",
      "type": "function",
      "constant": true
    },
    {
      "inputs": [],
      "name": "marketAddress",
      "outputs": [
        {
          "internalType": "address",
          "name": "",
          "type": "address"
        }
      ],
      "stateMutability": "view",
      "type": "function",
      "constant": true
    },
    {
      "inputs": [],
      "name": "name",
      "outputs": [
        {
          "internalType": "string",
          "name": "",
          "type": "string"
        }
      ],
      "stateMutability": "view",
      "type": "function",
      "constant": true
    },
    {
      "inputs": [],
      "name": "owner",
      "outputs": [
        {
          "internalType": "address",
          "name": "",
          "type": "address"
        }
      ],
      "stateMutability": "view",
      "type": "function",
      "constant": true
    },
    {
      "inputs": [
        {
          "internalType": "uint256",
          "name": "tokenId",
          "type": "uint256"
        }
      ],
      "name": "ownerOf",
      "outputs": [
        {
          "internalType": "address",
          "name": "",
          "type": "address"
        }
      ],
      "stateMutability": "view",
      "type": "function",
      "constant": true
    },
    {
      "inputs": [],
      "name": "renounceOwnership",
      "outputs": [],
      "stateMutability": "nonpayable",
      "type": "function"
    },
    {
      "inputs": [
        {
          "internalType": "address",
          "name": "from",
          "type": "address"
        },
        {
          "internalType": "address",
          "name": "to",
          "type": "address"
        },
        {
          "internalType": "uint256",
          "name": "tokenId",
          "type": "uint256"
        }
      ],
      "name": "safeTransferFrom",
      "outputs": [],
      "stateMutability": "nonpayable",
      "type": "function"
    },
    {
      "inputs": [
        {
          "internalType": "address",
          "name": "from",
          "type": "address"
        },
        {
          "internalType": "address",
          "name": "to",
          "type": "address"
        },
        {
          "internalType": "uint256",
          "name": "tokenId",
          "type": "uint256"
        },
        {
          "internalType": "bytes",
          "name": "_data",
          "type": "bytes"
        }
      ],
      "name": "safeTransferFrom",
      "outputs": [],
      "stateMutability": "nonpayable",
      "type": "function"
    },
    {
      "inputs": [
        {
          "internalType": "address",
          "name": "operator",
          "type": "address"
        },
        {
          "internalType": "bool",
          "name": "approved",
          "type": "bool"
        }
      ],
      "name": "setApprovalForAll",
      "outputs": [],
      "stateMutability": "nonpayable",
      "type": "function"
    },
    {
      "inputs": [
        {
          "internalType": "bytes4",
          "name": "interfaceId",
          "type": "bytes4"
        }
      ],
      "name": "supportsInterface",
      "outputs": [
        {
          "internalType": "bool",
          "name": "",
          "type": "bool"
        }
      ],
      "stateMutability": "view",
      "type": "function",
      "constant": true
    },
    {
      "inputs": [],
      "name": "symbol",
      "outputs": [
        {
          "internalType": "string",
          "name": "",
          "type": "string"
        }
      ],
      "stateMutability": "view",
      "type": "function",
      "constant": true
    },
    {
      "inputs": [
        {
          "internalType": "uint256",
          "name": "tokenId",
          "type": "uint256"
        }
      ],
      "name": "tokenURI",
      "outputs": [
        {
          "internalType": "string",
          "name": "",
          "type": "string"
        }
      ],
      "stateMutability": "view",
      "type": "function",
      "constant": true
    },
    {
      "inputs": [
        {
          "internalType": "address",
          "name": "from",
          "type": "address"
        },
        {
          "internalType": "address",
          "name": "to",
          "type": "address"
        },
        {
          "internalType": "uint256",
          "name": "tokenId",
          "type": "uint256"
        }
      ],
      "name": "transferFrom",
      "outputs": [],
      "stateMutability": "nonpayable",
      "type": "function"
    },
    {
      "inputs": [
        {
          "internalType": "address",
          "name": "newOwner",
          "type": "address"
        }
      ],
      "name": "transferOwnership",
      "outputs": [],
      "stateMutability": "nonpayable",
      "type": "function"
    },
    {
      "inputs": [
        {
          "internalType": "string",
          "name": "_boxId",
          "type": "string"
        },
        {
          "internalType": "uint256",
          "name": "_price",
          "type": "uint256"
        }
      ],
      "name": "setBoxPrice",
      "outputs": [],
      "stateMutability": "nonpayable",
      "type": "function"
    },
    {
      "inputs": [
        {
          "internalType": "string",
          "name": "_boxId",
          "type": "string"
        }
      ],
      "name": "getBoxPrice",
      "outputs": [
        {
          "internalType": "uint256",
          "name": "",
          "type": "uint256"
        }
      ],
      "stateMutability": "view",
      "type": "function",
      "constant": true
    },
    {
      "inputs": [
        {
          "internalType": "string",
          "name": "_boxId",
          "type": "string"
        },
        {
          "internalType": "uint256",
          "name": "_amount",
          "type": "uint256"
        }
      ],
      "name": "buyBoxes",
      "outputs": [
        {
          "internalType": "uint256[]",
          "name": "",
          "type": "uint256[]"
        }
      ],
      "stateMutability": "nonpayable",
      "type": "function"
    },
    {
      "inputs": [
        {
          "internalType": "address",
          "name": "_ownerAddress",
          "type": "address"
        }
      ],
      "name": "getMyNfts",
      "outputs": [
        {
          "internalType": "uint256[]",
          "name": "",
          "type": "uint256[]"
        }
      ],
      "stateMutability": "view",
      "type": "function",
      "constant": true
    }
  ],
  "bytecode": "0x60806040523480156200001157600080fd5b5060405162003e1d38038062003e1d833981810160405281019062000037919062000369565b6040518060400160405280600c81526020017f54616e6b4e4654546f6b656e00000000000000000000000000000000000000008152506040518060400160405280600381526020017f444b5400000000000000000000000000000000000000000000000000000000008152508160009080519060200190620000bb9291906200024f565b508060019080519060200190620000d49291906200024f565b505050620000f7620000eb6200018160201b60201c565b6200018960201b60201c565b81600860006101000a81548173ffffffffffffffffffffffffffffffffffffffff021916908373ffffffffffffffffffffffffffffffffffffffff16021790555080600960006101000a81548173ffffffffffffffffffffffffffffffffffffffff021916908373ffffffffffffffffffffffffffffffffffffffff160217905550505062000414565b600033905090565b6000600660009054906101000a900473ffffffffffffffffffffffffffffffffffffffff16905081600660006101000a81548173ffffffffffffffffffffffffffffffffffffffff021916908373ffffffffffffffffffffffffffffffffffffffff1602179055508173ffffffffffffffffffffffffffffffffffffffff168173ffffffffffffffffffffffffffffffffffffffff167f8be0079c531659141344cd1fd0a4f28419497f9722a3daafe3b4186f6b6457e060405160405180910390a35050565b8280546200025d90620003df565b90600052602060002090601f016020900481019282620002815760008555620002cd565b82601f106200029c57805160ff1916838001178555620002cd565b82800160010185558215620002cd579182015b82811115620002cc578251825591602001919060010190620002af565b5b509050620002dc9190620002e0565b5090565b5b80821115620002fb576000816000905550600101620002e1565b5090565b600080fd5b600073ffffffffffffffffffffffffffffffffffffffff82169050919050565b6000620003318262000304565b9050919050565b620003438162000324565b81146200034f57600080fd5b50565b600081519050620003638162000338565b92915050565b60008060408385031215620003835762000382620002ff565b5b6000620003938582860162000352565b9250506020620003a68582860162000352565b9150509250929050565b7f4e487b7100000000000000000000000000000000000000000000000000000000600052602260045260246000fd5b60006002820490506001821680620003f857607f821691505b6020821081036200040e576200040d620003b0565b5b50919050565b6139f980620004246000396000f3fe608060405234801561001057600080fd5b50600436106101425760003560e01c8063715018a6116100b8578063a7cbba351161007c578063a7cbba3514610363578063b88d4fde14610393578063c87b56dd146103af578063e985e9c5146103df578063f2fde38b1461040f578063f6c1b77a1461042b57610142565b8063715018a6146102e35780638da5cb5b146102ed578063956236411461030b57806395d89b4114610329578063a22cb4651461034757610142565b806323b872dd1161010a57806323b872dd146101ff57806329c0e7c91461021b57806342842e0e14610237578063574205e9146102535780636352211e1461028357806370a08231146102b357610142565b806301ffc9a71461014757806306fdde0314610177578063081812fc14610195578063095ea7b3146101c557806314d889cf146101e1575b600080fd5b610161600480360381019061015c91906121bc565b61045b565b60405161016e9190612204565b60405180910390f35b61017f61053d565b60405161018c91906122b8565b60405180910390f35b6101af60048036038101906101aa9190612310565b6105cf565b6040516101bc919061237e565b60405180910390f35b6101df60048036038101906101da91906123c5565b610654565b005b6101e961076b565b6040516101f69190612464565b60405180910390f35b6102196004803603810190610214919061247f565b610791565b005b61023560048036038101906102309190612607565b6107f1565b005b610251600480360381019061024c919061247f565b6108d8565b005b61026d60048036038101906102689190612607565b6108f8565b60405161027a9190612721565b60405180910390f35b61029d60048036038101906102989190612310565b610d5d565b6040516102aa919061237e565b60405180910390f35b6102cd60048036038101906102c89190612743565b610e0e565b6040516102da919061277f565b60405180910390f35b6102eb610ec5565b005b6102f5610f4d565b604051610302919061237e565b60405180910390f35b610313610f77565b604051610320919061237e565b60405180910390f35b610331610f9d565b60405161033e91906122b8565b60405180910390f35b610361600480360381019061035c91906127c6565b61102f565b005b61037d60048036038101906103789190612806565b611045565b60405161038a919061277f565b60405180910390f35b6103ad60048036038101906103a891906128f0565b6110b0565b005b6103c960048036038101906103c49190612310565b611112565b6040516103d691906122b8565b60405180910390f35b6103f960048036038101906103f49190612973565b6111b9565b6040516104069190612204565b60405180910390f35b61042960048036038101906104249190612743565b61124d565b005b61044560048036038101906104409190612743565b611344565b6040516104529190612721565b60405180910390f35b60007f80ac58cd000000000000000000000000000000000000000000000000000000007bffffffffffffffffffffffffffffffffffffffffffffffffffffffff1916827bffffffffffffffffffffffffffffffffffffffffffffffffffffffff1916148061052657507f5b5e139f000000000000000000000000000000000000000000000000000000007bffffffffffffffffffffffffffffffffffffffffffffffffffffffff1916827bffffffffffffffffffffffffffffffffffffffffffffffffffffffff1916145b80610536575061053582611456565b5b9050919050565b60606000805461054c906129e2565b80601f0160208091040260200160405190810160405280929190818152602001828054610578906129e2565b80156105c55780601f1061059a576101008083540402835291602001916105c5565b820191906000526020600020905b8154815290600101906020018083116105a857829003601f168201915b5050505050905090565b60006105da826114c0565b610619576040517f08c379a000000000000000000000000000000000000000000000000000000000815260040161061090612a85565b60405180910390fd5b6004600083815260200190815260200160002060009054906101000a900473ffffffffffffffffffffffffffffffffffffffff169050919050565b600061065f82610d5d565b90508073ffffffffffffffffffffffffffffffffffffffff168373ffffffffffffffffffffffffffffffffffffffff16036106cf576040517f08c379a00000000000000000000000000000000000000000000000000000000081526004016106c690612b17565b60405180910390fd5b8073ffffffffffffffffffffffffffffffffffffffff166106ee61152c565b73ffffffffffffffffffffffffffffffffffffffff16148061071d575061071c8161071761152c565b6111b9565b5b61075c576040517f08c379a000000000000000000000000000000000000000000000000000000000815260040161075390612ba9565b60405180910390fd5b6107668383611534565b505050565b600960009054906101000a900473ffffffffffffffffffffffffffffffffffffffff1681565b6107a261079c61152c565b826115ed565b6107e1576040517f08c379a00000000000000000000000000000000000000000000000000000000081526004016107d890612c3b565b60405180910390fd5b6107ec8383836116cb565b505050565b6107f961152c565b73ffffffffffffffffffffffffffffffffffffffff16610817610f4d565b73ffffffffffffffffffffffffffffffffffffffff161461086d576040517f08c379a000000000000000000000000000000000000000000000000000000000815260040161086490612ca7565b60405180910390fd5b60008251116108b1576040517f08c379a00000000000000000000000000000000000000000000000000000000081526004016108a890612d13565b60405180910390fd5b80600a836040516108c29190612d6f565b9081526020016040518091039020819055505050565b6108f3838383604051806020016040528060008152506110b0565b505050565b6060600083511161093e576040517f08c379a000000000000000000000000000000000000000000000000000000000815260040161093590612d13565b60405180910390fd5b6000600a846040516109509190612d6f565b9081526020016040518091039020541161099f576040517f08c379a000000000000000000000000000000000000000000000000000000000815260040161099690612dd2565b60405180910390fd5b600082116109e2576040517f08c379a00000000000000000000000000000000000000000000000000000000081526004016109d990612e3e565b60405180910390fd5b6000600a846040516109f49190612d6f565b90815260200160405180910390205483610a0e9190612e8d565b90506000600960009054906101000a900473ffffffffffffffffffffffffffffffffffffffff1673ffffffffffffffffffffffffffffffffffffffff166370a08231336040518263ffffffff1660e01b8152600401610a6d919061237e565b602060405180830381865afa158015610a8a573d6000803e3d6000fd5b505050506040513d601f19601f82011682018060405250810190610aae9190612efc565b905081811015610af3576040517f08c379a0000000000000000000000000000000000000000000000000000000008152600401610aea90612f9b565b60405180910390fd5b6000600960009054906101000a900473ffffffffffffffffffffffffffffffffffffffff1673ffffffffffffffffffffffffffffffffffffffff1663dd62ed3e33306040518363ffffffff1660e01b8152600401610b52929190612fbb565b602060405180830381865afa158015610b6f573d6000803e3d6000fd5b505050506040513d601f19601f82011682018060405250810190610b939190612efc565b905082811015610bd8576040517f08c379a0000000000000000000000000000000000000000000000000000000008152600401610bcf90613056565b60405180910390fd5b600960009054906101000a900473ffffffffffffffffffffffffffffffffffffffff1673ffffffffffffffffffffffffffffffffffffffff166323b872dd33610c1f610f4d565b866040518463ffffffff1660e01b8152600401610c3e93929190613076565b6020604051808303816000875af1158015610c5d573d6000803e3d6000fd5b505050506040513d601f19601f82011682018060405250810190610c8191906130c2565b5060008567ffffffffffffffff811115610c9e57610c9d6124dc565b5b604051908082528060200260200182016040528015610ccc5781602001602082028036833780820191505090505b50905060005b86811015610d1457610ce2611931565b828281518110610cf557610cf46130ef565b5b6020026020010181815250508080610d0c9061311e565b915050610cd2565b507f05f50fa4fe3e85051c267ee84c105ed713353067b037fbfa428e0651f625cc75813389604051610d4893929190613166565b60405180910390a18094505050505092915050565b6000806002600084815260200190815260200160002060009054906101000a900473ffffffffffffffffffffffffffffffffffffffff169050600073ffffffffffffffffffffffffffffffffffffffff168173ffffffffffffffffffffffffffffffffffffffff1603610e05576040517f08c379a0000000000000000000000000000000000000000000000000000000008152600401610dfc9061321d565b60405180910390fd5b80915050919050565b60008073ffffffffffffffffffffffffffffffffffffffff168273ffffffffffffffffffffffffffffffffffffffff1603610e7e576040517f08c379a0000000000000000000000000000000000000000000000000000000008152600401610e75906132af565b60405180910390fd5b600360008373ffffffffffffffffffffffffffffffffffffffff1673ffffffffffffffffffffffffffffffffffffffff168152602001908152602001600020549050919050565b610ecd61152c565b73ffffffffffffffffffffffffffffffffffffffff16610eeb610f4d565b73ffffffffffffffffffffffffffffffffffffffff1614610f41576040517f08c379a0000000000000000000000000000000000000000000000000000000008152600401610f3890612ca7565b60405180910390fd5b610f4b6000611991565b565b6000600660009054906101000a900473ffffffffffffffffffffffffffffffffffffffff16905090565b600860009054906101000a900473ffffffffffffffffffffffffffffffffffffffff1681565b606060018054610fac906129e2565b80601f0160208091040260200160405190810160405280929190818152602001828054610fd8906129e2565b80156110255780601f10610ffa57610100808354040283529160200191611025565b820191906000526020600020905b81548152906001019060200180831161100857829003601f168201915b5050505050905090565b61104161103a61152c565b8383611a57565b5050565b60008082511161108a576040517f08c379a000000000000000000000000000000000000000000000000000000000815260040161108190612d13565b60405180910390fd5b600a8260405161109a9190612d6f565b9081526020016040518091039020549050919050565b6110c16110bb61152c565b836115ed565b611100576040517f08c379a00000000000000000000000000000000000000000000000000000000081526004016110f790612c3b565b60405180910390fd5b61110c84848484611bc3565b50505050565b606061111d826114c0565b61115c576040517f08c379a000000000000000000000000000000000000000000000000000000000815260040161115390613341565b60405180910390fd5b6000611166611c1f565b9050600081511161118657604051806020016040528060008152506111b1565b8061119084611c3f565b6040516020016111a1929190613361565b6040516020818303038152906040525b915050919050565b6000600560008473ffffffffffffffffffffffffffffffffffffffff1673ffffffffffffffffffffffffffffffffffffffff16815260200190815260200160002060008373ffffffffffffffffffffffffffffffffffffffff1673ffffffffffffffffffffffffffffffffffffffff16815260200190815260200160002060009054906101000a900460ff16905092915050565b61125561152c565b73ffffffffffffffffffffffffffffffffffffffff16611273610f4d565b73ffffffffffffffffffffffffffffffffffffffff16146112c9576040517f08c379a00000000000000000000000000000000000000000000000000000000081526004016112c090612ca7565b60405180910390fd5b600073ffffffffffffffffffffffffffffffffffffffff168173ffffffffffffffffffffffffffffffffffffffff1603611338576040517f08c379a000000000000000000000000000000000000000000000000000000000815260040161132f906133f7565b60405180910390fd5b61134181611991565b50565b606060006113526007611d9f565b9050600061135f84610e0e565b67ffffffffffffffff811115611378576113776124dc565b5b6040519080825280602002602001820160405280156113a65781602001602082028036833780820191505090505b5090506000805b8381101561144a578573ffffffffffffffffffffffffffffffffffffffff166113e16001836113dc9190613417565b610d5d565b73ffffffffffffffffffffffffffffffffffffffff1603611437576001816114099190613417565b83838151811061141c5761141b6130ef565b5b60200260200101818152505081806114339061311e565b9250505b80806114429061311e565b9150506113ad565b50819350505050919050565b60007f01ffc9a7000000000000000000000000000000000000000000000000000000007bffffffffffffffffffffffffffffffffffffffffffffffffffffffff1916827bffffffffffffffffffffffffffffffffffffffffffffffffffffffff1916149050919050565b60008073ffffffffffffffffffffffffffffffffffffffff166002600084815260200190815260200160002060009054906101000a900473ffffffffffffffffffffffffffffffffffffffff1673ffffffffffffffffffffffffffffffffffffffff1614159050919050565b600033905090565b816004600083815260200190815260200160002060006101000a81548173ffffffffffffffffffffffffffffffffffffffff021916908373ffffffffffffffffffffffffffffffffffffffff160217905550808273ffffffffffffffffffffffffffffffffffffffff166115a783610d5d565b73ffffffffffffffffffffffffffffffffffffffff167f8c5be1e5ebec7d5bd14f71427d1e84f3dd0314c0f7b2291e5b200ac8c7c3b92560405160405180910390a45050565b60006115f8826114c0565b611637576040517f08c379a000000000000000000000000000000000000000000000000000000000815260040161162e906134df565b60405180910390fd5b600061164283610d5d565b90508073ffffffffffffffffffffffffffffffffffffffff168473ffffffffffffffffffffffffffffffffffffffff161480611684575061168381856111b9565b5b806116c257508373ffffffffffffffffffffffffffffffffffffffff166116aa846105cf565b73ffffffffffffffffffffffffffffffffffffffff16145b91505092915050565b8273ffffffffffffffffffffffffffffffffffffffff166116eb82610d5d565b73ffffffffffffffffffffffffffffffffffffffff1614611741576040517f08c379a000000000000000000000000000000000000000000000000000000000815260040161173890613571565b60405180910390fd5b600073ffffffffffffffffffffffffffffffffffffffff168273ffffffffffffffffffffffffffffffffffffffff16036117b0576040517f08c379a00000000000000000000000000000000000000000000000000000000081526004016117a790613603565b60405180910390fd5b6117bb838383611dad565b6117c6600082611534565b6001600360008573ffffffffffffffffffffffffffffffffffffffff1673ffffffffffffffffffffffffffffffffffffffff16815260200190815260200160002060008282546118169190613623565b925050819055506001600360008473ffffffffffffffffffffffffffffffffffffffff1673ffffffffffffffffffffffffffffffffffffffff168152602001908152602001600020600082825461186d9190613417565b92505081905550816002600083815260200190815260200160002060006101000a81548173ffffffffffffffffffffffffffffffffffffffff021916908373ffffffffffffffffffffffffffffffffffffffff160217905550808273ffffffffffffffffffffffffffffffffffffffff168473ffffffffffffffffffffffffffffffffffffffff167fddf252ad1be2c89b69c2b068fc378daa952ba7f163c4a11628f55a4df523b3ef60405160405180910390a461192c838383611db2565b505050565b600061193d6007611db7565b60006119496007611d9f565b90506119553382611dcd565b61198a61196061152c565b600860009054906101000a900473ffffffffffffffffffffffffffffffffffffffff166001611a57565b8091505090565b6000600660009054906101000a900473ffffffffffffffffffffffffffffffffffffffff16905081600660006101000a81548173ffffffffffffffffffffffffffffffffffffffff021916908373ffffffffffffffffffffffffffffffffffffffff1602179055508173ffffffffffffffffffffffffffffffffffffffff168173ffffffffffffffffffffffffffffffffffffffff167f8be0079c531659141344cd1fd0a4f28419497f9722a3daafe3b4186f6b6457e060405160405180910390a35050565b8173ffffffffffffffffffffffffffffffffffffffff168373ffffffffffffffffffffffffffffffffffffffff1603611ac5576040517f08c379a0000000000000000000000000000000000000000000000000000000008152600401611abc906136a3565b60405180910390fd5b80600560008573ffffffffffffffffffffffffffffffffffffffff1673ffffffffffffffffffffffffffffffffffffffff16815260200190815260200160002060008473ffffffffffffffffffffffffffffffffffffffff1673ffffffffffffffffffffffffffffffffffffffff16815260200190815260200160002060006101000a81548160ff0219169083151502179055508173ffffffffffffffffffffffffffffffffffffffff168373ffffffffffffffffffffffffffffffffffffffff167f17307eab39ab6107e8899845ad3d59bd9653f200f220920489ca2b5937696c3183604051611bb69190612204565b60405180910390a3505050565b611bce8484846116cb565b611bda84848484611fa6565b611c19576040517f08c379a0000000000000000000000000000000000000000000000000000000008152600401611c1090613735565b60405180910390fd5b50505050565b60606040518060600160405280602281526020016139a260229139905090565b606060008203611c86576040518060400160405280600181526020017f30000000000000000000000000000000000000000000000000000000000000008152509050611d9a565b600082905060005b60008214611cb8578080611ca19061311e565b915050600a82611cb19190613784565b9150611c8e565b60008167ffffffffffffffff811115611cd457611cd36124dc565b5b6040519080825280601f01601f191660200182016040528015611d065781602001600182028036833780820191505090505b5090505b60008514611d9357600182611d1f9190613623565b9150600a85611d2e91906137b5565b6030611d3a9190613417565b60f81b818381518110611d5057611d4f6130ef565b5b60200101907effffffffffffffffffffffffffffffffffffffffffffffffffffffffffffff1916908160001a905350600a85611d8c9190613784565b9450611d0a565b8093505050505b919050565b600081600001549050919050565b505050565b505050565b6001816000016000828254019250508190555050565b600073ffffffffffffffffffffffffffffffffffffffff168273ffffffffffffffffffffffffffffffffffffffff1603611e3c576040517f08c379a0000000000000000000000000000000000000000000000000000000008152600401611e3390613832565b60405180910390fd5b611e45816114c0565b15611e85576040517f08c379a0000000000000000000000000000000000000000000000000000000008152600401611e7c9061389e565b60405180910390fd5b611e9160008383611dad565b6001600360008473ffffffffffffffffffffffffffffffffffffffff1673ffffffffffffffffffffffffffffffffffffffff1681526020019081526020016000206000828254611ee19190613417565b92505081905550816002600083815260200190815260200160002060006101000a81548173ffffffffffffffffffffffffffffffffffffffff021916908373ffffffffffffffffffffffffffffffffffffffff160217905550808273ffffffffffffffffffffffffffffffffffffffff16600073ffffffffffffffffffffffffffffffffffffffff167fddf252ad1be2c89b69c2b068fc378daa952ba7f163c4a11628f55a4df523b3ef60405160405180910390a4611fa260008383611db2565b5050565b6000611fc78473ffffffffffffffffffffffffffffffffffffffff1661212d565b15612120578373ffffffffffffffffffffffffffffffffffffffff1663150b7a02611ff061152c565b8786866040518563ffffffff1660e01b81526004016120129493929190613913565b6020604051808303816000875af192505050801561204e57506040513d601f19601f8201168201806040525081019061204b9190613974565b60015b6120d0573d806000811461207e576040519150601f19603f3d011682016040523d82523d6000602084013e612083565b606091505b5060008151036120c8576040517f08c379a00000000000000000000000000000000000000000000000000000000081526004016120bf90613735565b60405180910390fd5b805181602001fd5b63150b7a0260e01b7bffffffffffffffffffffffffffffffffffffffffffffffffffffffff1916817bffffffffffffffffffffffffffffffffffffffffffffffffffffffff191614915050612125565b600190505b949350505050565b6000808273ffffffffffffffffffffffffffffffffffffffff163b119050919050565b6000604051905090565b600080fd5b600080fd5b60007fffffffff0000000000000000000000000000000000000000000000000000000082169050919050565b61219981612164565b81146121a457600080fd5b50565b6000813590506121b681612190565b92915050565b6000602082840312156121d2576121d161215a565b5b60006121e0848285016121a7565b91505092915050565b60008115159050919050565b6121fe816121e9565b82525050565b600060208201905061221960008301846121f5565b92915050565b600081519050919050565b600082825260208201905092915050565b60005b8381101561225957808201518184015260208101905061223e565b83811115612268576000848401525b50505050565b6000601f19601f8301169050919050565b600061228a8261221f565b612294818561222a565b93506122a481856020860161223b565b6122ad8161226e565b840191505092915050565b600060208201905081810360008301526122d2818461227f565b905092915050565b6000819050919050565b6122ed816122da565b81146122f857600080fd5b50565b60008135905061230a816122e4565b92915050565b6000602082840312156123265761232561215a565b5b6000612334848285016122fb565b91505092915050565b600073ffffffffffffffffffffffffffffffffffffffff82169050919050565b60006123688261233d565b9050919050565b6123788161235d565b82525050565b6000602082019050612393600083018461236f565b92915050565b6123a28161235d565b81146123ad57600080fd5b50565b6000813590506123bf81612399565b92915050565b600080604083850312156123dc576123db61215a565b5b60006123ea858286016123b0565b92505060206123fb858286016122fb565b9150509250929050565b6000819050919050565b600061242a6124256124208461233d565b612405565b61233d565b9050919050565b600061243c8261240f565b9050919050565b600061244e82612431565b9050919050565b61245e81612443565b82525050565b60006020820190506124796000830184612455565b92915050565b6000806000606084860312156124985761249761215a565b5b60006124a6868287016123b0565b93505060206124b7868287016123b0565b92505060406124c8868287016122fb565b9150509250925092565b600080fd5b600080fd5b7f4e487b7100000000000000000000000000000000000000000000000000000000600052604160045260246000fd5b6125148261226e565b810181811067ffffffffffffffff82111715612533576125326124dc565b5b80604052505050565b6000612546612150565b9050612552828261250b565b919050565b600067ffffffffffffffff821115612572576125716124dc565b5b61257b8261226e565b9050602081019050919050565b82818337600083830152505050565b60006125aa6125a584612557565b61253c565b9050828152602081018484840111156125c6576125c56124d7565b5b6125d1848285612588565b509392505050565b600082601f8301126125ee576125ed6124d2565b5b81356125fe848260208601612597565b91505092915050565b6000806040838503121561261e5761261d61215a565b5b600083013567ffffffffffffffff81111561263c5761263b61215f565b5b612648858286016125d9565b9250506020612659858286016122fb565b9150509250929050565b600081519050919050565b600082825260208201905092915050565b6000819050602082019050919050565b612698816122da565b82525050565b60006126aa838361268f565b60208301905092915050565b6000602082019050919050565b60006126ce82612663565b6126d8818561266e565b93506126e38361267f565b8060005b838110156127145781516126fb888261269e565b9750612706836126b6565b9250506001810190506126e7565b5085935050505092915050565b6000602082019050818103600083015261273b81846126c3565b905092915050565b6000602082840312156127595761275861215a565b5b6000612767848285016123b0565b91505092915050565b612779816122da565b82525050565b60006020820190506127946000830184612770565b92915050565b6127a3816121e9565b81146127ae57600080fd5b50565b6000813590506127c08161279a565b92915050565b600080604083850312156127dd576127dc61215a565b5b60006127eb858286016123b0565b92505060206127fc858286016127b1565b9150509250929050565b60006020828403121561281c5761281b61215a565b5b600082013567ffffffffffffffff81111561283a5761283961215f565b5b612846848285016125d9565b91505092915050565b600067ffffffffffffffff82111561286a576128696124dc565b5b6128738261226e565b9050602081019050919050565b600061289361288e8461284f565b61253c565b9050828152602081018484840111156128af576128ae6124d7565b5b6128ba848285612588565b509392505050565b600082601f8301126128d7576128d66124d2565b5b81356128e7848260208601612880565b91505092915050565b6000806000806080858703121561290a5761290961215a565b5b6000612918878288016123b0565b9450506020612929878288016123b0565b935050604061293a878288016122fb565b925050606085013567ffffffffffffffff81111561295b5761295a61215f565b5b612967878288016128c2565b91505092959194509250565b6000806040838503121561298a5761298961215a565b5b6000612998858286016123b0565b92505060206129a9858286016123b0565b9150509250929050565b7f4e487b7100000000000000000000000000000000000000000000000000000000600052602260045260246000fd5b600060028204905060018216806129fa57607f821691505b602082108103612a0d57612a0c6129b3565b5b50919050565b7f4552433732313a20617070726f76656420717565727920666f72206e6f6e657860008201527f697374656e7420746f6b656e0000000000000000000000000000000000000000602082015250565b6000612a6f602c8361222a565b9150612a7a82612a13565b604082019050919050565b60006020820190508181036000830152612a9e81612a62565b9050919050565b7f4552433732313a20617070726f76616c20746f2063757272656e74206f776e6560008201527f7200000000000000000000000000000000000000000000000000000000000000602082015250565b6000612b0160218361222a565b9150612b0c82612aa5565b604082019050919050565b60006020820190508181036000830152612b3081612af4565b9050919050565b7f4552433732313a20617070726f76652063616c6c6572206973206e6f74206f7760008201527f6e6572206e6f7220617070726f76656420666f7220616c6c0000000000000000602082015250565b6000612b9360388361222a565b9150612b9e82612b37565b604082019050919050565b60006020820190508181036000830152612bc281612b86565b9050919050565b7f4552433732313a207472616e736665722063616c6c6572206973206e6f74206f60008201527f776e6572206e6f7220617070726f766564000000000000000000000000000000602082015250565b6000612c2560318361222a565b9150612c3082612bc9565b604082019050919050565b60006020820190508181036000830152612c5481612c18565b9050919050565b7f4f776e61626c653a2063616c6c6572206973206e6f7420746865206f776e6572600082015250565b6000612c9160208361222a565b9150612c9c82612c5b565b602082019050919050565b60006020820190508181036000830152612cc081612c84565b9050919050565b7f426f7849642073686f756c64206e6f7420656d70747900000000000000000000600082015250565b6000612cfd60168361222a565b9150612d0882612cc7565b602082019050919050565b60006020820190508181036000830152612d2c81612cf0565b9050919050565b600081905092915050565b6000612d498261221f565b612d538185612d33565b9350612d6381856020860161223b565b80840191505092915050565b6000612d7b8284612d3e565b915081905092915050565b7f426f782073686f756c642062652073656c6c696e670000000000000000000000600082015250565b6000612dbc60158361222a565b9150612dc782612d86565b602082019050919050565b60006020820190508181036000830152612deb81612daf565b9050919050565b7f426f78416d6f756e742073686f756c64206265203e2030000000000000000000600082015250565b6000612e2860178361222a565b9150612e3382612df2565b602082019050919050565b60006020820190508181036000830152612e5781612e1b565b9050919050565b7f4e487b7100000000000000000000000000000000000000000000000000000000600052601160045260246000fd5b6000612e98826122da565b9150612ea3836122da565b9250817fffffffffffffffffffffffffffffffffffffffffffffffffffffffffffffffff0483118215151615612edc57612edb612e5e565b5b828202905092915050565b600081519050612ef6816122e4565b92915050565b600060208284031215612f1257612f1161215a565b5b6000612f2084828501612ee7565b91505092915050565b7f596f7520646f206e6f74206861766520656e6f75676820444b4320746f20627560008201527f7920426f78657300000000000000000000000000000000000000000000000000602082015250565b6000612f8560278361222a565b9150612f9082612f29565b604082019050919050565b60006020820190508181036000830152612fb481612f78565b9050919050565b6000604082019050612fd0600083018561236f565b612fdd602083018461236f565b9392505050565b7f596f7520646f206e6f7420617070726f766520656e6f75676820444b4320746f60008201527f2062757920426f78657300000000000000000000000000000000000000000000602082015250565b6000613040602a8361222a565b915061304b82612fe4565b604082019050919050565b6000602082019050818103600083015261306f81613033565b9050919050565b600060608201905061308b600083018661236f565b613098602083018561236f565b6130a56040830184612770565b949350505050565b6000815190506130bc8161279a565b92915050565b6000602082840312156130d8576130d761215a565b5b60006130e6848285016130ad565b91505092915050565b7f4e487b7100000000000000000000000000000000000000000000000000000000600052603260045260246000fd5b6000613129826122da565b91507fffffffffffffffffffffffffffffffffffffffffffffffffffffffffffffffff820361315b5761315a612e5e565b5b600182019050919050565b6000606082019050818103600083015261318081866126c3565b905061318f602083018561236f565b81810360408301526131a1818461227f565b9050949350505050565b7f4552433732313a206f776e657220717565727920666f72206e6f6e657869737460008201527f656e7420746f6b656e0000000000000000000000000000000000000000000000602082015250565b600061320760298361222a565b9150613212826131ab565b604082019050919050565b60006020820190508181036000830152613236816131fa565b9050919050565b7f4552433732313a2062616c616e636520717565727920666f7220746865207a6560008201527f726f206164647265737300000000000000000000000000000000000000000000602082015250565b6000613299602a8361222a565b91506132a48261323d565b604082019050919050565b600060208201905081810360008301526132c88161328c565b9050919050565b7f4552433732314d657461646174613a2055524920717565727920666f72206e6f60008201527f6e6578697374656e7420746f6b656e0000000000000000000000000000000000602082015250565b600061332b602f8361222a565b9150613336826132cf565b604082019050919050565b6000602082019050818103600083015261335a8161331e565b9050919050565b600061336d8285612d3e565b91506133798284612d3e565b91508190509392505050565b7f4f776e61626c653a206e6577206f776e657220697320746865207a65726f206160008201527f6464726573730000000000000000000000000000000000000000000000000000602082015250565b60006133e160268361222a565b91506133ec82613385565b604082019050919050565b60006020820190508181036000830152613410816133d4565b9050919050565b6000613422826122da565b915061342d836122da565b9250827fffffffffffffffffffffffffffffffffffffffffffffffffffffffffffffffff0382111561346257613461612e5e565b5b828201905092915050565b7f4552433732313a206f70657261746f7220717565727920666f72206e6f6e657860008201527f697374656e7420746f6b656e0000000000000000000000000000000000000000602082015250565b60006134c9602c8361222a565b91506134d48261346d565b604082019050919050565b600060208201905081810360008301526134f8816134bc565b9050919050565b7f4552433732313a207472616e736665722066726f6d20696e636f72726563742060008201527f6f776e6572000000000000000000000000000000000000000000000000000000602082015250565b600061355b60258361222a565b9150613566826134ff565b604082019050919050565b6000602082019050818103600083015261358a8161354e565b9050919050565b7f4552433732313a207472616e7366657220746f20746865207a65726f2061646460008201527f7265737300000000000000000000000000000000000000000000000000000000602082015250565b60006135ed60248361222a565b91506135f882613591565b604082019050919050565b6000602082019050818103600083015261361c816135e0565b9050919050565b600061362e826122da565b9150613639836122da565b92508282101561364c5761364b612e5e565b5b828203905092915050565b7f4552433732313a20617070726f766520746f2063616c6c657200000000000000600082015250565b600061368d60198361222a565b915061369882613657565b602082019050919050565b600060208201905081810360008301526136bc81613680565b9050919050565b7f4552433732313a207472616e7366657220746f206e6f6e20455243373231526560008201527f63656976657220696d706c656d656e7465720000000000000000000000000000602082015250565b600061371f60328361222a565b915061372a826136c3565b604082019050919050565b6000602082019050818103600083015261374e81613712565b9050919050565b7f4e487b7100000000000000000000000000000000000000000000000000000000600052601260045260246000fd5b600061378f826122da565b915061379a836122da565b9250826137aa576137a9613755565b5b828204905092915050565b60006137c0826122da565b91506137cb836122da565b9250826137db576137da613755565b5b828206905092915050565b7f4552433732313a206d696e7420746f20746865207a65726f2061646472657373600082015250565b600061381c60208361222a565b9150613827826137e6565b602082019050919050565b6000602082019050818103600083015261384b8161380f565b9050919050565b7f4552433732313a20746f6b656e20616c7265616479206d696e74656400000000600082015250565b6000613888601c8361222a565b915061389382613852565b602082019050919050565b600060208201905081810360008301526138b78161387b565b9050919050565b600081519050919050565b600082825260208201905092915050565b60006138e5826138be565b6138ef81856138c9565b93506138ff81856020860161223b565b6139088161226e565b840191505092915050565b6000608082019050613928600083018761236f565b613935602083018661236f565b6139426040830185612770565b818103606083015261395481846138da565b905095945050505050565b60008151905061396e81612190565b92915050565b60006020828403121561398a5761398961215a565b5b60006139988482850161395f565b9150509291505056fe687474703a2f2f34342e3230342e31312e31303a383038302f6d657461646174612fa2646970667358221220e8482a542cb110d7da94589e333afbdd534c302f12db2c1806703db4e8d1430164736f6c634300080d0033",
  "immutableReferences": {},
  "source": "// SPDX-License-Identifier: MIT\r\n\r\npragma solidity ^0.8.13;\r\n\r\nimport \"@openzeppelin/contracts/token/ERC721/ERC721.sol\";\r\nimport \"@openzeppelin/contracts/utils/Counters.sol\";\r\nimport \"@openzeppelin/contracts/token/ERC20/ERC20.sol\";\r\nimport \"@openzeppelin/contracts/access/Ownable.sol\";\r\n\r\ncontract TankNFT is ERC721, Ownable {\r\n    using Counters for Counters.Counter;\r\n    Counters.Counter private _tokenIds;\r\n    address public marketAddress;\r\n    ERC20 public deathKingdomCoin;\r\n    mapping(string => uint256) boxPrices;\r\n\r\n    constructor(address _mrketplaceContract, address _deathKingdomCoinContract)\r\n        ERC721(\"TankNFTToken\", \"DKT\")\r\n    {\r\n        marketAddress = _mrketplaceContract;\r\n        deathKingdomCoin = ERC20(_deathKingdomCoinContract);\r\n    }\r\n\r\n    function _baseURI() internal pure override returns (string memory) {\r\n        return \"http://44.204.11.10:8080/metadata/\";\r\n    }\r\n\r\n    function setBoxPrice(string memory _boxId, uint256 _price)\r\n        public\r\n        onlyOwner\r\n    {\r\n        require(bytes(_boxId).length > 0, \"BoxId should not empty\");\r\n        // require(_price > 10);\r\n        boxPrices[_boxId] = _price;\r\n    }\r\n\r\n    function getBoxPrice(string memory _boxId) public view returns (uint256) {\r\n        require(bytes(_boxId).length > 0, \"BoxId should not empty\");\r\n        return boxPrices[_boxId];\r\n    }\r\n\r\n    event BoxSold(uint256[] listTokenId, address tokenOwner, string boxId);\r\n\r\n    function buyBoxes(string memory _boxId, uint256 _amount)\r\n        public\r\n        returns (uint256[] memory)\r\n    {\r\n        require(bytes(_boxId).length > 0, \"BoxId should not empty\");\r\n        require(boxPrices[_boxId] > 0, \"Box should be selling\");\r\n        require(_amount > 0, \"BoxAmount should be > 0\");\r\n        uint256 totalPrice = _amount * boxPrices[_boxId];\r\n\r\n        uint256 senderBalance = deathKingdomCoin.balanceOf(msg.sender);\r\n        require(\r\n            senderBalance >= totalPrice,\r\n            \"You do not have enough DKC to buy Boxes\"\r\n        );\r\n\r\n        uint256 allowance = deathKingdomCoin.allowance(\r\n            msg.sender,\r\n            address(this)\r\n        );\r\n        require(\r\n            allowance >= totalPrice,\r\n            \"You do not approve enough DKC to buy Boxes\"\r\n        );\r\n\r\n        deathKingdomCoin.transferFrom(msg.sender, owner(), totalPrice);\r\n\r\n        uint256[] memory nfts = new uint256[](_amount);\r\n        for (uint256 i = 0; i < _amount; i++) {\r\n            nfts[i] = createToken();\r\n        }\r\n        emit BoxSold(nfts, msg.sender, _boxId);\r\n        return nfts;\r\n    }\r\n\r\n    function createToken() private returns (uint256) {\r\n        _tokenIds.increment();\r\n        uint256 newTokenId = _tokenIds.current();\r\n\r\n        _mint(msg.sender, newTokenId);\r\n        _setApprovalForAll(_msgSender(), marketAddress, true);\r\n        return newTokenId;\r\n    }\r\n\r\n    function getMyNfts(address _ownerAddress)\r\n        public\r\n        view\r\n        returns (uint256[] memory)\r\n    {\r\n        uint256 nftCount = _tokenIds.current();\r\n        uint256[] memory nfts = new uint256[](balanceOf(_ownerAddress));\r\n        uint256 nftIndex = 0;\r\n        for (uint256 i = 0; i < nftCount; i++) {\r\n            if (ownerOf(i + 1) == _ownerAddress) {\r\n                nfts[nftIndex] = i + 1;\r\n                nftIndex++;\r\n            }\r\n        }\r\n        return nfts;\r\n    }\r\n}\r\n",
  "sourcePath": "D:\\code\\TheDeadKingdom\\Contract\\contracts\\ethereum\\TankNFT.sol",
  "compiler": {
    "name": "solc",
    "version": "0.8.13+commit.abaa5c0e.Emscripten.clang"
  },
  "schemaVersion": "3.4.7",
  "updatedAt": "2022-08-20T16:22:29.189Z",
  "networkType": "ethereum",
  "devdoc": {
    "kind": "dev",
    "methods": {
      "approve(address,uint256)": {
        "details": "See {IERC721-approve}."
      },
      "balanceOf(address)": {
        "details": "See {IERC721-balanceOf}."
      },
      "getApproved(uint256)": {
        "details": "See {IERC721-getApproved}."
      },
      "isApprovedForAll(address,address)": {
        "details": "See {IERC721-isApprovedForAll}."
      },
      "name()": {
        "details": "See {IERC721Metadata-name}."
      },
      "owner()": {
        "details": "Returns the address of the current owner."
      },
      "ownerOf(uint256)": {
        "details": "See {IERC721-ownerOf}."
      },
      "renounceOwnership()": {
        "details": "Leaves the contract without owner. It will not be possible to call `onlyOwner` functions anymore. Can only be called by the current owner. NOTE: Renouncing ownership will leave the contract without an owner, thereby removing any functionality that is only available to the owner."
      },
      "safeTransferFrom(address,address,uint256)": {
        "details": "See {IERC721-safeTransferFrom}."
      },
      "safeTransferFrom(address,address,uint256,bytes)": {
        "details": "See {IERC721-safeTransferFrom}."
      },
      "setApprovalForAll(address,bool)": {
        "details": "See {IERC721-setApprovalForAll}."
      },
      "supportsInterface(bytes4)": {
        "details": "See {IERC165-supportsInterface}."
      },
      "symbol()": {
        "details": "See {IERC721Metadata-symbol}."
      },
      "tokenURI(uint256)": {
        "details": "See {IERC721Metadata-tokenURI}."
      },
      "transferFrom(address,address,uint256)": {
        "details": "See {IERC721-transferFrom}."
      },
      "transferOwnership(address)": {
        "details": "Transfers ownership of the contract to a new account (`newOwner`). Can only be called by the current owner."
      }
    },
    "version": 1
  },
  "userdoc": {
    "kind": "user",
    "methods": {},
    "version": 1
  }
}