{
  "contractName": "TankNFT",
  "abi": [
    {
      "inputs": [
        {
          "internalType": "address",
          "name": "_mrketplaceContract",
          "type": "address"
        },
        {
          "internalType": "address",
          "name": "_deathKingdomCoinContract",
          "type": "address"
        }
      ],
      "stateMutability": "nonpayable",
      "type": "constructor"
    },
    {
      "anonymous": false,
      "inputs": [
        {
          "indexed": true,
          "internalType": "address",
          "name": "owner",
          "type": "address"
        },
        {
          "indexed": true,
          "internalType": "address",
          "name": "approved",
          "type": "address"
        },
        {
          "indexed": true,
          "internalType": "uint256",
          "name": "tokenId",
          "type": "uint256"
        }
      ],
      "name": "Approval",
      "type": "event"
    },
    {
      "anonymous": false,
      "inputs": [
        {
          "indexed": true,
          "internalType": "address",
          "name": "owner",
          "type": "address"
        },
        {
          "indexed": true,
          "internalType": "address",
          "name": "operator",
          "type": "address"
        },
        {
          "indexed": false,
          "internalType": "bool",
          "name": "approved",
          "type": "bool"
        }
      ],
      "name": "ApprovalForAll",
      "type": "event"
    },
    {
      "anonymous": false,
      "inputs": [
        {
          "indexed": false,
          "internalType": "uint256",
          "name": "tokenId",
          "type": "uint256"
        },
        {
          "indexed": false,
          "internalType": "address",
          "name": "tokenOwner",
          "type": "address"
        }
      ],
      "name": "NFTMinted",
      "type": "event"
    },
    {
      "anonymous": false,
      "inputs": [
        {
          "indexed": true,
          "internalType": "address",
          "name": "previousOwner",
          "type": "address"
        },
        {
          "indexed": true,
          "internalType": "address",
          "name": "newOwner",
          "type": "address"
        }
      ],
      "name": "OwnershipTransferred",
      "type": "event"
    },
    {
      "anonymous": false,
      "inputs": [
        {
          "indexed": true,
          "internalType": "address",
          "name": "from",
          "type": "address"
        },
        {
          "indexed": true,
          "internalType": "address",
          "name": "to",
          "type": "address"
        },
        {
          "indexed": true,
          "internalType": "uint256",
          "name": "tokenId",
          "type": "uint256"
        }
      ],
      "name": "Transfer",
      "type": "event"
    },
    {
      "inputs": [
        {
          "internalType": "address",
          "name": "to",
          "type": "address"
        },
        {
          "internalType": "uint256",
          "name": "tokenId",
          "type": "uint256"
        }
      ],
      "name": "approve",
      "outputs": [],
      "stateMutability": "nonpayable",
      "type": "function"
    },
    {
      "inputs": [
        {
          "internalType": "address",
          "name": "owner",
          "type": "address"
        }
      ],
      "name": "balanceOf",
      "outputs": [
        {
          "internalType": "uint256",
          "name": "",
          "type": "uint256"
        }
      ],
      "stateMutability": "view",
      "type": "function",
      "constant": true
    },
    {
      "inputs": [],
      "name": "boxPrice",
      "outputs": [
        {
          "internalType": "uint256",
          "name": "",
          "type": "uint256"
        }
      ],
      "stateMutability": "view",
      "type": "function",
      "constant": true
    },
    {
      "inputs": [],
      "name": "deathKingdomCoin",
      "outputs": [
        {
          "internalType": "contract ERC20",
          "name": "",
          "type": "address"
        }
      ],
      "stateMutability": "view",
      "type": "function",
      "constant": true
    },
    {
      "inputs": [
        {
          "internalType": "uint256",
          "name": "tokenId",
          "type": "uint256"
        }
      ],
      "name": "getApproved",
      "outputs": [
        {
          "internalType": "address",
          "name": "",
          "type": "address"
        }
      ],
      "stateMutability": "view",
      "type": "function",
      "constant": true
    },
    {
      "inputs": [
        {
          "internalType": "address",
          "name": "owner",
          "type": "address"
        },
        {
          "internalType": "address",
          "name": "operator",
          "type": "address"
        }
      ],
      "name": "isApprovedForAll",
      "outputs": [
        {
          "internalType": "bool",
          "name": "",
          "type": "bool"
        }
      ],
      "stateMutability": "view",
      "type": "function",
      "constant": true
    },
    {
      "inputs": [],
      "name": "marketAddress",
      "outputs": [
        {
          "internalType": "address",
          "name": "",
          "type": "address"
        }
      ],
      "stateMutability": "view",
      "type": "function",
      "constant": true
    },
    {
      "inputs": [],
      "name": "name",
      "outputs": [
        {
          "internalType": "string",
          "name": "",
          "type": "string"
        }
      ],
      "stateMutability": "view",
      "type": "function",
      "constant": true
    },
    {
      "inputs": [],
      "name": "owner",
      "outputs": [
        {
          "internalType": "address",
          "name": "",
          "type": "address"
        }
      ],
      "stateMutability": "view",
      "type": "function",
      "constant": true
    },
    {
      "inputs": [
        {
          "internalType": "uint256",
          "name": "tokenId",
          "type": "uint256"
        }
      ],
      "name": "ownerOf",
      "outputs": [
        {
          "internalType": "address",
          "name": "",
          "type": "address"
        }
      ],
      "stateMutability": "view",
      "type": "function",
      "constant": true
    },
    {
      "inputs": [],
      "name": "renounceOwnership",
      "outputs": [],
      "stateMutability": "nonpayable",
      "type": "function"
    },
    {
      "inputs": [
        {
          "internalType": "address",
          "name": "from",
          "type": "address"
        },
        {
          "internalType": "address",
          "name": "to",
          "type": "address"
        },
        {
          "internalType": "uint256",
          "name": "tokenId",
          "type": "uint256"
        }
      ],
      "name": "safeTransferFrom",
      "outputs": [],
      "stateMutability": "nonpayable",
      "type": "function"
    },
    {
      "inputs": [
        {
          "internalType": "address",
          "name": "from",
          "type": "address"
        },
        {
          "internalType": "address",
          "name": "to",
          "type": "address"
        },
        {
          "internalType": "uint256",
          "name": "tokenId",
          "type": "uint256"
        },
        {
          "internalType": "bytes",
          "name": "_data",
          "type": "bytes"
        }
      ],
      "name": "safeTransferFrom",
      "outputs": [],
      "stateMutability": "nonpayable",
      "type": "function"
    },
    {
      "inputs": [
        {
          "internalType": "address",
          "name": "operator",
          "type": "address"
        },
        {
          "internalType": "bool",
          "name": "approved",
          "type": "bool"
        }
      ],
      "name": "setApprovalForAll",
      "outputs": [],
      "stateMutability": "nonpayable",
      "type": "function"
    },
    {
      "inputs": [
        {
          "internalType": "bytes4",
          "name": "interfaceId",
          "type": "bytes4"
        }
      ],
      "name": "supportsInterface",
      "outputs": [
        {
          "internalType": "bool",
          "name": "",
          "type": "bool"
        }
      ],
      "stateMutability": "view",
      "type": "function",
      "constant": true
    },
    {
      "inputs": [],
      "name": "symbol",
      "outputs": [
        {
          "internalType": "string",
          "name": "",
          "type": "string"
        }
      ],
      "stateMutability": "view",
      "type": "function",
      "constant": true
    },
    {
      "inputs": [
        {
          "internalType": "uint256",
          "name": "tokenId",
          "type": "uint256"
        }
      ],
      "name": "tokenURI",
      "outputs": [
        {
          "internalType": "string",
          "name": "",
          "type": "string"
        }
      ],
      "stateMutability": "view",
      "type": "function",
      "constant": true
    },
    {
      "inputs": [
        {
          "internalType": "address",
          "name": "from",
          "type": "address"
        },
        {
          "internalType": "address",
          "name": "to",
          "type": "address"
        },
        {
          "internalType": "uint256",
          "name": "tokenId",
          "type": "uint256"
        }
      ],
      "name": "transferFrom",
      "outputs": [],
      "stateMutability": "nonpayable",
      "type": "function"
    },
    {
      "inputs": [
        {
          "internalType": "address",
          "name": "newOwner",
          "type": "address"
        }
      ],
      "name": "transferOwnership",
      "outputs": [],
      "stateMutability": "nonpayable",
      "type": "function"
    },
    {
      "inputs": [
        {
          "internalType": "uint256",
          "name": "_amount",
          "type": "uint256"
        }
      ],
      "name": "buyBoxes",
      "outputs": [
        {
          "internalType": "uint256[]",
          "name": "",
          "type": "uint256[]"
        }
      ],
      "stateMutability": "nonpayable",
      "type": "function"
    },
    {
      "inputs": [
        {
          "internalType": "address",
          "name": "_ownerAddress",
          "type": "address"
        }
      ],
      "name": "getMyNfts",
      "outputs": [
        {
          "internalType": "uint256[]",
          "name": "",
          "type": "uint256[]"
        }
      ],
      "stateMutability": "view",
      "type": "function",
      "constant": true
    }
  ],
  "bytecode": "0x60806040523480156200001157600080fd5b5060405162003b7938038062003b7983398181016040528101906200003791906200041f565b6040518060400160405280600c81526020017f54616e6b4e4654546f6b656e00000000000000000000000000000000000000008152506040518060400160405280600381526020017f444b5400000000000000000000000000000000000000000000000000000000008152508160009080519060200190620000bb92919062000305565b508060019080519060200190620000d492919062000305565b505050620000f7620000eb6200023760201b60201c565b6200023f60201b60201c565b81600860006101000a81548173ffffffffffffffffffffffffffffffffffffffff021916908373ffffffffffffffffffffffffffffffffffffffff16021790555080600960006101000a81548173ffffffffffffffffffffffffffffffffffffffff021916908373ffffffffffffffffffffffffffffffffffffffff160217905550600960009054906101000a900473ffffffffffffffffffffffffffffffffffffffff1673ffffffffffffffffffffffffffffffffffffffff1663313ce5676040518163ffffffff1660e01b8152600401602060405180830381865afa158015620001e7573d6000803e3d6000fd5b505050506040513d601f19601f820116820180604052508101906200020d9190620004a4565b600a6200021b919062000663565b60c8620002299190620006b4565b600a81905550505062000779565b600033905090565b6000600660009054906101000a900473ffffffffffffffffffffffffffffffffffffffff16905081600660006101000a81548173ffffffffffffffffffffffffffffffffffffffff021916908373ffffffffffffffffffffffffffffffffffffffff1602179055508173ffffffffffffffffffffffffffffffffffffffff168173ffffffffffffffffffffffffffffffffffffffff167f8be0079c531659141344cd1fd0a4f28419497f9722a3daafe3b4186f6b6457e060405160405180910390a35050565b828054620003139062000744565b90600052602060002090601f01602090048101928262000337576000855562000383565b82601f106200035257805160ff191683800117855562000383565b8280016001018555821562000383579182015b828111156200038257825182559160200191906001019062000365565b5b50905062000392919062000396565b5090565b5b80821115620003b157600081600090555060010162000397565b5090565b600080fd5b600073ffffffffffffffffffffffffffffffffffffffff82169050919050565b6000620003e782620003ba565b9050919050565b620003f981620003da565b81146200040557600080fd5b50565b6000815190506200041981620003ee565b92915050565b60008060408385031215620004395762000438620003b5565b5b6000620004498582860162000408565b92505060206200045c8582860162000408565b9150509250929050565b600060ff82169050919050565b6200047e8162000466565b81146200048a57600080fd5b50565b6000815190506200049e8162000473565b92915050565b600060208284031215620004bd57620004bc620003b5565b5b6000620004cd848285016200048d565b91505092915050565b7f4e487b7100000000000000000000000000000000000000000000000000000000600052601160045260246000fd5b60008160011c9050919050565b6000808291508390505b600185111562000564578086048111156200053c576200053b620004d6565b5b60018516156200054c5780820291505b80810290506200055c8562000505565b94506200051c565b94509492505050565b6000826200057f576001905062000652565b816200058f576000905062000652565b8160018114620005a85760028114620005b357620005e9565b600191505062000652565b60ff841115620005c857620005c7620004d6565b5b8360020a915084821115620005e257620005e1620004d6565b5b5062000652565b5060208310610133831016604e8410600b8410161715620006235782820a9050838111156200061d576200061c620004d6565b5b62000652565b62000632848484600162000512565b925090508184048111156200064c576200064b620004d6565b5b81810290505b9392505050565b6000819050919050565b6000620006708262000659565b91506200067d8362000466565b9250620006ac7fffffffffffffffffffffffffffffffffffffffffffffffffffffffffffffffff84846200056d565b905092915050565b6000620006c18262000659565b9150620006ce8362000659565b9250817fffffffffffffffffffffffffffffffffffffffffffffffffffffffffffffffff04831182151516156200070a5762000709620004d6565b5b828202905092915050565b7f4e487b7100000000000000000000000000000000000000000000000000000000600052602260045260246000fd5b600060028204905060018216806200075d57607f821691505b60208210810362000773576200077262000715565b5b50919050565b6133f080620007896000396000f3fe608060405234801561001057600080fd5b50600436106101375760003560e01c80638da5cb5b116100b8578063b88d4fde1161007c578063b88d4fde1461032a578063c87b56dd14610346578063da74733e14610376578063e985e9c5146103a6578063f2fde38b146103d6578063f6c1b77a146103f257610137565b80638da5cb5b1461029657806395623641146102b457806395d89b41146102d2578063a22cb465146102f0578063a64828581461030c57610137565b806323b872dd116100ff57806323b872dd146101f457806342842e0e146102105780636352211e1461022c57806370a082311461025c578063715018a61461028c57610137565b806301ffc9a71461013c57806306fdde031461016c578063081812fc1461018a578063095ea7b3146101ba57806314d889cf146101d6575b600080fd5b61015660048036038101906101519190611e8f565b610422565b6040516101639190611ed7565b60405180910390f35b610174610504565b6040516101819190611f8b565b60405180910390f35b6101a4600480360381019061019f9190611fe3565b610596565b6040516101b19190612051565b60405180910390f35b6101d460048036038101906101cf9190612098565b61061b565b005b6101de610732565b6040516101eb9190612137565b60405180910390f35b61020e60048036038101906102099190612152565b610758565b005b61022a60048036038101906102259190612152565b6107b8565b005b61024660048036038101906102419190611fe3565b6107d8565b6040516102539190612051565b60405180910390f35b610276600480360381019061027191906121a5565b610889565b60405161028391906121e1565b60405180910390f35b610294610940565b005b61029e6109c8565b6040516102ab9190612051565b60405180910390f35b6102bc6109f2565b6040516102c99190612051565b60405180910390f35b6102da610a18565b6040516102e79190611f8b565b60405180910390f35b61030a60048036038101906103059190612228565b610aaa565b005b610314610ac0565b60405161032191906121e1565b60405180910390f35b610344600480360381019061033f919061239d565b610ac6565b005b610360600480360381019061035b9190611fe3565b610b28565b60405161036d9190611f8b565b60405180910390f35b610390600480360381019061038b9190611fe3565b610bcf565b60405161039d91906124de565b60405180910390f35b6103c060048036038101906103bb9190612500565b610e53565b6040516103cd9190611ed7565b60405180910390f35b6103f060048036038101906103eb91906121a5565b610ee7565b005b61040c600480360381019061040791906121a5565b610fde565b60405161041991906124de565b60405180910390f35b60007f80ac58cd000000000000000000000000000000000000000000000000000000007bffffffffffffffffffffffffffffffffffffffffffffffffffffffff1916827bffffffffffffffffffffffffffffffffffffffffffffffffffffffff191614806104ed57507f5b5e139f000000000000000000000000000000000000000000000000000000007bffffffffffffffffffffffffffffffffffffffffffffffffffffffff1916827bffffffffffffffffffffffffffffffffffffffffffffffffffffffff1916145b806104fd57506104fc826110f0565b5b9050919050565b6060600080546105139061256f565b80601f016020809104026020016040519081016040528092919081815260200182805461053f9061256f565b801561058c5780601f106105615761010080835404028352916020019161058c565b820191906000526020600020905b81548152906001019060200180831161056f57829003601f168201915b5050505050905090565b60006105a18261115a565b6105e0576040517f08c379a00000000000000000000000000000000000000000000000000000000081526004016105d790612612565b60405180910390fd5b6004600083815260200190815260200160002060009054906101000a900473ffffffffffffffffffffffffffffffffffffffff169050919050565b6000610626826107d8565b90508073ffffffffffffffffffffffffffffffffffffffff168373ffffffffffffffffffffffffffffffffffffffff1603610696576040517f08c379a000000000000000000000000000000000000000000000000000000000815260040161068d906126a4565b60405180910390fd5b8073ffffffffffffffffffffffffffffffffffffffff166106b56111c6565b73ffffffffffffffffffffffffffffffffffffffff1614806106e457506106e3816106de6111c6565b610e53565b5b610723576040517f08c379a000000000000000000000000000000000000000000000000000000000815260040161071a90612736565b60405180910390fd5b61072d83836111ce565b505050565b600960009054906101000a900473ffffffffffffffffffffffffffffffffffffffff1681565b6107696107636111c6565b82611287565b6107a8576040517f08c379a000000000000000000000000000000000000000000000000000000000815260040161079f906127c8565b60405180910390fd5b6107b3838383611365565b505050565b6107d383838360405180602001604052806000815250610ac6565b505050565b6000806002600084815260200190815260200160002060009054906101000a900473ffffffffffffffffffffffffffffffffffffffff169050600073ffffffffffffffffffffffffffffffffffffffff168173ffffffffffffffffffffffffffffffffffffffff1603610880576040517f08c379a00000000000000000000000000000000000000000000000000000000081526004016108779061285a565b60405180910390fd5b80915050919050565b60008073ffffffffffffffffffffffffffffffffffffffff168273ffffffffffffffffffffffffffffffffffffffff16036108f9576040517f08c379a00000000000000000000000000000000000000000000000000000000081526004016108f0906128ec565b60405180910390fd5b600360008373ffffffffffffffffffffffffffffffffffffffff1673ffffffffffffffffffffffffffffffffffffffff168152602001908152602001600020549050919050565b6109486111c6565b73ffffffffffffffffffffffffffffffffffffffff166109666109c8565b73ffffffffffffffffffffffffffffffffffffffff16146109bc576040517f08c379a00000000000000000000000000000000000000000000000000000000081526004016109b390612958565b60405180910390fd5b6109c660006115cb565b565b6000600660009054906101000a900473ffffffffffffffffffffffffffffffffffffffff16905090565b600860009054906101000a900473ffffffffffffffffffffffffffffffffffffffff1681565b606060018054610a279061256f565b80601f0160208091040260200160405190810160405280929190818152602001828054610a539061256f565b8015610aa05780601f10610a7557610100808354040283529160200191610aa0565b820191906000526020600020905b815481529060010190602001808311610a8357829003601f168201915b5050505050905090565b610abc610ab56111c6565b8383611691565b5050565b600a5481565b610ad7610ad16111c6565b83611287565b610b16576040517f08c379a0000000000000000000000000000000000000000000000000000000008152600401610b0d906127c8565b60405180910390fd5b610b22848484846117fd565b50505050565b6060610b338261115a565b610b72576040517f08c379a0000000000000000000000000000000000000000000000000000000008152600401610b69906129ea565b60405180910390fd5b6000610b7c611859565b90506000815111610b9c5760405180602001604052806000815250610bc7565b80610ba684611879565b604051602001610bb7929190612a46565b6040516020818303038152906040525b915050919050565b606060008211610c14576040517f08c379a0000000000000000000000000000000000000000000000000000000008152600401610c0b90612ab6565b60405180910390fd5b6000600a5483610c249190612b05565b90506000600960009054906101000a900473ffffffffffffffffffffffffffffffffffffffff1673ffffffffffffffffffffffffffffffffffffffff1663dd62ed3e33306040518363ffffffff1660e01b8152600401610c85929190612b5f565b602060405180830381865afa158015610ca2573d6000803e3d6000fd5b505050506040513d601f19601f82011682018060405250810190610cc69190612b9d565b905081811015610d0b576040517f08c379a0000000000000000000000000000000000000000000000000000000008152600401610d0290612c3c565b60405180910390fd5b600960009054906101000a900473ffffffffffffffffffffffffffffffffffffffff1673ffffffffffffffffffffffffffffffffffffffff166323b872dd33610d526109c8565b856040518463ffffffff1660e01b8152600401610d7193929190612c5c565b6020604051808303816000875af1158015610d90573d6000803e3d6000fd5b505050506040513d601f19601f82011682018060405250810190610db49190612ca8565b5060008467ffffffffffffffff811115610dd157610dd0612272565b5b604051908082528060200260200182016040528015610dff5781602001602082028036833780820191505090505b50905060005b85811015610e4757610e156119d9565b828281518110610e2857610e27612cd5565b5b6020026020010181815250508080610e3f90612d04565b915050610e05565b50809350505050919050565b6000600560008473ffffffffffffffffffffffffffffffffffffffff1673ffffffffffffffffffffffffffffffffffffffff16815260200190815260200160002060008373ffffffffffffffffffffffffffffffffffffffff1673ffffffffffffffffffffffffffffffffffffffff16815260200190815260200160002060009054906101000a900460ff16905092915050565b610eef6111c6565b73ffffffffffffffffffffffffffffffffffffffff16610f0d6109c8565b73ffffffffffffffffffffffffffffffffffffffff1614610f63576040517f08c379a0000000000000000000000000000000000000000000000000000000008152600401610f5a90612958565b60405180910390fd5b600073ffffffffffffffffffffffffffffffffffffffff168173ffffffffffffffffffffffffffffffffffffffff1603610fd2576040517f08c379a0000000000000000000000000000000000000000000000000000000008152600401610fc990612dbe565b60405180910390fd5b610fdb816115cb565b50565b60606000610fec6007611a72565b90506000610ff984610889565b67ffffffffffffffff81111561101257611011612272565b5b6040519080825280602002602001820160405280156110405781602001602082028036833780820191505090505b5090506000805b838110156110e4578573ffffffffffffffffffffffffffffffffffffffff1661107b6001836110769190612dde565b6107d8565b73ffffffffffffffffffffffffffffffffffffffff16036110d1576001816110a39190612dde565b8383815181106110b6576110b5612cd5565b5b60200260200101818152505081806110cd90612d04565b9250505b80806110dc90612d04565b915050611047565b50819350505050919050565b60007f01ffc9a7000000000000000000000000000000000000000000000000000000007bffffffffffffffffffffffffffffffffffffffffffffffffffffffff1916827bffffffffffffffffffffffffffffffffffffffffffffffffffffffff1916149050919050565b60008073ffffffffffffffffffffffffffffffffffffffff166002600084815260200190815260200160002060009054906101000a900473ffffffffffffffffffffffffffffffffffffffff1673ffffffffffffffffffffffffffffffffffffffff1614159050919050565b600033905090565b816004600083815260200190815260200160002060006101000a81548173ffffffffffffffffffffffffffffffffffffffff021916908373ffffffffffffffffffffffffffffffffffffffff160217905550808273ffffffffffffffffffffffffffffffffffffffff16611241836107d8565b73ffffffffffffffffffffffffffffffffffffffff167f8c5be1e5ebec7d5bd14f71427d1e84f3dd0314c0f7b2291e5b200ac8c7c3b92560405160405180910390a45050565b60006112928261115a565b6112d1576040517f08c379a00000000000000000000000000000000000000000000000000000000081526004016112c890612ea6565b60405180910390fd5b60006112dc836107d8565b90508073ffffffffffffffffffffffffffffffffffffffff168473ffffffffffffffffffffffffffffffffffffffff16148061131e575061131d8185610e53565b5b8061135c57508373ffffffffffffffffffffffffffffffffffffffff1661134484610596565b73ffffffffffffffffffffffffffffffffffffffff16145b91505092915050565b8273ffffffffffffffffffffffffffffffffffffffff16611385826107d8565b73ffffffffffffffffffffffffffffffffffffffff16146113db576040517f08c379a00000000000000000000000000000000000000000000000000000000081526004016113d290612f38565b60405180910390fd5b600073ffffffffffffffffffffffffffffffffffffffff168273ffffffffffffffffffffffffffffffffffffffff160361144a576040517f08c379a000000000000000000000000000000000000000000000000000000000815260040161144190612fca565b60405180910390fd5b611455838383611a80565b6114606000826111ce565b6001600360008573ffffffffffffffffffffffffffffffffffffffff1673ffffffffffffffffffffffffffffffffffffffff16815260200190815260200160002060008282546114b09190612fea565b925050819055506001600360008473ffffffffffffffffffffffffffffffffffffffff1673ffffffffffffffffffffffffffffffffffffffff16815260200190815260200160002060008282546115079190612dde565b92505081905550816002600083815260200190815260200160002060006101000a81548173ffffffffffffffffffffffffffffffffffffffff021916908373ffffffffffffffffffffffffffffffffffffffff160217905550808273ffffffffffffffffffffffffffffffffffffffff168473ffffffffffffffffffffffffffffffffffffffff167fddf252ad1be2c89b69c2b068fc378daa952ba7f163c4a11628f55a4df523b3ef60405160405180910390a46115c6838383611a85565b505050565b6000600660009054906101000a900473ffffffffffffffffffffffffffffffffffffffff16905081600660006101000a81548173ffffffffffffffffffffffffffffffffffffffff021916908373ffffffffffffffffffffffffffffffffffffffff1602179055508173ffffffffffffffffffffffffffffffffffffffff168173ffffffffffffffffffffffffffffffffffffffff167f8be0079c531659141344cd1fd0a4f28419497f9722a3daafe3b4186f6b6457e060405160405180910390a35050565b8173ffffffffffffffffffffffffffffffffffffffff168373ffffffffffffffffffffffffffffffffffffffff16036116ff576040517f08c379a00000000000000000000000000000000000000000000000000000000081526004016116f69061306a565b60405180910390fd5b80600560008573ffffffffffffffffffffffffffffffffffffffff1673ffffffffffffffffffffffffffffffffffffffff16815260200190815260200160002060008473ffffffffffffffffffffffffffffffffffffffff1673ffffffffffffffffffffffffffffffffffffffff16815260200190815260200160002060006101000a81548160ff0219169083151502179055508173ffffffffffffffffffffffffffffffffffffffff168373ffffffffffffffffffffffffffffffffffffffff167f17307eab39ab6107e8899845ad3d59bd9653f200f220920489ca2b5937696c31836040516117f09190611ed7565b60405180910390a3505050565b611808848484611365565b61181484848484611a8a565b611853576040517f08c379a000000000000000000000000000000000000000000000000000000000815260040161184a906130fc565b60405180910390fd5b50505050565b606060405180606001604052806029815260200161339260299139905090565b6060600082036118c0576040518060400160405280600181526020017f300000000000000000000000000000000000000000000000000000000000000081525090506119d4565b600082905060005b600082146118f25780806118db90612d04565b915050600a826118eb919061314b565b91506118c8565b60008167ffffffffffffffff81111561190e5761190d612272565b5b6040519080825280601f01601f1916602001820160405280156119405781602001600182028036833780820191505090505b5090505b600085146119cd576001826119599190612fea565b9150600a85611968919061317c565b60306119749190612dde565b60f81b81838151811061198a57611989612cd5565b5b60200101907effffffffffffffffffffffffffffffffffffffffffffffffffffffffffffff1916908160001a905350600a856119c6919061314b565b9450611944565b8093505050505b919050565b60006119e56007611c11565b60006119f16007611a72565b90506119fd3382611c27565b611a32611a086111c6565b600860009054906101000a900473ffffffffffffffffffffffffffffffffffffffff166001611691565b7f0176f203df400d7bd5f1b1c9ef36c16709bf3b5d9fd35f000a6bae32393f66c38133604051611a639291906131ad565b60405180910390a18091505090565b600081600001549050919050565b505050565b505050565b6000611aab8473ffffffffffffffffffffffffffffffffffffffff16611e00565b15611c04578373ffffffffffffffffffffffffffffffffffffffff1663150b7a02611ad46111c6565b8786866040518563ffffffff1660e01b8152600401611af6949392919061322b565b6020604051808303816000875af1925050508015611b3257506040513d601f19601f82011682018060405250810190611b2f919061328c565b60015b611bb4573d8060008114611b62576040519150601f19603f3d011682016040523d82523d6000602084013e611b67565b606091505b506000815103611bac576040517f08c379a0000000000000000000000000000000000000000000000000000000008152600401611ba3906130fc565b60405180910390fd5b805181602001fd5b63150b7a0260e01b7bffffffffffffffffffffffffffffffffffffffffffffffffffffffff1916817bffffffffffffffffffffffffffffffffffffffffffffffffffffffff191614915050611c09565b600190505b949350505050565b6001816000016000828254019250508190555050565b600073ffffffffffffffffffffffffffffffffffffffff168273ffffffffffffffffffffffffffffffffffffffff1603611c96576040517f08c379a0000000000000000000000000000000000000000000000000000000008152600401611c8d90613305565b60405180910390fd5b611c9f8161115a565b15611cdf576040517f08c379a0000000000000000000000000000000000000000000000000000000008152600401611cd690613371565b60405180910390fd5b611ceb60008383611a80565b6001600360008473ffffffffffffffffffffffffffffffffffffffff1673ffffffffffffffffffffffffffffffffffffffff1681526020019081526020016000206000828254611d3b9190612dde565b92505081905550816002600083815260200190815260200160002060006101000a81548173ffffffffffffffffffffffffffffffffffffffff021916908373ffffffffffffffffffffffffffffffffffffffff160217905550808273ffffffffffffffffffffffffffffffffffffffff16600073ffffffffffffffffffffffffffffffffffffffff167fddf252ad1be2c89b69c2b068fc378daa952ba7f163c4a11628f55a4df523b3ef60405160405180910390a4611dfc60008383611a85565b5050565b6000808273ffffffffffffffffffffffffffffffffffffffff163b119050919050565b6000604051905090565b600080fd5b600080fd5b60007fffffffff0000000000000000000000000000000000000000000000000000000082169050919050565b611e6c81611e37565b8114611e7757600080fd5b50565b600081359050611e8981611e63565b92915050565b600060208284031215611ea557611ea4611e2d565b5b6000611eb384828501611e7a565b91505092915050565b60008115159050919050565b611ed181611ebc565b82525050565b6000602082019050611eec6000830184611ec8565b92915050565b600081519050919050565b600082825260208201905092915050565b60005b83811015611f2c578082015181840152602081019050611f11565b83811115611f3b576000848401525b50505050565b6000601f19601f8301169050919050565b6000611f5d82611ef2565b611f678185611efd565b9350611f77818560208601611f0e565b611f8081611f41565b840191505092915050565b60006020820190508181036000830152611fa58184611f52565b905092915050565b6000819050919050565b611fc081611fad565b8114611fcb57600080fd5b50565b600081359050611fdd81611fb7565b92915050565b600060208284031215611ff957611ff8611e2d565b5b600061200784828501611fce565b91505092915050565b600073ffffffffffffffffffffffffffffffffffffffff82169050919050565b600061203b82612010565b9050919050565b61204b81612030565b82525050565b60006020820190506120666000830184612042565b92915050565b61207581612030565b811461208057600080fd5b50565b6000813590506120928161206c565b92915050565b600080604083850312156120af576120ae611e2d565b5b60006120bd85828601612083565b92505060206120ce85828601611fce565b9150509250929050565b6000819050919050565b60006120fd6120f86120f384612010565b6120d8565b612010565b9050919050565b600061210f826120e2565b9050919050565b600061212182612104565b9050919050565b61213181612116565b82525050565b600060208201905061214c6000830184612128565b92915050565b60008060006060848603121561216b5761216a611e2d565b5b600061217986828701612083565b935050602061218a86828701612083565b925050604061219b86828701611fce565b9150509250925092565b6000602082840312156121bb576121ba611e2d565b5b60006121c984828501612083565b91505092915050565b6121db81611fad565b82525050565b60006020820190506121f660008301846121d2565b92915050565b61220581611ebc565b811461221057600080fd5b50565b600081359050612222816121fc565b92915050565b6000806040838503121561223f5761223e611e2d565b5b600061224d85828601612083565b925050602061225e85828601612213565b9150509250929050565b600080fd5b600080fd5b7f4e487b7100000000000000000000000000000000000000000000000000000000600052604160045260246000fd5b6122aa82611f41565b810181811067ffffffffffffffff821117156122c9576122c8612272565b5b80604052505050565b60006122dc611e23565b90506122e882826122a1565b919050565b600067ffffffffffffffff82111561230857612307612272565b5b61231182611f41565b9050602081019050919050565b82818337600083830152505050565b600061234061233b846122ed565b6122d2565b90508281526020810184848401111561235c5761235b61226d565b5b61236784828561231e565b509392505050565b600082601f83011261238457612383612268565b5b813561239484826020860161232d565b91505092915050565b600080600080608085870312156123b7576123b6611e2d565b5b60006123c587828801612083565b94505060206123d687828801612083565b93505060406123e787828801611fce565b925050606085013567ffffffffffffffff81111561240857612407611e32565b5b6124148782880161236f565b91505092959194509250565b600081519050919050565b600082825260208201905092915050565b6000819050602082019050919050565b61245581611fad565b82525050565b6000612467838361244c565b60208301905092915050565b6000602082019050919050565b600061248b82612420565b612495818561242b565b93506124a08361243c565b8060005b838110156124d15781516124b8888261245b565b97506124c383612473565b9250506001810190506124a4565b5085935050505092915050565b600060208201905081810360008301526124f88184612480565b905092915050565b6000806040838503121561251757612516611e2d565b5b600061252585828601612083565b925050602061253685828601612083565b9150509250929050565b7f4e487b7100000000000000000000000000000000000000000000000000000000600052602260045260246000fd5b6000600282049050600182168061258757607f821691505b60208210810361259a57612599612540565b5b50919050565b7f4552433732313a20617070726f76656420717565727920666f72206e6f6e657860008201527f697374656e7420746f6b656e0000000000000000000000000000000000000000602082015250565b60006125fc602c83611efd565b9150612607826125a0565b604082019050919050565b6000602082019050818103600083015261262b816125ef565b9050919050565b7f4552433732313a20617070726f76616c20746f2063757272656e74206f776e6560008201527f7200000000000000000000000000000000000000000000000000000000000000602082015250565b600061268e602183611efd565b915061269982612632565b604082019050919050565b600060208201905081810360008301526126bd81612681565b9050919050565b7f4552433732313a20617070726f76652063616c6c6572206973206e6f74206f7760008201527f6e6572206e6f7220617070726f76656420666f7220616c6c0000000000000000602082015250565b6000612720603883611efd565b915061272b826126c4565b604082019050919050565b6000602082019050818103600083015261274f81612713565b9050919050565b7f4552433732313a207472616e736665722063616c6c6572206973206e6f74206f60008201527f776e6572206e6f7220617070726f766564000000000000000000000000000000602082015250565b60006127b2603183611efd565b91506127bd82612756565b604082019050919050565b600060208201905081810360008301526127e1816127a5565b9050919050565b7f4552433732313a206f776e657220717565727920666f72206e6f6e657869737460008201527f656e7420746f6b656e0000000000000000000000000000000000000000000000602082015250565b6000612844602983611efd565b915061284f826127e8565b604082019050919050565b6000602082019050818103600083015261287381612837565b9050919050565b7f4552433732313a2062616c616e636520717565727920666f7220746865207a6560008201527f726f206164647265737300000000000000000000000000000000000000000000602082015250565b60006128d6602a83611efd565b91506128e18261287a565b604082019050919050565b60006020820190508181036000830152612905816128c9565b9050919050565b7f4f776e61626c653a2063616c6c6572206973206e6f7420746865206f776e6572600082015250565b6000612942602083611efd565b915061294d8261290c565b602082019050919050565b6000602082019050818103600083015261297181612935565b9050919050565b7f4552433732314d657461646174613a2055524920717565727920666f72206e6f60008201527f6e6578697374656e7420746f6b656e0000000000000000000000000000000000602082015250565b60006129d4602f83611efd565b91506129df82612978565b604082019050919050565b60006020820190508181036000830152612a03816129c7565b9050919050565b600081905092915050565b6000612a2082611ef2565b612a2a8185612a0a565b9350612a3a818560208601611f0e565b80840191505092915050565b6000612a528285612a15565b9150612a5e8284612a15565b91508190509392505050565b7f426f78416d6f756e74206d757374203e20300000000000000000000000000000600082015250565b6000612aa0601283611efd565b9150612aab82612a6a565b602082019050919050565b60006020820190508181036000830152612acf81612a93565b9050919050565b7f4e487b7100000000000000000000000000000000000000000000000000000000600052601160045260246000fd5b6000612b1082611fad565b9150612b1b83611fad565b9250817fffffffffffffffffffffffffffffffffffffffffffffffffffffffffffffffff0483118215151615612b5457612b53612ad6565b5b828202905092915050565b6000604082019050612b746000830185612042565b612b816020830184612042565b9392505050565b600081519050612b9781611fb7565b92915050565b600060208284031215612bb357612bb2611e2d565b5b6000612bc184828501612b88565b91505092915050565b7f596f7520646f206e6f74206861766520656e6f75676820444b4320746f20627560008201527f7920426f78657300000000000000000000000000000000000000000000000000602082015250565b6000612c26602783611efd565b9150612c3182612bca565b604082019050919050565b60006020820190508181036000830152612c5581612c19565b9050919050565b6000606082019050612c716000830186612042565b612c7e6020830185612042565b612c8b60408301846121d2565b949350505050565b600081519050612ca2816121fc565b92915050565b600060208284031215612cbe57612cbd611e2d565b5b6000612ccc84828501612c93565b91505092915050565b7f4e487b7100000000000000000000000000000000000000000000000000000000600052603260045260246000fd5b6000612d0f82611fad565b91507fffffffffffffffffffffffffffffffffffffffffffffffffffffffffffffffff8203612d4157612d40612ad6565b5b600182019050919050565b7f4f776e61626c653a206e6577206f776e657220697320746865207a65726f206160008201527f6464726573730000000000000000000000000000000000000000000000000000602082015250565b6000612da8602683611efd565b9150612db382612d4c565b604082019050919050565b60006020820190508181036000830152612dd781612d9b565b9050919050565b6000612de982611fad565b9150612df483611fad565b9250827fffffffffffffffffffffffffffffffffffffffffffffffffffffffffffffffff03821115612e2957612e28612ad6565b5b828201905092915050565b7f4552433732313a206f70657261746f7220717565727920666f72206e6f6e657860008201527f697374656e7420746f6b656e0000000000000000000000000000000000000000602082015250565b6000612e90602c83611efd565b9150612e9b82612e34565b604082019050919050565b60006020820190508181036000830152612ebf81612e83565b9050919050565b7f4552433732313a207472616e736665722066726f6d20696e636f72726563742060008201527f6f776e6572000000000000000000000000000000000000000000000000000000602082015250565b6000612f22602583611efd565b9150612f2d82612ec6565b604082019050919050565b60006020820190508181036000830152612f5181612f15565b9050919050565b7f4552433732313a207472616e7366657220746f20746865207a65726f2061646460008201527f7265737300000000000000000000000000000000000000000000000000000000602082015250565b6000612fb4602483611efd565b9150612fbf82612f58565b604082019050919050565b60006020820190508181036000830152612fe381612fa7565b9050919050565b6000612ff582611fad565b915061300083611fad565b92508282101561301357613012612ad6565b5b828203905092915050565b7f4552433732313a20617070726f766520746f2063616c6c657200000000000000600082015250565b6000613054601983611efd565b915061305f8261301e565b602082019050919050565b6000602082019050818103600083015261308381613047565b9050919050565b7f4552433732313a207472616e7366657220746f206e6f6e20455243373231526560008201527f63656976657220696d706c656d656e7465720000000000000000000000000000602082015250565b60006130e6603283611efd565b91506130f18261308a565b604082019050919050565b60006020820190508181036000830152613115816130d9565b9050919050565b7f4e487b7100000000000000000000000000000000000000000000000000000000600052601260045260246000fd5b600061315682611fad565b915061316183611fad565b9250826131715761317061311c565b5b828204905092915050565b600061318782611fad565b915061319283611fad565b9250826131a2576131a161311c565b5b828206905092915050565b60006040820190506131c260008301856121d2565b6131cf6020830184612042565b9392505050565b600081519050919050565b600082825260208201905092915050565b60006131fd826131d6565b61320781856131e1565b9350613217818560208601611f0e565b61322081611f41565b840191505092915050565b60006080820190506132406000830187612042565b61324d6020830186612042565b61325a60408301856121d2565b818103606083015261326c81846131f2565b905095945050505050565b60008151905061328681611e63565b92915050565b6000602082840312156132a2576132a1611e2d565b5b60006132b084828501613277565b91505092915050565b7f4552433732313a206d696e7420746f20746865207a65726f2061646472657373600082015250565b60006132ef602083611efd565b91506132fa826132b9565b602082019050919050565b6000602082019050818103600083015261331e816132e2565b9050919050565b7f4552433732313a20746f6b656e20616c7265616479206d696e74656400000000600082015250565b600061335b601c83611efd565b915061336682613325565b602082019050919050565b6000602082019050818103600083015261338a8161334e565b905091905056fe68747470733a2f2f6170692e74686564656174686b696e67646f6d2e636f6d2f6d657461646174612fa2646970667358221220bb84ff3947f6fffdadbdc4349d0ce2c1aa1d661a5c90db71cdf1b499b101cf8164736f6c634300080d0033",
  "immutableReferences": {},
  "source": "// SPDX-License-Identifier: MIT\r\n\r\npragma solidity ^0.8.13;\r\n\r\nimport \"@openzeppelin/contracts/token/ERC721/ERC721.sol\";\r\nimport \"@openzeppelin/contracts/utils/Counters.sol\";\r\nimport \"@openzeppelin/contracts/token/ERC20/ERC20.sol\";\r\nimport \"@openzeppelin/contracts/access/Ownable.sol\";\r\n\r\ncontract TankNFT is ERC721, Ownable {\r\n    using Counters for Counters.Counter;\r\n    Counters.Counter private _tokenIds;\r\n    address public marketAddress;\r\n    ERC20 public deathKingdomCoin;\r\n    uint256 public boxPrice;\r\n\r\n    constructor(address _mrketplaceContract, address _deathKingdomCoinContract)\r\n        ERC721(\"TankNFTToken\", \"DKT\")\r\n    {\r\n        marketAddress = _mrketplaceContract;\r\n        deathKingdomCoin = ERC20(_deathKingdomCoinContract);\r\n        boxPrice = 200 * 10**deathKingdomCoin.decimals();\r\n    }\r\n\r\n    function _baseURI() internal pure override returns (string memory) {\r\n        return \"https://api.thedeathkingdom.com/metadata/\";\r\n    }\r\n\r\n    event NFTMinted(uint256 tokenId, address tokenOwner);\r\n\r\n    function buyBoxes(uint256 _amount) public returns (uint256[] memory) {\r\n        require(_amount > 0, \"BoxAmount must > 0\");\r\n        uint256 totalPrice = _amount * boxPrice;\r\n\r\n        uint256 allowance = deathKingdomCoin.allowance(\r\n            msg.sender,\r\n            address(this)\r\n        );\r\n        require(\r\n            allowance >= totalPrice,\r\n            \"You do not have enough DKC to buy Boxes\"\r\n        );\r\n\r\n        deathKingdomCoin.transferFrom(msg.sender, owner(), totalPrice);\r\n\r\n        uint256[] memory nfts = new uint256[](_amount);\r\n        for (uint256 i = 0; i < _amount; i++) {\r\n            nfts[i] = createToken();\r\n        }\r\n        return nfts;\r\n    }\r\n\r\n    function createToken() private returns (uint256) {\r\n        _tokenIds.increment();\r\n        uint256 newTokenId = _tokenIds.current();\r\n\r\n        _mint(msg.sender, newTokenId);\r\n        _setApprovalForAll(_msgSender(), marketAddress, true);\r\n\r\n        emit NFTMinted(newTokenId, msg.sender);\r\n        return newTokenId;\r\n    }\r\n\r\n    function getMyNfts(address _ownerAddress)\r\n        public\r\n        view\r\n        returns (uint256[] memory)\r\n    {\r\n        uint256 nftCount = _tokenIds.current();\r\n        uint256[] memory nfts = new uint256[](balanceOf(_ownerAddress));\r\n        uint256 nftIndex = 0;\r\n        for (uint256 i = 0; i < nftCount; i++) {\r\n            if (ownerOf(i + 1) == _ownerAddress) {\r\n                nfts[nftIndex] = i + 1;\r\n                nftIndex++;\r\n            }\r\n        }\r\n        return nfts;\r\n    }\r\n}\r\n",
  "sourcePath": "D:\\code\\TheDeadKingdom\\Contract\\contracts\\ethereum\\TankNFT.sol",
  "compiler": {
    "name": "solc",
    "version": "0.8.13+commit.abaa5c0e.Emscripten.clang"
  },
  "schemaVersion": "3.4.7",
  "updatedAt": "2022-07-11T15:20:12.900Z",
  "networkType": "ethereum",
  "devdoc": {
    "kind": "dev",
    "methods": {
      "approve(address,uint256)": {
        "details": "See {IERC721-approve}."
      },
      "balanceOf(address)": {
        "details": "See {IERC721-balanceOf}."
      },
      "getApproved(uint256)": {
        "details": "See {IERC721-getApproved}."
      },
      "isApprovedForAll(address,address)": {
        "details": "See {IERC721-isApprovedForAll}."
      },
      "name()": {
        "details": "See {IERC721Metadata-name}."
      },
      "owner()": {
        "details": "Returns the address of the current owner."
      },
      "ownerOf(uint256)": {
        "details": "See {IERC721-ownerOf}."
      },
      "renounceOwnership()": {
        "details": "Leaves the contract without owner. It will not be possible to call `onlyOwner` functions anymore. Can only be called by the current owner. NOTE: Renouncing ownership will leave the contract without an owner, thereby removing any functionality that is only available to the owner."
      },
      "safeTransferFrom(address,address,uint256)": {
        "details": "See {IERC721-safeTransferFrom}."
      },
      "safeTransferFrom(address,address,uint256,bytes)": {
        "details": "See {IERC721-safeTransferFrom}."
      },
      "setApprovalForAll(address,bool)": {
        "details": "See {IERC721-setApprovalForAll}."
      },
      "supportsInterface(bytes4)": {
        "details": "See {IERC165-supportsInterface}."
      },
      "symbol()": {
        "details": "See {IERC721Metadata-symbol}."
      },
      "tokenURI(uint256)": {
        "details": "See {IERC721Metadata-tokenURI}."
      },
      "transferFrom(address,address,uint256)": {
        "details": "See {IERC721-transferFrom}."
      },
      "transferOwnership(address)": {
        "details": "Transfers ownership of the contract to a new account (`newOwner`). Can only be called by the current owner."
      }
    },
    "version": 1
  },
  "userdoc": {
    "kind": "user",
    "methods": {},
    "version": 1
  }
}