{
  "contractName": "TankNFT",
  "abi": [
    {
      "inputs": [
        {
          "internalType": "address",
          "name": "NFTMarket",
          "type": "address"
        }
      ],
      "stateMutability": "nonpayable",
      "type": "constructor"
    },
    {
      "anonymous": false,
      "inputs": [
        {
          "indexed": true,
          "internalType": "address",
          "name": "owner",
          "type": "address"
        },
        {
          "indexed": true,
          "internalType": "address",
          "name": "approved",
          "type": "address"
        },
        {
          "indexed": true,
          "internalType": "uint256",
          "name": "tokenId",
          "type": "uint256"
        }
      ],
      "name": "Approval",
      "type": "event"
    },
    {
      "anonymous": false,
      "inputs": [
        {
          "indexed": true,
          "internalType": "address",
          "name": "owner",
          "type": "address"
        },
        {
          "indexed": true,
          "internalType": "address",
          "name": "operator",
          "type": "address"
        },
        {
          "indexed": false,
          "internalType": "bool",
          "name": "approved",
          "type": "bool"
        }
      ],
      "name": "ApprovalForAll",
      "type": "event"
    },
    {
      "anonymous": false,
      "inputs": [
        {
          "indexed": false,
          "internalType": "uint256",
          "name": "tokenId",
          "type": "uint256"
        },
        {
          "indexed": false,
          "internalType": "address",
          "name": "tokenOwner",
          "type": "address"
        }
      ],
      "name": "NFTMinted",
      "type": "event"
    },
    {
      "anonymous": false,
      "inputs": [
        {
          "indexed": true,
          "internalType": "address",
          "name": "from",
          "type": "address"
        },
        {
          "indexed": true,
          "internalType": "address",
          "name": "to",
          "type": "address"
        },
        {
          "indexed": true,
          "internalType": "uint256",
          "name": "tokenId",
          "type": "uint256"
        }
      ],
      "name": "Transfer",
      "type": "event"
    },
    {
      "inputs": [
        {
          "internalType": "address",
          "name": "to",
          "type": "address"
        },
        {
          "internalType": "uint256",
          "name": "tokenId",
          "type": "uint256"
        }
      ],
      "name": "approve",
      "outputs": [],
      "stateMutability": "nonpayable",
      "type": "function"
    },
    {
      "inputs": [
        {
          "internalType": "address",
          "name": "owner",
          "type": "address"
        }
      ],
      "name": "balanceOf",
      "outputs": [
        {
          "internalType": "uint256",
          "name": "",
          "type": "uint256"
        }
      ],
      "stateMutability": "view",
      "type": "function",
      "constant": true
    },
    {
      "inputs": [
        {
          "internalType": "uint256",
          "name": "tokenId",
          "type": "uint256"
        }
      ],
      "name": "getApproved",
      "outputs": [
        {
          "internalType": "address",
          "name": "",
          "type": "address"
        }
      ],
      "stateMutability": "view",
      "type": "function",
      "constant": true
    },
    {
      "inputs": [
        {
          "internalType": "address",
          "name": "owner",
          "type": "address"
        },
        {
          "internalType": "address",
          "name": "operator",
          "type": "address"
        }
      ],
      "name": "isApprovedForAll",
      "outputs": [
        {
          "internalType": "bool",
          "name": "",
          "type": "bool"
        }
      ],
      "stateMutability": "view",
      "type": "function",
      "constant": true
    },
    {
      "inputs": [],
      "name": "name",
      "outputs": [
        {
          "internalType": "string",
          "name": "",
          "type": "string"
        }
      ],
      "stateMutability": "view",
      "type": "function",
      "constant": true
    },
    {
      "inputs": [
        {
          "internalType": "uint256",
          "name": "tokenId",
          "type": "uint256"
        }
      ],
      "name": "ownerOf",
      "outputs": [
        {
          "internalType": "address",
          "name": "",
          "type": "address"
        }
      ],
      "stateMutability": "view",
      "type": "function",
      "constant": true
    },
    {
      "inputs": [
        {
          "internalType": "address",
          "name": "from",
          "type": "address"
        },
        {
          "internalType": "address",
          "name": "to",
          "type": "address"
        },
        {
          "internalType": "uint256",
          "name": "tokenId",
          "type": "uint256"
        }
      ],
      "name": "safeTransferFrom",
      "outputs": [],
      "stateMutability": "nonpayable",
      "type": "function"
    },
    {
      "inputs": [
        {
          "internalType": "address",
          "name": "from",
          "type": "address"
        },
        {
          "internalType": "address",
          "name": "to",
          "type": "address"
        },
        {
          "internalType": "uint256",
          "name": "tokenId",
          "type": "uint256"
        },
        {
          "internalType": "bytes",
          "name": "_data",
          "type": "bytes"
        }
      ],
      "name": "safeTransferFrom",
      "outputs": [],
      "stateMutability": "nonpayable",
      "type": "function"
    },
    {
      "inputs": [
        {
          "internalType": "address",
          "name": "operator",
          "type": "address"
        },
        {
          "internalType": "bool",
          "name": "approved",
          "type": "bool"
        }
      ],
      "name": "setApprovalForAll",
      "outputs": [],
      "stateMutability": "nonpayable",
      "type": "function"
    },
    {
      "inputs": [
        {
          "internalType": "bytes4",
          "name": "interfaceId",
          "type": "bytes4"
        }
      ],
      "name": "supportsInterface",
      "outputs": [
        {
          "internalType": "bool",
          "name": "",
          "type": "bool"
        }
      ],
      "stateMutability": "view",
      "type": "function",
      "constant": true
    },
    {
      "inputs": [],
      "name": "symbol",
      "outputs": [
        {
          "internalType": "string",
          "name": "",
          "type": "string"
        }
      ],
      "stateMutability": "view",
      "type": "function",
      "constant": true
    },
    {
      "inputs": [
        {
          "internalType": "uint256",
          "name": "tokenId",
          "type": "uint256"
        }
      ],
      "name": "tokenURI",
      "outputs": [
        {
          "internalType": "string",
          "name": "",
          "type": "string"
        }
      ],
      "stateMutability": "view",
      "type": "function",
      "constant": true
    },
    {
      "inputs": [
        {
          "internalType": "address",
          "name": "from",
          "type": "address"
        },
        {
          "internalType": "address",
          "name": "to",
          "type": "address"
        },
        {
          "internalType": "uint256",
          "name": "tokenId",
          "type": "uint256"
        }
      ],
      "name": "transferFrom",
      "outputs": [],
      "stateMutability": "nonpayable",
      "type": "function"
    },
    {
      "inputs": [],
      "name": "createToken",
      "outputs": [
        {
          "internalType": "uint256",
          "name": "",
          "type": "uint256"
        }
      ],
      "stateMutability": "nonpayable",
      "type": "function"
    },
    {
      "inputs": [
        {
          "internalType": "address",
          "name": "_ownerAddress",
          "type": "address"
        }
      ],
      "name": "getMyNfts",
      "outputs": [
        {
          "internalType": "uint256[]",
          "name": "",
          "type": "uint256[]"
        }
      ],
      "stateMutability": "view",
      "type": "function",
      "constant": true
    }
  ],
  "bytecode": "0x60806040523480156200001157600080fd5b5060405162002ce438038062002ce4833981810160405281019062000037919062000239565b6040518060400160405280600c81526020017f54616e6b4e4654546f6b656e00000000000000000000000000000000000000008152506040518060400160405280600381526020017f444b5400000000000000000000000000000000000000000000000000000000008152508160009080519060200190620000bb9291906200011f565b508060019080519060200190620000d49291906200011f565b50505080600760006101000a81548173ffffffffffffffffffffffffffffffffffffffff021916908373ffffffffffffffffffffffffffffffffffffffff16021790555050620002cf565b8280546200012d906200029a565b90600052602060002090601f0160209004810192826200015157600085556200019d565b82601f106200016c57805160ff19168380011785556200019d565b828001600101855582156200019d579182015b828111156200019c5782518255916020019190600101906200017f565b5b509050620001ac9190620001b0565b5090565b5b80821115620001cb576000816000905550600101620001b1565b5090565b600080fd5b600073ffffffffffffffffffffffffffffffffffffffff82169050919050565b60006200020182620001d4565b9050919050565b6200021381620001f4565b81146200021f57600080fd5b50565b600081519050620002338162000208565b92915050565b600060208284031215620002525762000251620001cf565b5b6000620002628482850162000222565b91505092915050565b7f4e487b7100000000000000000000000000000000000000000000000000000000600052602260045260246000fd5b60006002820490506001821680620002b357607f821691505b602082108103620002c957620002c86200026b565b5b50919050565b612a0580620002df6000396000f3fe608060405234801561001057600080fd5b50600436106100f55760003560e01c806370a0823111610097578063b88d4fde11610066578063b88d4fde14610284578063c87b56dd146102a0578063e985e9c5146102d0578063f6c1b77a14610300576100f5565b806370a08231146101fc57806395d89b411461022c5780639cbf9e361461024a578063a22cb46514610268576100f5565b8063095ea7b3116100d3578063095ea7b31461017857806323b872dd1461019457806342842e0e146101b05780636352211e146101cc576100f5565b806301ffc9a7146100fa57806306fdde031461012a578063081812fc14610148575b600080fd5b610114600480360381019061010f9190611858565b610330565b60405161012191906118a0565b60405180910390f35b610132610412565b60405161013f9190611954565b60405180910390f35b610162600480360381019061015d91906119ac565b6104a4565b60405161016f9190611a1a565b60405180910390f35b610192600480360381019061018d9190611a61565b610529565b005b6101ae60048036038101906101a99190611aa1565b610640565b005b6101ca60048036038101906101c59190611aa1565b6106a0565b005b6101e660048036038101906101e191906119ac565b6106c0565b6040516101f39190611a1a565b60405180910390f35b61021660048036038101906102119190611af4565b610771565b6040516102239190611b30565b60405180910390f35b610234610828565b6040516102419190611954565b60405180910390f35b6102526108ba565b60405161025f9190611b30565b60405180910390f35b610282600480360381019061027d9190611b77565b610953565b005b61029e60048036038101906102999190611cec565b610969565b005b6102ba60048036038101906102b591906119ac565b6109cb565b6040516102c79190611954565b60405180910390f35b6102ea60048036038101906102e59190611d6f565b610a72565b6040516102f791906118a0565b60405180910390f35b61031a60048036038101906103159190611af4565b610b06565b6040516103279190611e6d565b60405180910390f35b60007f80ac58cd000000000000000000000000000000000000000000000000000000007bffffffffffffffffffffffffffffffffffffffffffffffffffffffff1916827bffffffffffffffffffffffffffffffffffffffffffffffffffffffff191614806103fb57507f5b5e139f000000000000000000000000000000000000000000000000000000007bffffffffffffffffffffffffffffffffffffffffffffffffffffffff1916827bffffffffffffffffffffffffffffffffffffffffffffffffffffffff1916145b8061040b575061040a82610c18565b5b9050919050565b60606000805461042190611ebe565b80601f016020809104026020016040519081016040528092919081815260200182805461044d90611ebe565b801561049a5780601f1061046f5761010080835404028352916020019161049a565b820191906000526020600020905b81548152906001019060200180831161047d57829003601f168201915b5050505050905090565b60006104af82610c82565b6104ee576040517f08c379a00000000000000000000000000000000000000000000000000000000081526004016104e590611f61565b60405180910390fd5b6004600083815260200190815260200160002060009054906101000a900473ffffffffffffffffffffffffffffffffffffffff169050919050565b6000610534826106c0565b90508073ffffffffffffffffffffffffffffffffffffffff168373ffffffffffffffffffffffffffffffffffffffff16036105a4576040517f08c379a000000000000000000000000000000000000000000000000000000000815260040161059b90611ff3565b60405180910390fd5b8073ffffffffffffffffffffffffffffffffffffffff166105c3610cee565b73ffffffffffffffffffffffffffffffffffffffff1614806105f257506105f1816105ec610cee565b610a72565b5b610631576040517f08c379a000000000000000000000000000000000000000000000000000000000815260040161062890612085565b60405180910390fd5b61063b8383610cf6565b505050565b61065161064b610cee565b82610daf565b610690576040517f08c379a000000000000000000000000000000000000000000000000000000000815260040161068790612117565b60405180910390fd5b61069b838383610e8d565b505050565b6106bb83838360405180602001604052806000815250610969565b505050565b6000806002600084815260200190815260200160002060009054906101000a900473ffffffffffffffffffffffffffffffffffffffff169050600073ffffffffffffffffffffffffffffffffffffffff168173ffffffffffffffffffffffffffffffffffffffff1603610768576040517f08c379a000000000000000000000000000000000000000000000000000000000815260040161075f906121a9565b60405180910390fd5b80915050919050565b60008073ffffffffffffffffffffffffffffffffffffffff168273ffffffffffffffffffffffffffffffffffffffff16036107e1576040517f08c379a00000000000000000000000000000000000000000000000000000000081526004016107d89061223b565b60405180910390fd5b600360008373ffffffffffffffffffffffffffffffffffffffff1673ffffffffffffffffffffffffffffffffffffffff168152602001908152602001600020549050919050565b60606001805461083790611ebe565b80601f016020809104026020016040519081016040528092919081815260200182805461086390611ebe565b80156108b05780601f10610885576101008083540402835291602001916108b0565b820191906000526020600020905b81548152906001019060200180831161089357829003601f168201915b5050505050905090565b60006108c660066110f3565b60006108d26006611109565b90506108de3382611117565b6109136108e9610cee565b600760009054906101000a900473ffffffffffffffffffffffffffffffffffffffff1660016112f0565b7f0176f203df400d7bd5f1b1c9ef36c16709bf3b5d9fd35f000a6bae32393f66c3813360405161094492919061225b565b60405180910390a18091505090565b61096561095e610cee565b83836112f0565b5050565b61097a610974610cee565b83610daf565b6109b9576040517f08c379a00000000000000000000000000000000000000000000000000000000081526004016109b090612117565b60405180910390fd5b6109c58484848461145c565b50505050565b60606109d682610c82565b610a15576040517f08c379a0000000000000000000000000000000000000000000000000000000008152600401610a0c906122f6565b60405180910390fd5b6000610a1f6114b8565b90506000815111610a3f5760405180602001604052806000815250610a6a565b80610a49846114d8565b604051602001610a5a929190612352565b6040516020818303038152906040525b915050919050565b6000600560008473ffffffffffffffffffffffffffffffffffffffff1673ffffffffffffffffffffffffffffffffffffffff16815260200190815260200160002060008373ffffffffffffffffffffffffffffffffffffffff1673ffffffffffffffffffffffffffffffffffffffff16815260200190815260200160002060009054906101000a900460ff16905092915050565b60606000610b146006611109565b90506000610b2184610771565b67ffffffffffffffff811115610b3a57610b39611bc1565b5b604051908082528060200260200182016040528015610b685781602001602082028036833780820191505090505b5090506000805b83811015610c0c578573ffffffffffffffffffffffffffffffffffffffff16610ba3600183610b9e91906123a5565b6106c0565b73ffffffffffffffffffffffffffffffffffffffff1603610bf957600181610bcb91906123a5565b838381518110610bde57610bdd6123fb565b5b6020026020010181815250508180610bf59061242a565b9250505b8080610c049061242a565b915050610b6f565b50819350505050919050565b60007f01ffc9a7000000000000000000000000000000000000000000000000000000007bffffffffffffffffffffffffffffffffffffffffffffffffffffffff1916827bffffffffffffffffffffffffffffffffffffffffffffffffffffffff1916149050919050565b60008073ffffffffffffffffffffffffffffffffffffffff166002600084815260200190815260200160002060009054906101000a900473ffffffffffffffffffffffffffffffffffffffff1673ffffffffffffffffffffffffffffffffffffffff1614159050919050565b600033905090565b816004600083815260200190815260200160002060006101000a81548173ffffffffffffffffffffffffffffffffffffffff021916908373ffffffffffffffffffffffffffffffffffffffff160217905550808273ffffffffffffffffffffffffffffffffffffffff16610d69836106c0565b73ffffffffffffffffffffffffffffffffffffffff167f8c5be1e5ebec7d5bd14f71427d1e84f3dd0314c0f7b2291e5b200ac8c7c3b92560405160405180910390a45050565b6000610dba82610c82565b610df9576040517f08c379a0000000000000000000000000000000000000000000000000000000008152600401610df0906124e4565b60405180910390fd5b6000610e04836106c0565b90508073ffffffffffffffffffffffffffffffffffffffff168473ffffffffffffffffffffffffffffffffffffffff161480610e465750610e458185610a72565b5b80610e8457508373ffffffffffffffffffffffffffffffffffffffff16610e6c846104a4565b73ffffffffffffffffffffffffffffffffffffffff16145b91505092915050565b8273ffffffffffffffffffffffffffffffffffffffff16610ead826106c0565b73ffffffffffffffffffffffffffffffffffffffff1614610f03576040517f08c379a0000000000000000000000000000000000000000000000000000000008152600401610efa90612576565b60405180910390fd5b600073ffffffffffffffffffffffffffffffffffffffff168273ffffffffffffffffffffffffffffffffffffffff1603610f72576040517f08c379a0000000000000000000000000000000000000000000000000000000008152600401610f6990612608565b60405180910390fd5b610f7d838383611638565b610f88600082610cf6565b6001600360008573ffffffffffffffffffffffffffffffffffffffff1673ffffffffffffffffffffffffffffffffffffffff1681526020019081526020016000206000828254610fd89190612628565b925050819055506001600360008473ffffffffffffffffffffffffffffffffffffffff1673ffffffffffffffffffffffffffffffffffffffff168152602001908152602001600020600082825461102f91906123a5565b92505081905550816002600083815260200190815260200160002060006101000a81548173ffffffffffffffffffffffffffffffffffffffff021916908373ffffffffffffffffffffffffffffffffffffffff160217905550808273ffffffffffffffffffffffffffffffffffffffff168473ffffffffffffffffffffffffffffffffffffffff167fddf252ad1be2c89b69c2b068fc378daa952ba7f163c4a11628f55a4df523b3ef60405160405180910390a46110ee83838361163d565b505050565b6001816000016000828254019250508190555050565b600081600001549050919050565b600073ffffffffffffffffffffffffffffffffffffffff168273ffffffffffffffffffffffffffffffffffffffff1603611186576040517f08c379a000000000000000000000000000000000000000000000000000000000815260040161117d906126a8565b60405180910390fd5b61118f81610c82565b156111cf576040517f08c379a00000000000000000000000000000000000000000000000000000000081526004016111c690612714565b60405180910390fd5b6111db60008383611638565b6001600360008473ffffffffffffffffffffffffffffffffffffffff1673ffffffffffffffffffffffffffffffffffffffff168152602001908152602001600020600082825461122b91906123a5565b92505081905550816002600083815260200190815260200160002060006101000a81548173ffffffffffffffffffffffffffffffffffffffff021916908373ffffffffffffffffffffffffffffffffffffffff160217905550808273ffffffffffffffffffffffffffffffffffffffff16600073ffffffffffffffffffffffffffffffffffffffff167fddf252ad1be2c89b69c2b068fc378daa952ba7f163c4a11628f55a4df523b3ef60405160405180910390a46112ec6000838361163d565b5050565b8173ffffffffffffffffffffffffffffffffffffffff168373ffffffffffffffffffffffffffffffffffffffff160361135e576040517f08c379a000000000000000000000000000000000000000000000000000000000815260040161135590612780565b60405180910390fd5b80600560008573ffffffffffffffffffffffffffffffffffffffff1673ffffffffffffffffffffffffffffffffffffffff16815260200190815260200160002060008473ffffffffffffffffffffffffffffffffffffffff1673ffffffffffffffffffffffffffffffffffffffff16815260200190815260200160002060006101000a81548160ff0219169083151502179055508173ffffffffffffffffffffffffffffffffffffffff168373ffffffffffffffffffffffffffffffffffffffff167f17307eab39ab6107e8899845ad3d59bd9653f200f220920489ca2b5937696c318360405161144f91906118a0565b60405180910390a3505050565b611467848484610e8d565b61147384848484611642565b6114b2576040517f08c379a00000000000000000000000000000000000000000000000000000000081526004016114a990612812565b60405180910390fd5b50505050565b60606040518060600160405280602981526020016129a760299139905090565b60606000820361151f576040518060400160405280600181526020017f30000000000000000000000000000000000000000000000000000000000000008152509050611633565b600082905060005b6000821461155157808061153a9061242a565b915050600a8261154a9190612861565b9150611527565b60008167ffffffffffffffff81111561156d5761156c611bc1565b5b6040519080825280601f01601f19166020018201604052801561159f5781602001600182028036833780820191505090505b5090505b6000851461162c576001826115b89190612628565b9150600a856115c79190612892565b60306115d391906123a5565b60f81b8183815181106115e9576115e86123fb565b5b60200101907effffffffffffffffffffffffffffffffffffffffffffffffffffffffffffff1916908160001a905350600a856116259190612861565b94506115a3565b8093505050505b919050565b505050565b505050565b60006116638473ffffffffffffffffffffffffffffffffffffffff166117c9565b156117bc578373ffffffffffffffffffffffffffffffffffffffff1663150b7a0261168c610cee565b8786866040518563ffffffff1660e01b81526004016116ae9493929190612918565b6020604051808303816000875af19250505080156116ea57506040513d601f19601f820116820180604052508101906116e79190612979565b60015b61176c573d806000811461171a576040519150601f19603f3d011682016040523d82523d6000602084013e61171f565b606091505b506000815103611764576040517f08c379a000000000000000000000000000000000000000000000000000000000815260040161175b90612812565b60405180910390fd5b805181602001fd5b63150b7a0260e01b7bffffffffffffffffffffffffffffffffffffffffffffffffffffffff1916817bffffffffffffffffffffffffffffffffffffffffffffffffffffffff1916149150506117c1565b600190505b949350505050565b6000808273ffffffffffffffffffffffffffffffffffffffff163b119050919050565b6000604051905090565b600080fd5b600080fd5b60007fffffffff0000000000000000000000000000000000000000000000000000000082169050919050565b61183581611800565b811461184057600080fd5b50565b6000813590506118528161182c565b92915050565b60006020828403121561186e5761186d6117f6565b5b600061187c84828501611843565b91505092915050565b60008115159050919050565b61189a81611885565b82525050565b60006020820190506118b56000830184611891565b92915050565b600081519050919050565b600082825260208201905092915050565b60005b838110156118f55780820151818401526020810190506118da565b83811115611904576000848401525b50505050565b6000601f19601f8301169050919050565b6000611926826118bb565b61193081856118c6565b93506119408185602086016118d7565b6119498161190a565b840191505092915050565b6000602082019050818103600083015261196e818461191b565b905092915050565b6000819050919050565b61198981611976565b811461199457600080fd5b50565b6000813590506119a681611980565b92915050565b6000602082840312156119c2576119c16117f6565b5b60006119d084828501611997565b91505092915050565b600073ffffffffffffffffffffffffffffffffffffffff82169050919050565b6000611a04826119d9565b9050919050565b611a14816119f9565b82525050565b6000602082019050611a2f6000830184611a0b565b92915050565b611a3e816119f9565b8114611a4957600080fd5b50565b600081359050611a5b81611a35565b92915050565b60008060408385031215611a7857611a776117f6565b5b6000611a8685828601611a4c565b9250506020611a9785828601611997565b9150509250929050565b600080600060608486031215611aba57611ab96117f6565b5b6000611ac886828701611a4c565b9350506020611ad986828701611a4c565b9250506040611aea86828701611997565b9150509250925092565b600060208284031215611b0a57611b096117f6565b5b6000611b1884828501611a4c565b91505092915050565b611b2a81611976565b82525050565b6000602082019050611b456000830184611b21565b92915050565b611b5481611885565b8114611b5f57600080fd5b50565b600081359050611b7181611b4b565b92915050565b60008060408385031215611b8e57611b8d6117f6565b5b6000611b9c85828601611a4c565b9250506020611bad85828601611b62565b9150509250929050565b600080fd5b600080fd5b7f4e487b7100000000000000000000000000000000000000000000000000000000600052604160045260246000fd5b611bf98261190a565b810181811067ffffffffffffffff82111715611c1857611c17611bc1565b5b80604052505050565b6000611c2b6117ec565b9050611c378282611bf0565b919050565b600067ffffffffffffffff821115611c5757611c56611bc1565b5b611c608261190a565b9050602081019050919050565b82818337600083830152505050565b6000611c8f611c8a84611c3c565b611c21565b905082815260208101848484011115611cab57611caa611bbc565b5b611cb6848285611c6d565b509392505050565b600082601f830112611cd357611cd2611bb7565b5b8135611ce3848260208601611c7c565b91505092915050565b60008060008060808587031215611d0657611d056117f6565b5b6000611d1487828801611a4c565b9450506020611d2587828801611a4c565b9350506040611d3687828801611997565b925050606085013567ffffffffffffffff811115611d5757611d566117fb565b5b611d6387828801611cbe565b91505092959194509250565b60008060408385031215611d8657611d856117f6565b5b6000611d9485828601611a4c565b9250506020611da585828601611a4c565b9150509250929050565b600081519050919050565b600082825260208201905092915050565b6000819050602082019050919050565b611de481611976565b82525050565b6000611df68383611ddb565b60208301905092915050565b6000602082019050919050565b6000611e1a82611daf565b611e248185611dba565b9350611e2f83611dcb565b8060005b83811015611e60578151611e478882611dea565b9750611e5283611e02565b925050600181019050611e33565b5085935050505092915050565b60006020820190508181036000830152611e878184611e0f565b905092915050565b7f4e487b7100000000000000000000000000000000000000000000000000000000600052602260045260246000fd5b60006002820490506001821680611ed657607f821691505b602082108103611ee957611ee8611e8f565b5b50919050565b7f4552433732313a20617070726f76656420717565727920666f72206e6f6e657860008201527f697374656e7420746f6b656e0000000000000000000000000000000000000000602082015250565b6000611f4b602c836118c6565b9150611f5682611eef565b604082019050919050565b60006020820190508181036000830152611f7a81611f3e565b9050919050565b7f4552433732313a20617070726f76616c20746f2063757272656e74206f776e6560008201527f7200000000000000000000000000000000000000000000000000000000000000602082015250565b6000611fdd6021836118c6565b9150611fe882611f81565b604082019050919050565b6000602082019050818103600083015261200c81611fd0565b9050919050565b7f4552433732313a20617070726f76652063616c6c6572206973206e6f74206f7760008201527f6e6572206e6f7220617070726f76656420666f7220616c6c0000000000000000602082015250565b600061206f6038836118c6565b915061207a82612013565b604082019050919050565b6000602082019050818103600083015261209e81612062565b9050919050565b7f4552433732313a207472616e736665722063616c6c6572206973206e6f74206f60008201527f776e6572206e6f7220617070726f766564000000000000000000000000000000602082015250565b60006121016031836118c6565b915061210c826120a5565b604082019050919050565b60006020820190508181036000830152612130816120f4565b9050919050565b7f4552433732313a206f776e657220717565727920666f72206e6f6e657869737460008201527f656e7420746f6b656e0000000000000000000000000000000000000000000000602082015250565b60006121936029836118c6565b915061219e82612137565b604082019050919050565b600060208201905081810360008301526121c281612186565b9050919050565b7f4552433732313a2062616c616e636520717565727920666f7220746865207a6560008201527f726f206164647265737300000000000000000000000000000000000000000000602082015250565b6000612225602a836118c6565b9150612230826121c9565b604082019050919050565b6000602082019050818103600083015261225481612218565b9050919050565b60006040820190506122706000830185611b21565b61227d6020830184611a0b565b9392505050565b7f4552433732314d657461646174613a2055524920717565727920666f72206e6f60008201527f6e6578697374656e7420746f6b656e0000000000000000000000000000000000602082015250565b60006122e0602f836118c6565b91506122eb82612284565b604082019050919050565b6000602082019050818103600083015261230f816122d3565b9050919050565b600081905092915050565b600061232c826118bb565b6123368185612316565b93506123468185602086016118d7565b80840191505092915050565b600061235e8285612321565b915061236a8284612321565b91508190509392505050565b7f4e487b7100000000000000000000000000000000000000000000000000000000600052601160045260246000fd5b60006123b082611976565b91506123bb83611976565b9250827fffffffffffffffffffffffffffffffffffffffffffffffffffffffffffffffff038211156123f0576123ef612376565b5b828201905092915050565b7f4e487b7100000000000000000000000000000000000000000000000000000000600052603260045260246000fd5b600061243582611976565b91507fffffffffffffffffffffffffffffffffffffffffffffffffffffffffffffffff820361246757612466612376565b5b600182019050919050565b7f4552433732313a206f70657261746f7220717565727920666f72206e6f6e657860008201527f697374656e7420746f6b656e0000000000000000000000000000000000000000602082015250565b60006124ce602c836118c6565b91506124d982612472565b604082019050919050565b600060208201905081810360008301526124fd816124c1565b9050919050565b7f4552433732313a207472616e736665722066726f6d20696e636f72726563742060008201527f6f776e6572000000000000000000000000000000000000000000000000000000602082015250565b60006125606025836118c6565b915061256b82612504565b604082019050919050565b6000602082019050818103600083015261258f81612553565b9050919050565b7f4552433732313a207472616e7366657220746f20746865207a65726f2061646460008201527f7265737300000000000000000000000000000000000000000000000000000000602082015250565b60006125f26024836118c6565b91506125fd82612596565b604082019050919050565b60006020820190508181036000830152612621816125e5565b9050919050565b600061263382611976565b915061263e83611976565b92508282101561265157612650612376565b5b828203905092915050565b7f4552433732313a206d696e7420746f20746865207a65726f2061646472657373600082015250565b60006126926020836118c6565b915061269d8261265c565b602082019050919050565b600060208201905081810360008301526126c181612685565b9050919050565b7f4552433732313a20746f6b656e20616c7265616479206d696e74656400000000600082015250565b60006126fe601c836118c6565b9150612709826126c8565b602082019050919050565b6000602082019050818103600083015261272d816126f1565b9050919050565b7f4552433732313a20617070726f766520746f2063616c6c657200000000000000600082015250565b600061276a6019836118c6565b915061277582612734565b602082019050919050565b600060208201905081810360008301526127998161275d565b9050919050565b7f4552433732313a207472616e7366657220746f206e6f6e20455243373231526560008201527f63656976657220696d706c656d656e7465720000000000000000000000000000602082015250565b60006127fc6032836118c6565b9150612807826127a0565b604082019050919050565b6000602082019050818103600083015261282b816127ef565b9050919050565b7f4e487b7100000000000000000000000000000000000000000000000000000000600052601260045260246000fd5b600061286c82611976565b915061287783611976565b92508261288757612886612832565b5b828204905092915050565b600061289d82611976565b91506128a883611976565b9250826128b8576128b7612832565b5b828206905092915050565b600081519050919050565b600082825260208201905092915050565b60006128ea826128c3565b6128f481856128ce565b93506129048185602086016118d7565b61290d8161190a565b840191505092915050565b600060808201905061292d6000830187611a0b565b61293a6020830186611a0b565b6129476040830185611b21565b818103606083015261295981846128df565b905095945050505050565b6000815190506129738161182c565b92915050565b60006020828403121561298f5761298e6117f6565b5b600061299d84828501612964565b9150509291505056fe68747470733a2f2f6170692e74686564656174686b696e67646f6d2e636f6d2f6d657461646174612fa2646970667358221220c85c40285d23480ba019e5e5912e7669270f7f882d1537503a76a3a37c8e339c64736f6c634300080d0033",
  "immutableReferences": {},
  "source": "// SPDX-License-Identifier: MIT\r\n\r\npragma solidity ^0.8.13;\r\n\r\nimport \"@openzeppelin/contracts/token/ERC721/ERC721.sol\";\r\nimport \"@openzeppelin/contracts/utils/Counters.sol\";\r\n\r\ncontract TankNFT is ERC721 {\r\n    using Counters for Counters.Counter;\r\n    Counters.Counter private _tokenIds;\r\n    address contractAddress;\r\n\r\n    constructor(address NFTMarket) ERC721(\"TankNFTToken\", \"DKT\") {\r\n        contractAddress = NFTMarket;\r\n    }\r\n\r\n    function _baseURI() internal pure override returns (string memory) {\r\n        return \"https://api.thedeathkingdom.com/metadata/\";\r\n    }\r\n\r\n    event NFTMinted(uint256 tokenId, address tokenOwner);\r\n\r\n    function createToken() public returns (uint256) {\r\n        _tokenIds.increment();\r\n        uint256 newTokenId = _tokenIds.current();\r\n\r\n        _mint(msg.sender, newTokenId);\r\n        _setApprovalForAll(_msgSender(), contractAddress, true);\r\n\r\n        emit NFTMinted(newTokenId, msg.sender);\r\n        return newTokenId;\r\n    }\r\n\r\n    function getMyNfts(address _ownerAddress)\r\n        public\r\n        view\r\n        returns (uint256[] memory)\r\n    {\r\n        uint256 nftCount = _tokenIds.current();\r\n        uint256[] memory nfts = new uint256[](balanceOf(_ownerAddress));\r\n        uint256 nftIndex = 0;\r\n        for (uint256 i = 0; i < nftCount; i++) {\r\n            if (ownerOf(i + 1) == _ownerAddress) {\r\n                nfts[nftIndex] = i + 1;\r\n                nftIndex++;\r\n            }\r\n        }\r\n        return nfts;\r\n    }\r\n}\r\n",
  "sourcePath": "D:\\code\\TheDeadKingdom\\Contract\\contracts\\ethereum\\TankNFT.sol",
  "compiler": {
    "name": "solc",
    "version": "0.8.13+commit.abaa5c0e.Emscripten.clang"
  },
  "schemaVersion": "3.4.7",
  "updatedAt": "2022-07-10T17:08:01.010Z",
  "networkType": "ethereum",
  "devdoc": {
    "kind": "dev",
    "methods": {
      "approve(address,uint256)": {
        "details": "See {IERC721-approve}."
      },
      "balanceOf(address)": {
        "details": "See {IERC721-balanceOf}."
      },
      "getApproved(uint256)": {
        "details": "See {IERC721-getApproved}."
      },
      "isApprovedForAll(address,address)": {
        "details": "See {IERC721-isApprovedForAll}."
      },
      "name()": {
        "details": "See {IERC721Metadata-name}."
      },
      "ownerOf(uint256)": {
        "details": "See {IERC721-ownerOf}."
      },
      "safeTransferFrom(address,address,uint256)": {
        "details": "See {IERC721-safeTransferFrom}."
      },
      "safeTransferFrom(address,address,uint256,bytes)": {
        "details": "See {IERC721-safeTransferFrom}."
      },
      "setApprovalForAll(address,bool)": {
        "details": "See {IERC721-setApprovalForAll}."
      },
      "supportsInterface(bytes4)": {
        "details": "See {IERC165-supportsInterface}."
      },
      "symbol()": {
        "details": "See {IERC721Metadata-symbol}."
      },
      "tokenURI(uint256)": {
        "details": "See {IERC721Metadata-tokenURI}."
      },
      "transferFrom(address,address,uint256)": {
        "details": "See {IERC721-transferFrom}."
      }
    },
    "version": 1
  },
  "userdoc": {
    "kind": "user",
    "methods": {},
    "version": 1
  }
}